{"abi":[{"type":"constructor","inputs":[],"stateMutability":"nonpayable"},{"type":"function","name":"ADMIN_ROLE","inputs":[],"outputs":[{"name":"","type":"bytes32","internalType":"bytes32"}],"stateMutability":"view"},{"type":"function","name":"DEFAULT_ADMIN_ROLE","inputs":[],"outputs":[{"name":"","type":"bytes32","internalType":"bytes32"}],"stateMutability":"view"},{"type":"function","name":"OPERATOR_ROLE","inputs":[],"outputs":[{"name":"","type":"bytes32","internalType":"bytes32"}],"stateMutability":"view"},{"type":"function","name":"acceptDefaultAdminTransfer","inputs":[],"outputs":[],"stateMutability":"nonpayable"},{"type":"function","name":"acceptStock","inputs":[{"name":"stakeholderId","type":"bytes16","internalType":"bytes16"},{"name":"stockClassId","type":"bytes16","internalType":"bytes16"},{"name":"securityId","type":"bytes16","internalType":"bytes16"},{"name":"comments","type":"string[]","internalType":"string[]"}],"outputs":[],"stateMutability":"nonpayable"},{"type":"function","name":"addAdmin","inputs":[{"name":"addr","type":"address","internalType":"address"}],"outputs":[],"stateMutability":"nonpayable"},{"type":"function","name":"addOperator","inputs":[{"name":"addr","type":"address","internalType":"address"}],"outputs":[],"stateMutability":"nonpayable"},{"type":"function","name":"addWalletToStakeholder","inputs":[{"name":"_stakeholder_id","type":"bytes16","internalType":"bytes16"},{"name":"_wallet","type":"address","internalType":"address"}],"outputs":[],"stateMutability":"nonpayable"},{"type":"function","name":"adjustIssuerAuthorizedShares","inputs":[{"name":"newSharesAuthorized","type":"uint256","internalType":"uint256"},{"name":"comments","type":"string[]","internalType":"string[]"},{"name":"boardApprovalDate","type":"string","internalType":"string"},{"name":"stockholderApprovalDate","type":"string","internalType":"string"}],"outputs":[],"stateMutability":"nonpayable"},{"type":"function","name":"adjustStockClassAuthorizedShares","inputs":[{"name":"stockClassId","type":"bytes16","internalType":"bytes16"},{"name":"newAuthorizedShares","type":"uint256","internalType":"uint256"},{"name":"comments","type":"string[]","internalType":"string[]"},{"name":"boardApprovalDate","type":"string","internalType":"string"},{"name":"stockholderApprovalDate","type":"string","internalType":"string"}],"outputs":[],"stateMutability":"nonpayable"},{"type":"function","name":"beginDefaultAdminTransfer","inputs":[{"name":"newAdmin","type":"address","internalType":"address"}],"outputs":[],"stateMutability":"nonpayable"},{"type":"function","name":"cancelDefaultAdminTransfer","inputs":[],"outputs":[],"stateMutability":"nonpayable"},{"type":"function","name":"cancelStock","inputs":[{"name":"params","type":"tuple","internalType":"struct StockParams","components":[{"name":"stakeholder_id","type":"bytes16","internalType":"bytes16"},{"name":"stock_class_id","type":"bytes16","internalType":"bytes16"},{"name":"security_id","type":"bytes16","internalType":"bytes16"},{"name":"comments","type":"string[]","internalType":"string[]"},{"name":"reason_text","type":"string","internalType":"string"}]},{"name":"quantity","type":"uint256","internalType":"uint256"}],"outputs":[],"stateMutability":"nonpayable"},{"type":"function","name":"changeDefaultAdminDelay","inputs":[{"name":"newDelay","type":"uint48","internalType":"uint48"}],"outputs":[],"stateMutability":"nonpayable"},{"type":"function","name":"createStakeholder","inputs":[{"name":"_id","type":"bytes16","internalType":"bytes16"},{"name":"_stakeholder_type","type":"string","internalType":"string"},{"name":"_current_relationship","type":"string","internalType":"string"}],"outputs":[],"stateMutability":"nonpayable"},{"type":"function","name":"createStockClass","inputs":[{"name":"_id","type":"bytes16","internalType":"bytes16"},{"name":"_class_type","type":"string","internalType":"string"},{"name":"_price_per_share","type":"uint256","internalType":"uint256"},{"name":"_initial_share_authorized","type":"uint256","internalType":"uint256"}],"outputs":[],"stateMutability":"nonpayable"},{"type":"function","name":"createStockLegendTemplate","inputs":[{"name":"_id","type":"bytes16","internalType":"bytes16"}],"outputs":[],"stateMutability":"nonpayable"},{"type":"function","name":"defaultAdmin","inputs":[],"outputs":[{"name":"","type":"address","internalType":"address"}],"stateMutability":"view"},{"type":"function","name":"defaultAdminDelay","inputs":[],"outputs":[{"name":"","type":"uint48","internalType":"uint48"}],"stateMutability":"view"},{"type":"function","name":"defaultAdminDelayIncreaseWait","inputs":[],"outputs":[{"name":"","type":"uint48","internalType":"uint48"}],"stateMutability":"view"},{"type":"function","name":"getActivePosition","inputs":[{"name":"stakeholderId","type":"bytes16","internalType":"bytes16"},{"name":"securityId","type":"bytes16","internalType":"bytes16"}],"outputs":[{"name":"","type":"bytes16","internalType":"bytes16"},{"name":"","type":"uint256","internalType":"uint256"},{"name":"","type":"uint256","internalType":"uint256"},{"name":"","type":"uint40","internalType":"uint40"}],"stateMutability":"view"},{"type":"function","name":"getAveragePosition","inputs":[{"name":"stakeholderId","type":"bytes16","internalType":"bytes16"},{"name":"stockClassId","type":"bytes16","internalType":"bytes16"}],"outputs":[{"name":"","type":"uint256","internalType":"uint256"},{"name":"","type":"uint256","internalType":"uint256"},{"name":"","type":"uint40","internalType":"uint40"}],"stateMutability":"view"},{"type":"function","name":"getRoleAdmin","inputs":[{"name":"role","type":"bytes32","internalType":"bytes32"}],"outputs":[{"name":"","type":"bytes32","internalType":"bytes32"}],"stateMutability":"view"},{"type":"function","name":"getStakeholderById","inputs":[{"name":"_id","type":"bytes16","internalType":"bytes16"}],"outputs":[{"name":"","type":"bytes16","internalType":"bytes16"},{"name":"","type":"string","internalType":"string"},{"name":"","type":"string","internalType":"string"}],"stateMutability":"view"},{"type":"function","name":"getStakeholderIdByWallet","inputs":[{"name":"_wallet","type":"address","internalType":"address"}],"outputs":[{"name":"stakeholderId","type":"bytes16","internalType":"bytes16"}],"stateMutability":"view"},{"type":"function","name":"getStockClassById","inputs":[{"name":"_id","type":"bytes16","internalType":"bytes16"}],"outputs":[{"name":"","type":"bytes16","internalType":"bytes16"},{"name":"","type":"string","internalType":"string"},{"name":"","type":"uint256","internalType":"uint256"},{"name":"","type":"uint256","internalType":"uint256"},{"name":"","type":"uint256","internalType":"uint256"}],"stateMutability":"view"},{"type":"function","name":"getTotalActiveSecuritiesCount","inputs":[],"outputs":[{"name":"","type":"uint256","internalType":"uint256"}],"stateMutability":"view"},{"type":"function","name":"getTotalNumberOfStakeholders","inputs":[],"outputs":[{"name":"","type":"uint256","internalType":"uint256"}],"stateMutability":"view"},{"type":"function","name":"getTotalNumberOfStockClasses","inputs":[],"outputs":[{"name":"","type":"uint256","internalType":"uint256"}],"stateMutability":"view"},{"type":"function","name":"getTransactionsCount","inputs":[],"outputs":[{"name":"","type":"uint256","internalType":"uint256"}],"stateMutability":"view"},{"type":"function","name":"grantRole","inputs":[{"name":"role","type":"bytes32","internalType":"bytes32"},{"name":"account","type":"address","internalType":"address"}],"outputs":[],"stateMutability":"nonpayable"},{"type":"function","name":"hasRole","inputs":[{"name":"role","type":"bytes32","internalType":"bytes32"},{"name":"account","type":"address","internalType":"address"}],"outputs":[{"name":"","type":"bool","internalType":"bool"}],"stateMutability":"view"},{"type":"function","name":"initialize","inputs":[{"name":"id","type":"bytes16","internalType":"bytes16"},{"name":"name","type":"string","internalType":"string"},{"name":"initial_shares_authorized","type":"uint256","internalType":"uint256"},{"name":"admin","type":"address","internalType":"address"}],"outputs":[],"stateMutability":"nonpayable"},{"type":"function","name":"issueStock","inputs":[{"name":"params","type":"tuple","internalType":"struct StockIssuanceParams","components":[{"name":"stock_class_id","type":"bytes16","internalType":"bytes16"},{"name":"stock_plan_id","type":"bytes16","internalType":"bytes16"},{"name":"share_numbers_issued","type":"tuple","internalType":"struct ShareNumbersIssued","components":[{"name":"starting_share_number","type":"uint256","internalType":"uint256"},{"name":"ending_share_number","type":"uint256","internalType":"uint256"}]},{"name":"share_price","type":"uint256","internalType":"uint256"},{"name":"quantity","type":"uint256","internalType":"uint256"},{"name":"vesting_terms_id","type":"bytes16","internalType":"bytes16"},{"name":"cost_basis","type":"uint256","internalType":"uint256"},{"name":"stock_legend_ids","type":"bytes16[]","internalType":"bytes16[]"},{"name":"issuance_type","type":"string","internalType":"string"},{"name":"comments","type":"string[]","internalType":"string[]"},{"name":"custom_id","type":"string","internalType":"string"},{"name":"stakeholder_id","type":"bytes16","internalType":"bytes16"},{"name":"board_approval_date","type":"string","internalType":"string"},{"name":"stockholder_approval_date","type":"string","internalType":"string"},{"name":"consideration_text","type":"string","internalType":"string"},{"name":"security_law_exemptions","type":"string[]","internalType":"string[]"}]}],"outputs":[],"stateMutability":"nonpayable"},{"type":"function","name":"issuer","inputs":[],"outputs":[{"name":"id","type":"bytes16","internalType":"bytes16"},{"name":"legal_name","type":"string","internalType":"string"},{"name":"shares_issued","type":"uint256","internalType":"uint256"},{"name":"shares_authorized","type":"uint256","internalType":"uint256"}],"stateMutability":"view"},{"type":"function","name":"nonce","inputs":[],"outputs":[{"name":"","type":"uint256","internalType":"uint256"}],"stateMutability":"view"},{"type":"function","name":"owner","inputs":[],"outputs":[{"name":"","type":"address","internalType":"address"}],"stateMutability":"view"},{"type":"function","name":"pendingDefaultAdmin","inputs":[],"outputs":[{"name":"newAdmin","type":"address","internalType":"address"},{"name":"schedule","type":"uint48","internalType":"uint48"}],"stateMutability":"view"},{"type":"function","name":"pendingDefaultAdminDelay","inputs":[],"outputs":[{"name":"newDelay","type":"uint48","internalType":"uint48"},{"name":"schedule","type":"uint48","internalType":"uint48"}],"stateMutability":"view"},{"type":"function","name":"reissueStock","inputs":[{"name":"params","type":"tuple","internalType":"struct StockParams","components":[{"name":"stakeholder_id","type":"bytes16","internalType":"bytes16"},{"name":"stock_class_id","type":"bytes16","internalType":"bytes16"},{"name":"security_id","type":"bytes16","internalType":"bytes16"},{"name":"comments","type":"string[]","internalType":"string[]"},{"name":"reason_text","type":"string","internalType":"string"}]},{"name":"resulting_security_ids","type":"bytes16[]","internalType":"bytes16[]"}],"outputs":[],"stateMutability":"nonpayable"},{"type":"function","name":"removeAdmin","inputs":[{"name":"addr","type":"address","internalType":"address"}],"outputs":[],"stateMutability":"nonpayable"},{"type":"function","name":"removeOperator","inputs":[{"name":"addr","type":"address","internalType":"address"}],"outputs":[],"stateMutability":"nonpayable"},{"type":"function","name":"removeWalletFromStakeholder","inputs":[{"name":"_stakeholder_id","type":"bytes16","internalType":"bytes16"},{"name":"_wallet","type":"address","internalType":"address"}],"outputs":[],"stateMutability":"nonpayable"},{"type":"function","name":"renounceRole","inputs":[{"name":"role","type":"bytes32","internalType":"bytes32"},{"name":"account","type":"address","internalType":"address"}],"outputs":[],"stateMutability":"nonpayable"},{"type":"function","name":"repurchaseStock","inputs":[{"name":"params","type":"tuple","internalType":"struct StockParams","components":[{"name":"stakeholder_id","type":"bytes16","internalType":"bytes16"},{"name":"stock_class_id","type":"bytes16","internalType":"bytes16"},{"name":"security_id","type":"bytes16","internalType":"bytes16"},{"name":"comments","type":"string[]","internalType":"string[]"},{"name":"reason_text","type":"string","internalType":"string"}]},{"name":"quantity","type":"uint256","internalType":"uint256"},{"name":"price","type":"uint256","internalType":"uint256"}],"outputs":[],"stateMutability":"nonpayable"},{"type":"function","name":"retractStockIssuance","inputs":[{"name":"params","type":"tuple","internalType":"struct StockParams","components":[{"name":"stakeholder_id","type":"bytes16","internalType":"bytes16"},{"name":"stock_class_id","type":"bytes16","internalType":"bytes16"},{"name":"security_id","type":"bytes16","internalType":"bytes16"},{"name":"comments","type":"string[]","internalType":"string[]"},{"name":"reason_text","type":"string","internalType":"string"}]}],"outputs":[],"stateMutability":"nonpayable"},{"type":"function","name":"revokeRole","inputs":[{"name":"role","type":"bytes32","internalType":"bytes32"},{"name":"account","type":"address","internalType":"address"}],"outputs":[],"stateMutability":"nonpayable"},{"type":"function","name":"rollbackDefaultAdminDelay","inputs":[],"outputs":[],"stateMutability":"nonpayable"},{"type":"function","name":"seedMultipleActivePositionsAndSecurityIds","inputs":[{"name":"stakeholderIds","type":"bytes16[]","internalType":"bytes16[]"},{"name":"securityIds","type":"bytes16[]","internalType":"bytes16[]"},{"name":"stockClassIds","type":"bytes16[]","internalType":"bytes16[]"},{"name":"quantities","type":"uint256[]","internalType":"uint256[]"},{"name":"sharePrices","type":"uint256[]","internalType":"uint256[]"},{"name":"timestamps","type":"uint40[]","internalType":"uint40[]"}],"outputs":[],"stateMutability":"nonpayable"},{"type":"function","name":"seedSharesAuthorizedAndIssued","inputs":[{"name":"params","type":"tuple","internalType":"struct InitialShares","components":[{"name":"issuerInitialShares","type":"tuple","internalType":"struct IssuerInitialShares","components":[{"name":"shares_authorized","type":"uint256","internalType":"uint256"},{"name":"shares_issued","type":"uint256","internalType":"uint256"}]},{"name":"stockClassesInitialShares","type":"tuple[]","internalType":"struct StockClassInitialShares[]","components":[{"name":"id","type":"bytes16","internalType":"bytes16"},{"name":"shares_authorized","type":"uint256","internalType":"uint256"},{"name":"shares_issued","type":"uint256","internalType":"uint256"}]}]}],"outputs":[],"stateMutability":"nonpayable"},{"type":"function","name":"stakeholderIndex","inputs":[{"name":"","type":"bytes16","internalType":"bytes16"}],"outputs":[{"name":"","type":"uint256","internalType":"uint256"}],"stateMutability":"view"},{"type":"function","name":"stakeholders","inputs":[{"name":"","type":"uint256","internalType":"uint256"}],"outputs":[{"name":"id","type":"bytes16","internalType":"bytes16"},{"name":"stakeholder_type","type":"string","internalType":"string"},{"name":"current_relationship","type":"string","internalType":"string"}],"stateMutability":"view"},{"type":"function","name":"stockClassIndex","inputs":[{"name":"","type":"bytes16","internalType":"bytes16"}],"outputs":[{"name":"","type":"uint256","internalType":"uint256"}],"stateMutability":"view"},{"type":"function","name":"stockClasses","inputs":[{"name":"","type":"uint256","internalType":"uint256"}],"outputs":[{"name":"id","type":"bytes16","internalType":"bytes16"},{"name":"class_type","type":"string","internalType":"string"},{"name":"price_per_share","type":"uint256","internalType":"uint256"},{"name":"shares_issued","type":"uint256","internalType":"uint256"},{"name":"shares_authorized","type":"uint256","internalType":"uint256"}],"stateMutability":"view"},{"type":"function","name":"stockLegendTemplates","inputs":[{"name":"","type":"uint256","internalType":"uint256"}],"outputs":[{"name":"id","type":"bytes16","internalType":"bytes16"}],"stateMutability":"view"},{"type":"function","name":"supportsInterface","inputs":[{"name":"interfaceId","type":"bytes4","internalType":"bytes4"}],"outputs":[{"name":"","type":"bool","internalType":"bool"}],"stateMutability":"view"},{"type":"function","name":"transactions","inputs":[{"name":"","type":"uint256","internalType":"uint256"}],"outputs":[{"name":"","type":"bytes","internalType":"bytes"}],"stateMutability":"view"},{"type":"function","name":"transferStock","inputs":[{"name":"transferorStakeholderId","type":"bytes16","internalType":"bytes16"},{"name":"transfereeStakeholderId","type":"bytes16","internalType":"bytes16"},{"name":"stockClassId","type":"bytes16","internalType":"bytes16"},{"name":"isBuyerVerified","type":"bool","internalType":"bool"},{"name":"quantity","type":"uint256","internalType":"uint256"},{"name":"share_price","type":"uint256","internalType":"uint256"}],"outputs":[],"stateMutability":"nonpayable"},{"type":"function","name":"walletsPerStakeholder","inputs":[{"name":"","type":"address","internalType":"address"}],"outputs":[{"name":"","type":"bytes16","internalType":"bytes16"}],"stateMutability":"view"},{"type":"event","name":"DefaultAdminDelayChangeCanceled","inputs":[],"anonymous":false},{"type":"event","name":"DefaultAdminDelayChangeScheduled","inputs":[{"name":"newDelay","type":"uint48","indexed":false,"internalType":"uint48"},{"name":"effectSchedule","type":"uint48","indexed":false,"internalType":"uint48"}],"anonymous":false},{"type":"event","name":"DefaultAdminTransferCanceled","inputs":[],"anonymous":false},{"type":"event","name":"DefaultAdminTransferScheduled","inputs":[{"name":"newAdmin","type":"address","indexed":true,"internalType":"address"},{"name":"acceptSchedule","type":"uint48","indexed":false,"internalType":"uint48"}],"anonymous":false},{"type":"event","name":"Initialized","inputs":[{"name":"version","type":"uint8","indexed":false,"internalType":"uint8"}],"anonymous":false},{"type":"event","name":"IssuerCreated","inputs":[{"name":"id","type":"bytes16","indexed":true,"internalType":"bytes16"},{"name":"_name","type":"string","indexed":true,"internalType":"string"}],"anonymous":false},{"type":"event","name":"RoleAdminChanged","inputs":[{"name":"role","type":"bytes32","indexed":true,"internalType":"bytes32"},{"name":"previousAdminRole","type":"bytes32","indexed":true,"internalType":"bytes32"},{"name":"newAdminRole","type":"bytes32","indexed":true,"internalType":"bytes32"}],"anonymous":false},{"type":"event","name":"RoleGranted","inputs":[{"name":"role","type":"bytes32","indexed":true,"internalType":"bytes32"},{"name":"account","type":"address","indexed":true,"internalType":"address"},{"name":"sender","type":"address","indexed":true,"internalType":"address"}],"anonymous":false},{"type":"event","name":"RoleRevoked","inputs":[{"name":"role","type":"bytes32","indexed":true,"internalType":"bytes32"},{"name":"account","type":"address","indexed":true,"internalType":"address"},{"name":"sender","type":"address","indexed":true,"internalType":"address"}],"anonymous":false},{"type":"event","name":"StakeholderCreated","inputs":[{"name":"id","type":"bytes16","indexed":true,"internalType":"bytes16"}],"anonymous":false},{"type":"event","name":"StockClassCreated","inputs":[{"name":"id","type":"bytes16","indexed":true,"internalType":"bytes16"},{"name":"classType","type":"string","indexed":true,"internalType":"string"},{"name":"pricePerShare","type":"uint256","indexed":true,"internalType":"uint256"},{"name":"initialSharesAuthorized","type":"uint256","indexed":false,"internalType":"uint256"}],"anonymous":false},{"type":"error","name":"InsufficientIssuerSharesAuthorized","inputs":[]},{"type":"error","name":"InsufficientStockClassSharesAuthorized","inputs":[]},{"type":"error","name":"InvalidStockClass","inputs":[{"name":"stock_class_id","type":"bytes16","internalType":"bytes16"}]},{"type":"error","name":"InvalidWallet","inputs":[{"name":"wallet","type":"address","internalType":"address"}]},{"type":"error","name":"NoActivePositionFound","inputs":[]},{"type":"error","name":"NoIssuanceFound","inputs":[]},{"type":"error","name":"NoStakeholder","inputs":[{"name":"stakeholder_id","type":"bytes16","internalType":"bytes16"}]},{"type":"error","name":"StakeholderAlreadyExists","inputs":[{"name":"stakeholder_id","type":"bytes16","internalType":"bytes16"}]},{"type":"error","name":"StockClassAlreadyExists","inputs":[{"name":"stock_class_id","type":"bytes16","internalType":"bytes16"}]},{"type":"error","name":"StockClassDoesNotExist","inputs":[{"name":"stock_class_id","type":"bytes16","internalType":"bytes16"}]},{"type":"error","name":"WalletAlreadyExists","inputs":[{"name":"wallet","type":"address","internalType":"address"}]}],"bytecode":{"object":"0x60806040523480156200001157600080fd5b506200001c62000022565b620000e3565b600054610100900460ff16156200008f5760405162461bcd60e51b815260206004820152602760248201527f496e697469616c697a61626c653a20636f6e747261637420697320696e697469604482015266616c697a696e6760c81b606482015260840160405180910390fd5b60005460ff90811614620000e1576000805460ff191660ff9081179091556040519081527f7f26b83ff96e1f2b6a682f133852f6798a09c465da95921460cefb38474024989060200160405180910390a15b565b61563e80620000f36000396000f3fe608060405234801561001057600080fd5b50600436106103995760003560e01c806375b238fc116101e9578063b6238cd11161010f578063cf6eefb7116100ad578063d95a6be51161007c578063d95a6be5146108c6578063efb87519146108d9578063f5b541a6146108ec578063f908b9491461090157600080fd5b8063cf6eefb71461086a578063d125ba8b14610898578063d547741f146108ab578063d602b9fd146108be57600080fd5b8063c93fed66116100e9578063c93fed6614610827578063c95f650e1461083a578063cc8463c81461085a578063cefc14291461086257600080fd5b8063b6238cd1146107de578063c1ad1d20146107f1578063c8acae861461080457600080fd5b80639870d7fe11610187578063a217fddf11610156578063a217fddf146107a7578063a9e9f32a146107af578063ac8a584a146107c2578063affed0e0146107d557600080fd5b80639870d7fe146107185780639ace38c21461072b578063a1eda53c1461074b578063a1fc81961461077257600080fd5b806384ef8ffc116101c357806384ef8ffc146106c55780638da5cb5b146106ea57806391d14854146106f2578063924a750e1461070557600080fd5b806375b238fc146106955780637799960d146106aa57806384266a7d146106bd57600080fd5b8063371dc885116102ce57806361dc98b91161026c578063649a5ec71161023b578063649a5ec71461064757806369197f4d1461065a5780636924e4281461067a578063704802751461068257600080fd5b806361dc98b914610573578063634e93da1461058657806363aefa5a1461059957806363e71c4c1461062757600080fd5b8063438fd5d8116102a8578063438fd5d81461053d5780634afd58fa146105505780634d21af6414610563578063578cb8f91461056b57600080fd5b8063371dc885146105045780633cec69df146105175780633e4106f31461052a57600080fd5b80631785f53c1161033b578063248a9ca311610315578063248a9ca31461049a5780632629ac0f146104cb5780632f2ff15d146104de57806336568abe146104f157600080fd5b80631785f53c1461044d5780631d143848146104605780631d6b8b721461047857600080fd5b806307cd926d1161037757806307cd926d1461040a578063087480301461041f5780630aa6220b146104325780630c22d6bb1461043a57600080fd5b8063013f7f4f1461039e57806301ffc9a7146103cb578063022d63fb146103ee575b600080fd5b6103b16103ac36600461403f565b610914565b6040516103c29594939291906140a8565b60405180910390f35b6103de6103d93660046140e8565b6109e3565b60405190151581526020016103c2565b620697805b60405165ffffffffffff90911681526020016103c2565b61041d6104183660046141fb565b610a0e565b005b61041d61042d366004614262565b610c2c565b61041d610e7c565b61041d6104483660046142d2565b610e92565b61041d61045b366004614398565b610fda565b610468611016565b6040516103c294939291906143b3565b61048b61048636600461403f565b6110be565b6040516103c2939291906143e9565b6104bd6104a836600461403f565b60009081526065602052604090206001015490565b6040519081526020016103c2565b61041d6104d9366004614428565b611209565b61041d6104ec36600461445b565b611297565b61041d6104ff36600461445b565b611311565b6103b161051236600461447e565b6113fb565b61041d610525366004614499565b6115a0565b61041d610538366004614566565b611759565b61041d61054b3660046145d4565b6118a4565b61041d61055e366004614618565b611ade565b6104bd611c4f565b60d0546104bd565b61041d610581366004614675565b611d30565b61041d610594366004614398565b611f44565b6105f56105a73660046146e2565b6001600160801b0319918216600090815260d560209081526040808320939094168252919091522080546001820154600283015460039093015460809290921b9390929164ffffffffff1690565b604080516001600160801b0319909516855260208501939093529183015264ffffffffff1660608201526080016103c2565b61063a61063536600461403f565b611f58565b6040516103c2919061470c565b61041d610655366004614721565b611f7c565b6104bd61066836600461447e565b60d26020526000908152604090205481565b60ce546104bd565b61041d610690366004614398565b611f90565b6104bd60008051602061561e83398151915281565b61041d6106b8366004614749565b611fcc565b60cd546104bd565b6098546001600160a01b03165b6040516001600160a01b0390911681526020016103c2565b6106d2612118565b6103de61070036600461445b565b612131565b61041d6107133660046147d0565b61215c565b61041d610726366004614398565b61250f565b61073e61073936600461403f565b61254b565b6040516103c2919061490d565b6107536125f7565b6040805165ffffffffffff9384168152929091166020830152016103c2565b6107856107803660046146e2565b61264b565b60408051938452602084019290925264ffffffffff16908201526060016103c2565b6104bd600081565b61063a6107bd366004614398565b6127dd565b61041d6107d0366004614398565b612865565b6104bd60d15481565b61041d6107ec366004614920565b6128a1565b61041d6107ff36600461447e565b6129e5565b61063a610812366004614398565b60d46020526000908152604090205460801b81565b61041d6108353660046149a5565b612a68565b6104bd61084836600461447e565b60d36020526000908152604090205481565b6103f3612c6f565b61041d612cce565b610872612d4c565b604080516001600160a01b03909316835265ffffffffffff9091166020830152016103c2565b61041d6108a6366004614428565b612d6d565b61041d6108b936600461445b565b612de9565b61041d612e66565b61041d6108d43660046149f2565b612e79565b61041d6108e7366004614a65565b612faf565b6104bd6000805160206155fe83398151915281565b61048b61090f36600461447e565b613165565b60ce818154811061092457600080fd5b60009182526020909120600590910201805460018201805460809290921b93509061094e90614b07565b80601f016020809104026020016040519081016040528092919081815260200182805461097a90614b07565b80156109c75780601f1061099c576101008083540402835291602001916109c7565b820191906000526020600020905b8154815290600101906020018083116109aa57829003601f168201915b5050505050908060020154908060030154908060040154905085565b60006001600160e01b031982166318a4c3c360e11b1480610a085750610a0882613370565b92915050565b600054610100900460ff1615808015610a2e5750600054600160ff909116105b80610a485750303b158015610a48575060005460ff166001145b610ab05760405162461bcd60e51b815260206004820152602e60248201527f496e697469616c697a61626c653a20636f6e747261637420697320616c72656160448201526d191e481a5b9a5d1a585b1a5e995960921b60648201526084015b60405180910390fd5b6000805460ff191660011790558015610ad3576000805461ff0019166101001790555b610ade6000836133a5565b610af660008051602061561e833981519152836133d6565b610b0e60008051602061561e83398151915280613480565b610b346000805160206155fe83398151915260008051602061561e833981519152613480565b60408051608080820183526001600160801b03198881168352602083018890526000938301939093526060820186905260c980549093169088901c1782559060ca610b7f8782614b81565b50604082810151600283015560609092015160039091015551610ba3908590614c40565b604051908190038120906001600160801b03198716907f4b48e41c82da2c71e453e939a4d95b4f760335e2e7e06f7f491433c330d729ac90600090a38015610c25576000805461ff0019169055604051600181527f7f26b83ff96e1f2b6a682f133852f6798a09c465da95921460cefb38474024989060200160405180910390a15b5050505050565b610c446000805160206155fe83398151915233612131565b80610c525750610c526134f0565b610c6e5760405162461bcd60e51b8152600401610aa790614c5c565b610c88610c836101a08301610180840161447e565b61350a565b610c9d610c98602083018361447e565b613545565b600060ce600160d383610cb3602087018761447e565b6001600160801b0319168152602081019190915260400160002054610cd89190614ca9565b81548110610ce857610ce8614cbc565b9060005260206000209060050201905060c9600301548260a0013560c960020154610d139190614cd2565b1115610d705760405162461bcd60e51b815260206004820152602660248201527f4973737565723a20496e73756666696369656e742073686172657320617574686044820152651bdc9a5e995960d21b6064820152608401610aa7565b80600401548260a001358260030154610d899190614cd2565b1115610dea5760405162461bcd60e51b815260206004820152602a60248201527f53746f636b436c6173733a20496e73756666696369656e742073686172657320604482015269185d5d1a1bdc9a5e995960b21b6064820152608401610aa7565b60d18054906000610dfa83614ce5565b909155505060d1546040516315d8e5e760e31b815273__$099b2b4dcca745b6363fe801534306d3af$__9163aec72f3891610e489190869060d59060d69060d09060c9908a90600401614e59565b60006040518083038186803b158015610e6057600080fd5b505af4158015610e74573d6000803e3d6000fd5b505050505050565b6000610e8781613580565b610e8f61358a565b50565b610eaa6000805160206155fe83398151915233612131565b80610eb85750610eb86134f0565b610ed45760405162461bcd60e51b8152600401610aa790614c5c565b610ee4610c83602084018461447e565b610ef7610c98604084016020850161447e565b610f1d81610f08602085018561447e565b610f18604086016020870161447e565b613597565b60d18054906000610f2d83614ce5565b919050555073__$099b2b4dcca745b6363fe801534306d3af$__63b5aa02f08360d1548460d560d660d060c960ce600160d360008e6020016020810190610f74919061447e565b6001600160801b0319168152602081019190915260400160002054610f999190614ca9565b81548110610fa957610fa9614cbc565b90600052602060002090600502016040518963ffffffff1660e01b8152600401610e48989796959493929190615111565b610fe26134f0565b610ffe5760405162461bcd60e51b8152600401610aa79061519c565b610e8f60008051602061561e83398151915282613674565b60c9805460ca805460809290921b929161102f90614b07565b80601f016020809104026020016040519081016040528092919081815260200182805461105b90614b07565b80156110a85780601f1061107d576101008083540402835291602001916110a8565b820191906000526020600020905b81548152906001019060200180831161108b57829003601f168201915b5050505050908060020154908060030154905084565b60cd81815481106110ce57600080fd5b60009182526020909120600390910201805460018201805460809290921b9350906110f890614b07565b80601f016020809104026020016040519081016040528092919081815260200182805461112490614b07565b80156111715780601f1061114657610100808354040283529160200191611171565b820191906000526020600020905b81548152906001019060200180831161115457829003601f168201915b50505050509080600201805461118690614b07565b80601f01602080910402602001604051908101604052809291908181526020018280546111b290614b07565b80156111ff5780601f106111d4576101008083540402835291602001916111ff565b820191906000526020600020905b8154815290600101906020018083116111e257829003601f168201915b5050505050905083565b6112216000805160206155fe83398151915233612131565b8061122f575061122f6134f0565b61124b5760405162461bcd60e51b8152600401610aa790614c5c565b611254816136af565b61125d8261350a565b611266816136e1565b6001600160a01b0316600090815260d46020526040902080546001600160801b03191660809290921c919091179055565b816113035760405162461bcd60e51b815260206004820152603660248201527f416363657373436f6e74726f6c3a2063616e2774206469726563746c79206772604482015275616e742064656661756c742061646d696e20726f6c6560501b6064820152608401610aa7565b61130d8282613730565b5050565b8115801561132c57506098546001600160a01b038281169116145b156113f15760008061133c612d4c565b90925090506001600160a01b03821615801561135f575065ffffffffffff811615155b801561137257504265ffffffffffff8216105b6113dc5760405162461bcd60e51b815260206004820152603560248201527f416363657373436f6e74726f6c3a206f6e6c792063616e2072656e6f756e636560448201527420696e2074776f2064656c6179656420737465707360581b6064820152608401610aa7565b50506097805465ffffffffffff60a01b191690555b61130d828261375a565b6001600160801b03198116600090815260d360205260408120546060908290819081901561157b576001600160801b03198616600090815260d3602052604081205460ce9061144c90600190614ca9565b8154811061145c5761145c614cbc565b90600052602060002090600502016040518060a00160405290816000820160009054906101000a900460801b6001600160801b0319166001600160801b03191681526020016001820180546114b090614b07565b80601f01602080910402602001604051908101604052809291908181526020018280546114dc90614b07565b80156115295780601f106114fe57610100808354040283529160200191611529565b820191906000526020600020905b81548152906001019060200180831161150c57829003601f168201915b5050505050815260200160028201548152602001600382015481526020016004820154815250509050806000015181602001518260400151836060015184608001519550955095509550955050611597565b5050604080516020810190915260008082529350915082905080805b91939590929450565b8035158015906115b35750602081013515155b80156115cd575060006115c960408301836151d3565b9050115b6116195760405162461bcd60e51b815260206004820152601d60248201527f496e76616c69642053656564696e672053686172657320506172616d730000006044820152606401610aa7565b803560cc55602081013560cb5560005b61163660408301836151d3565b905081101561130d57600061164e60408401846151d3565b8381811061165e5761165e614cbc565b611674926020606090920201908101915061447e565b905061167f81613545565b6001600160801b03198116600090815260d360205260408120546116a590600190614ca9565b90506116b460408501856151d3565b848181106116c4576116c4614cbc565b9050606002016020013560ce82815481106116e1576116e1614cbc565b600091825260209091206004600590920201015561170260408501856151d3565b8481811061171257611712614cbc565b9050606002016040013560ce828154811061172f5761172f614cbc565b9060005260206000209060050201600301819055505050808061175190614ce5565b915050611629565b6117716000805160206155fe83398151915233612131565b8061177f575061177f6134f0565b61179b5760405162461bcd60e51b8152600401610aa790614c5c565b6117a48461350a565b6117ad83613545565b60d180549060006117bd83614ce5565b90915550506001600160801b0319808516600090815260d56020908152604080832086851684528252918290208251608080820185528254901b90941684526001810154918401919091526002810154918301919091526003015464ffffffffff16606082015261182d816137d4565b60d15460405163a453f4bf60e01b815273__$099b2b4dcca745b6363fe801534306d3af$__9163a453f4bf9161186d91908790879060d090600401615263565b60006040518083038186803b15801561188557600080fd5b505af4158015611899573d6000803e3d6000fd5b505050505050505050565b6118bc6000805160206155fe83398151915233612131565b806118ca57506118ca6134f0565b6118e65760405162461bcd60e51b8152600401610aa790614c5c565b6118f6610c83602084018461447e565b611909610c98604084016020850161447e565b60d1805490600061191983614ce5565b90915550506040805160e08101825260d154815260208082018490526000928201906119479086018661447e565b6001600160801b0319168152602001846020016020810190611969919061447e565b6001600160801b0319168152602001611988606086016040870161447e565b6001600160801b03191681526020016119a4606086018661529d565b6119ad916152e6565b81526020016119bf60808601866152f3565b8080601f016020809104026020016040519081016040528093929190818152602001838380828437600081840152601f19601f82011690508083019250505050505050815250905073__$099b2b4dcca745b6363fe801534306d3af$__63fc431cee8260d560d660d060c960ce600160d360008d6020016020810190611a45919061447e565b6001600160801b0319168152602081019190915260400160002054611a6a9190614ca9565b81548110611a7a57611a7a614cbc565b90600052602060002090600502016040518763ffffffff1660e01b8152600401611aa9969594939291906153b4565b60006040518083038186803b158015611ac157600080fd5b505af4158015611ad5573d6000803e3d6000fd5b50505050505050565b611ae66134f0565b611b025760405162461bcd60e51b8152600401610aa79061519c565b611b0b846137f9565b6040805160a0810182526001600160801b0319868116825260208201868152928201859052600060608301819052608080840186905260ce8054600181018255925283517fd36cd1c74ef8d7326d8021b776c18fb5a5724b7f7bc93c2f42e43e10ef27d12a60059093029283018054909416911c1782559251919290917fd36cd1c74ef8d7326d8021b776c18fb5a5724b7f7bc93c2f42e43e10ef27d12b90910190611bb79082614b81565b5060408281015160028301556060830151600383015560809092015160049091015560ce546001600160801b03198616600090815260d360205282902055518290611c03908590614c40565b604051908190038120838252906001600160801b03198716907fc7496d70298fcc793e1d058617af680232585e302f0185b14bba498b247a9c1d9060200160405180910390a450505050565b600080805b60cd54811015611d2a5760005b60ce54811015611d175760d6600001600060cd8481548110611c8557611c85614cbc565b600091825260208083206003929092029091015460801b6001600160801b0319168352820192909252604001812060ce805491929184908110611cca57611cca614cbc565b600091825260208083206005929092029091015460801b6001600160801b0319168352820192909252604001902054611d039084614cd2565b925080611d0f81614ce5565b915050611c61565b5080611d2281614ce5565b915050611c54565b50919050565b611d486000805160206155fe83398151915233612131565b80611d565750611d566134f0565b611d725760405162461bcd60e51b8152600401610aa790614c5c565b611d7b8661350a565b611d848561350a565b611d8d84613545565b60d18054906000611d9d83614ce5565b919050555060006040518060e00160405280886001600160801b0319168152602001876001600160801b0319168152602001866001600160801b0319168152602001851515815260200184815260200183815260200160d154815250905073__$099b2b4dcca745b6363fe801534306d3af$__63fbe4f4b88260d560d660d060c960ce600160d360008f6001600160801b0319166001600160801b031916815260200190815260200160002054611e549190614ca9565b81548110611e6457611e64614cbc565b6000918252602091829020604080516001600160e01b031960e08c901b16815289516001600160801b03199081166004830152948a0151851660248201529089015190931660448401526060880151151560648401526080880151608484015260a088015160a484015260c09097015160c483015260e482019590955261010481019390935261012483019190915261014482015260059091029091016101648201526101840160006040518083038186803b158015611f2357600080fd5b505af4158015611f37573d6000803e3d6000fd5b5050505050505050505050565b6000611f4f81613580565b61130d82613833565b60cf8181548110611f6857600080fd5b60009182526020909120015460801b905081565b6000611f8781613580565b61130d826138a6565b611f986134f0565b611fb45760405162461bcd60e51b8152600401610aa79061519c565b610e8f60008051602061561e833981519152826133d6565b611fe46000805160206155fe83398151915233612131565b80611ff25750611ff26134f0565b61200e5760405162461bcd60e51b8152600401610aa790614c5c565b61201e610c83602083018361447e565b612031610c98604083016020840161447e565b60d1805490600061204183614ce5565b919050555073__$099b2b4dcca745b6363fe801534306d3af$__63e713a5a98260d15460d560d660d060c960ce600160d360008c6020016020810190612087919061447e565b6001600160801b03191681526020810191909152604001600020546120ac9190614ca9565b815481106120bc576120bc614cbc565b90600052602060002090600502016040518863ffffffff1660e01b81526004016120ec97969594939291906153f0565b60006040518083038186803b15801561210457600080fd5b505af4158015610c25573d6000803e3d6000fd5b600061212c6098546001600160a01b031690565b905090565b60009182526065602090815260408084206001600160a01b0393909316845291905290205460ff1690565b6121646134f0565b6121805760405162461bcd60e51b8152600401610aa79061519c565b8a8914801561218e57508887145b801561219957508685145b80156121a457508483145b80156121af57508281145b61220a5760405162461bcd60e51b815260206004820152602660248201527f496e70757420617272617973206d7573742068617665207468652073616d65206044820152650d8cadccee8d60d31b6064820152608401610aa7565b60005b8b8110156125005761223f8d8d8381811061222a5761222a614cbc565b9050602002016020810190610c83919061447e565b61226989898381811061225457612254614cbc565b9050602002016020810190610c98919061447e565b60405180608001604052808a8a8481811061228657612286614cbc565b905060200201602081019061229b919061447e565b6001600160801b03191681526020018888848181106122bc576122bc614cbc565b9050602002013581526020018686848181106122da576122da614cbc565b9050602002013581526020018484848181106122f8576122f8614cbc565b905060200201602081019061230d9190615434565b64ffffffffff16905260d560008f8f8581811061232c5761232c614cbc565b9050602002016020810190612341919061447e565b6001600160801b0319166001600160801b031916815260200190815260200160002060008d8d8581811061237757612377614cbc565b905060200201602081019061238c919061447e565b6001600160801b03199081168252602080830193909352604091820160009081208551815490931660809390931c9290921782559284015160018201559083015160028201556060909201516003909201805464ffffffffff191664ffffffffff9093169290921790915560d6908e8e8481811061240c5761240c614cbc565b9050602002016020810190612421919061447e565b6001600160801b0319166001600160801b031916815260200190815260200160002060008a8a8481811061245757612457614cbc565b905060200201602081019061246c919061447e565b6001600160801b031916815260208101919091526040016000208b8b8381811061249857612498614cbc565b90506020020160208101906124ad919061447e565b81546001808201845560009384526020909320600282040180546001600160801b03949092166010026101000a9384021990911660809290921c92909202179055806124f881614ce5565b91505061220d565b50505050505050505050505050565b6125176134f0565b6125335760405162461bcd60e51b8152600401610aa79061519c565b610e8f6000805160206155fe833981519152826133d6565b60d0818154811061255b57600080fd5b90600052602060002001600091509050805461257690614b07565b80601f01602080910402602001604051908101604052809291908181526020018280546125a290614b07565b80156125ef5780601f106125c4576101008083540402835291602001916125ef565b820191906000526020600020905b8154815290600101906020018083116125d257829003601f168201915b505050505081565b609854600090600160d01b900465ffffffffffff16801515801561262357504265ffffffffffff821610155b61262f57600080612643565b609854600160a01b900465ffffffffffff16815b915091509091565b6001600160801b0319808316600090815260d66020908152604080832093851683529281528282208054845181840281018401909552808552929384938493849391908301828280156126ea57602002820191906000526020600020906000905b82829054906101000a900460801b6001600160801b03191681526020019060100190602082600f010492830192600103820291508084116126ac5790505b505050505090506000806000805b84518110156127cd576001600160801b03198a16600090815260d5602052604081208651829088908590811061273057612730614cbc565b60200260200101516001600160801b0319166001600160801b0319168152602001908152602001600020905080600201548160010154612770919061545b565b61277a9086614cd2565b945080600101548461278c9190614cd2565b600382015490945064ffffffffff8085169116116127aa57826127b7565b600381015464ffffffffff165b92505080806127c590614ce5565b9150506126f8565b5091955093509150509250925092565b6001600160a01b038116600090815260d4602052604081205460801b6001600160801b0319166128465760405162461bcd60e51b8152602060048201526014602482015273139bc81cdd185ad95a1bdb19195c88199bdd5b9960621b6044820152606401610aa7565b506001600160a01b0316600090815260d4602052604090205460801b90565b61286d6134f0565b6128895760405162461bcd60e51b8152600401610aa79061519c565b610e8f6000805160206155fe83398151915282613674565b6128a96134f0565b6128c55760405162461bcd60e51b8152600401610aa79061519c565b60cb548410156129535760405162461bcd60e51b815260206004820152604d60248201527f496e73756666696369656e74497373756572536861726573417574686f72697a60448201527f65643a207368617265735f6973737565642065786365656473206e657753686160648201526c1c995cd05d5d1a1bdc9a5e9959609a1b608482015260a401610aa7565b60d1805490600061296383614ce5565b909155505060d15460405163721ef53960e01b815273__$c1299ed9651e866ee22f0392da2a89ff35$__9163721ef539916129af9190889088908890889060c99060d090600401615472565b60006040518083038186803b1580156129c757600080fd5b505af41580156129db573d6000803e3d6000fd5b5050505050505050565b6129ed6134f0565b612a095760405162461bcd60e51b8152600401610aa79061519c565b60408051602081019091526001600160801b0319918216815260cf805460018101825560009190915290517facb8d954e2cfef495862221e91bd7523613cf8808827cb33edfe4904cc51bf29909101805490921660809190911c179055565b612a806000805160206155fe83398151915233612131565b80612a8e5750612a8e6134f0565b612aaa5760405162461bcd60e51b8152600401610aa790614c5c565b612aba610c83602085018561447e565b612acd610c98604085016020860161447e565b60d18054906000612add83614ce5565b90915550506040805160e08101825260d15481526020808201859052600092820190612b0b9087018761447e565b6001600160801b0319168152602001856020016020810190612b2d919061447e565b6001600160801b0319168152602001612b4c606087016040880161447e565b6001600160801b0319168152602001612b68606087018761529d565b612b71916152e6565b8152602001612b8360808701876152f3565b8080601f016020809104026020016040519081016040528093929190818152602001838380828437600081840152601f19601f82011690508083019250505050505050815250905073__$099b2b4dcca745b6363fe801534306d3af$__63c028a48e828460d560d660d060c960ce600160d360008f6020016020810190612c0a919061447e565b6001600160801b0319168152602081019190915260400160002054612c2f9190614ca9565b81548110612c3f57612c3f614cbc565b90600052602060002090600502016040518863ffffffff1660e01b81526004016129af97969594939291906154ce565b609854600090600160d01b900465ffffffffffff168015158015612c9a57504265ffffffffffff8216105b612cb557609754600160d01b900465ffffffffffff16612cc8565b609854600160a01b900465ffffffffffff165b91505090565b6000612cd8612d4c565b509050336001600160a01b03821614612d445760405162461bcd60e51b815260206004820152602860248201527f416363657373436f6e74726f6c3a2070656e64696e672061646d696e206d75736044820152671d081858d8d95c1d60c21b6064820152608401610aa7565b610e8f613916565b6097546001600160a01b03811691600160a01b90910465ffffffffffff1690565b612d856000805160206155fe83398151915233612131565b80612d935750612d936134f0565b612daf5760405162461bcd60e51b8152600401610aa790614c5c565b612db8816136af565b612dc18261350a565b6001600160a01b0316600090815260d46020526040902080546001600160801b031916905550565b81612e5c5760405162461bcd60e51b815260206004820152603760248201527f416363657373436f6e74726f6c3a2063616e2774206469726563746c7920726560448201527f766f6b652064656661756c742061646d696e20726f6c650000000000000000006064820152608401610aa7565b61130d82826139e1565b6000612e7181613580565b610e8f613a06565b612e816134f0565b612e9d5760405162461bcd60e51b8152600401610aa79061519c565b612ea683613a11565b604080516060810182526001600160801b031985811682526020820185815292820184905260cd805460018101825560009190915282517f83978b4c69c48dd978ab43fe30f077615294f938fb7f936d9eb340e51ea7db2e6003909202918201805490931660809190911c1782559251919290917f83978b4c69c48dd978ab43fe30f077615294f938fb7f936d9eb340e51ea7db2f90910190612f499082614b81565b5060408201516002820190612f5e9082614b81565b505060cd546001600160801b03198516600081815260d260205260408082209390935591519092507f53df47344d1cdf2ddb4901af5df61e37e14606bb7c8cc004d65c7c83ab3d06939190a2505050565b612fb76134f0565b612fd35760405162461bcd60e51b8152600401610aa79061519c565b6001600160801b03198516600090815260d3602052604081205460ce90612ffc90600190614ca9565b8154811061300c5761300c614cbc565b9060005260206000209060050201905061302586613545565b60cc548511156130d25760405162461bcd60e51b815260206004820152606660248201527f496e73756666696369656e7453746f636b436c6173735368617265734175746860448201527f6f72697a65643a2073746f636b20636c61737320617574686f72697a6564207360648201527f68617265732065786365656473206973737565722073686172657320617574686084820152651bdc9a5e995960d21b60a482015260c401610aa7565b60d180549060006130e283614ce5565b909155505060d154604051636f2ce39d60e11b815273__$c1299ed9651e866ee22f0392da2a89ff35$__9163de59c73a9161312d91908990899089908990899060d090600401615472565b60006040518083038186803b15801561314557600080fd5b505af4158015613159573d6000803e3d6000fd5b50505050505050505050565b6001600160801b03198116600090815260d26020526040812054606090819015613347576001600160801b03198416600090815260d2602052604081205460cd906131b290600190614ca9565b815481106131c2576131c2614cbc565b90600052602060002090600302016040518060600160405290816000820160009054906101000a900460801b6001600160801b0319166001600160801b031916815260200160018201805461321690614b07565b80601f016020809104026020016040519081016040528092919081815260200182805461324290614b07565b801561328f5780601f106132645761010080835404028352916020019161328f565b820191906000526020600020905b81548152906001019060200180831161327257829003601f168201915b505050505081526020016002820180546132a890614b07565b80601f01602080910402602001604051908101604052809291908181526020018280546132d490614b07565b80156133215780601f106132f657610100808354040283529160200191613321565b820191906000526020600020905b81548152906001019060200180831161330457829003601f168201915b505050505081525050905080600001518160200151826040015193509350935050613369565b5050604080516020808201835260008083528351918201909352828152919250905b9193909250565b60006001600160e01b03198216637965db0b60e01b1480610a0857506301ffc9a760e01b6001600160e01b0319831614610a08565b600054610100900460ff166133cc5760405162461bcd60e51b8152600401610aa7906154e1565b61130d8282613a4b565b816134765760006133ef6098546001600160a01b031690565b6001600160a01b03161461345a5760405162461bcd60e51b815260206004820152602c60248201527f416363657373436f6e74726f6c3a2064656661756c742061646d696e20616c7260448201526b1958591e4819dc985b9d195960a21b6064820152608401610aa7565b609880546001600160a01b0319166001600160a01b0383161790555b61130d8282613af2565b816134e65760405162461bcd60e51b815260206004820152603060248201527f416363657373436f6e74726f6c3a2063616e27742076696f6c6174652064656660448201526f61756c742061646d696e2072756c657360801b6064820152608401610aa7565b61130d8282613b78565b600061212c60008051602061561e83398151915233612131565b6001600160801b03198116600090815260d260205260408120549003610e8f578060405163b4586dfb60e01b8152600401610aa7919061470c565b6001600160801b03198116600090815260d360205260408120549003610e8f5780604051630b2b152360e21b8152600401610aa7919061470c565b610e8f8133613bc3565b613595600080613c1c565b565b82516000036135b9576040516309ef2e0760e01b815260040160405180910390fd5b6000836000815181106135ce576135ce614cbc565b6020908102919091018101516001600160801b0319808616600090815260d58452604080822083851683528552908190208151608080820184528254901b909316835260018101549483018590526002810154918301919091526003015464ffffffffff166060820152909250901580613656575080516001600160801b0319848116911614155b15610c2557604051632b2eaacf60e21b815260040160405180910390fd5b8115801561368f57506098546001600160a01b038281169116145b156136a557609880546001600160a01b03191690555b61130d8282613cdc565b6001600160a01b038116610e8f57604051633146914d60e11b81526001600160a01b0382166004820152602401610aa7565b6001600160a01b038116600090815260d4602052604090205460801b6001600160801b03191615610e8f57604051633c4d084f60e11b81526001600160a01b0382166004820152602401610aa7565b60008281526065602052604090206001015461374b81613580565b61375583836133d6565b505050565b6001600160a01b03811633146137ca5760405162461bcd60e51b815260206004820152602f60248201527f416363657373436f6e74726f6c3a2063616e206f6e6c792072656e6f756e636560448201526e103937b632b9903337b91039b2b63360891b6064820152608401610aa7565b61130d8282613674565b8060200151600003610e8f57604051632b2eaacf60e21b815260040160405180910390fd5b6001600160801b03198116600090815260d3602052604090205415610e8f5780604051631339dd8760e21b8152600401610aa7919061470c565b600061383d612c6f565b61384642613d43565b613850919061552c565b905061385c8282613dae565b60405165ffffffffffff821681526001600160a01b038316907f3377dc44241e779dd06afab5b788a35ca5f3b778836e2990bdb26a2a4b2e5ed69060200160405180910390a25050565b60006138b182613e2d565b6138ba42613d43565b6138c4919061552c565b90506138d08282613c1c565b6040805165ffffffffffff8085168252831660208201527ff1038c18cf84a56e432fdbfaf746924b7ea511dfe03a6506a0ceba4888788d9b910160405180910390a15050565b600080613921612d4c565b915091506139368165ffffffffffff16151590565b801561394957504265ffffffffffff8216105b6139a65760405162461bcd60e51b815260206004820152602860248201527f416363657373436f6e74726f6c3a207472616e736665722064656c6179206e6f6044820152671d081c185cdcd95960c21b6064820152608401610aa7565b6139c260006139bd6098546001600160a01b031690565b613674565b6139cd6000836133d6565b5050609780546001600160d01b0319169055565b6000828152606560205260409020600101546139fc81613580565b6137558383613674565b613595600080613dae565b6001600160801b03198116600090815260d2602052604090205415610e8f57806040516333270c6160e01b8152600401610aa7919061470c565b600054610100900460ff16613a725760405162461bcd60e51b8152600401610aa7906154e1565b6001600160a01b038116613ac85760405162461bcd60e51b815260206004820152601e60248201527f416363657373436f6e74726f6c3a20302064656661756c742061646d696e00006044820152606401610aa7565b609780546001600160d01b0316600160d01b65ffffffffffff85160217905561130d6000826133d6565b613afc8282612131565b61130d5760008281526065602090815260408083206001600160a01b03851684529091529020805460ff19166001179055613b343390565b6001600160a01b0316816001600160a01b0316837f2f8788117e7eff1d82e926ec794901d17c78024a50270940304540a733656f0d60405160405180910390a45050565b600082815260656020526040808220600101805490849055905190918391839186917fbd79b86ffe0ab8e8776151514217cd7cacd52c909f66475c3af44e129f0b00ff9190a4505050565b613bcd8282612131565b61130d57613bda81613e7c565b613be5836020613e8e565b604051602001613bf6929190615552565b60408051601f198184030181529082905262461bcd60e51b8252610aa79160040161490d565b609854600160d01b900465ffffffffffff168015613c9f574265ffffffffffff82161015613c7557609854609780546001600160d01b0316600160a01b90920465ffffffffffff16600160d01b02919091179055613c9f565b6040517f2b1fa2edafe6f7b9e97c1a9e0c3660e645beb2dcaa2d45bdbf9beaf5472e1ec590600090a15b50609880546001600160a01b0316600160a01b65ffffffffffff948516026001600160d01b031617600160d01b9290931691909102919091179055565b613ce68282612131565b1561130d5760008281526065602090815260408083206001600160a01b0385168085529252808320805460ff1916905551339285917ff6391f5c32d9c69d2a47ea670b442974b53935d1edc7fd64eb21e047a839171b9190a45050565b600065ffffffffffff821115613daa5760405162461bcd60e51b815260206004820152602660248201527f53616665436173743a2076616c756520646f65736e27742066697420696e203460448201526538206269747360d01b6064820152608401610aa7565b5090565b6000613db8612d4c565b6097805465ffffffffffff8616600160a01b026001600160d01b03199091166001600160a01b038816171790559150613dfa90508165ffffffffffff16151590565b15613755576040517f8886ebfc4259abdbc16601dd8fb5678e54878f47b3c34836cfc51154a960510990600090a1505050565b600080613e38612c6f565b90508065ffffffffffff168365ffffffffffff1611613e6057613e5b83826155c7565b613e75565b613e7565ffffffffffff841662069780614029565b9392505050565b6060610a086001600160a01b03831660145b60606000613e9d83600261545b565b613ea8906002614cd2565b6001600160401b03811115613ebf57613ebf61412f565b6040519080825280601f01601f191660200182016040528015613ee9576020820181803683370190505b509050600360fc1b81600081518110613f0457613f04614cbc565b60200101906001600160f81b031916908160001a905350600f60fb1b81600181518110613f3357613f33614cbc565b60200101906001600160f81b031916908160001a9053506000613f5784600261545b565b613f62906001614cd2565b90505b6001811115613fda576f181899199a1a9b1b9c1cb0b131b232b360811b85600f1660108110613f9657613f96614cbc565b1a60f81b828281518110613fac57613fac614cbc565b60200101906001600160f81b031916908160001a90535060049490941c93613fd3816155e6565b9050613f65565b508315613e755760405162461bcd60e51b815260206004820181905260248201527f537472696e67733a20686578206c656e67746820696e73756666696369656e746044820152606401610aa7565b60008183106140385781613e75565b5090919050565b60006020828403121561405157600080fd5b5035919050565b60005b8381101561407357818101518382015260200161405b565b50506000910152565b60008151808452614094816020860160208601614058565b601f01601f19169290920160200192915050565b6001600160801b03198616815260a0602082015260006140cb60a083018761407c565b604083019590955250606081019290925260809091015292915050565b6000602082840312156140fa57600080fd5b81356001600160e01b031981168114613e7557600080fd5b80356001600160801b03198116811461412a57600080fd5b919050565b634e487b7160e01b600052604160045260246000fd5b604051601f8201601f191681016001600160401b038111828210171561416d5761416d61412f565b604052919050565b600082601f83011261418657600080fd5b81356001600160401b0381111561419f5761419f61412f565b6141b2601f8201601f1916602001614145565b8181528460208386010111156141c757600080fd5b816020850160208301376000918101602001919091529392505050565b80356001600160a01b038116811461412a57600080fd5b6000806000806080858703121561421157600080fd5b61421a85614112565b935060208501356001600160401b0381111561423557600080fd5b61424187828801614175565b93505060408501359150614257606086016141e4565b905092959194509250565b60006020828403121561427457600080fd5b81356001600160401b0381111561428a57600080fd5b82016102208185031215613e7557600080fd5b600060a08284031215611d2a57600080fd5b60006001600160401b038211156142c8576142c861412f565b5060051b60200190565b600080604083850312156142e557600080fd5b82356001600160401b03808211156142fc57600080fd5b6143088683870161429d565b935060209150818501358181111561431f57600080fd5b85019050601f8101861361433257600080fd5b8035614345614340826142af565b614145565b81815260059190911b8201830190838101908883111561436457600080fd5b928401925b828410156143895761437a84614112565b82529284019290840190614369565b80955050505050509250929050565b6000602082840312156143aa57600080fd5b613e75826141e4565b6001600160801b0319851681526080602082015260006143d6608083018661407c565b6040830194909452506060015292915050565b6001600160801b03198416815260606020820152600061440c606083018561407c565b828103604084015261441e818561407c565b9695505050505050565b6000806040838503121561443b57600080fd5b61444483614112565b9150614452602084016141e4565b90509250929050565b6000806040838503121561446e57600080fd5b82359150614452602084016141e4565b60006020828403121561449057600080fd5b613e7582614112565b6000602082840312156144ab57600080fd5b81356001600160401b038111156144c157600080fd5b820160608185031215613e7557600080fd5b60006144e1614340846142af565b8381529050602080820190600585901b84018681111561450057600080fd5b845b8181101561453b5780356001600160401b038111156145215760008081fd5b61452d89828901614175565b855250928201928201614502565b505050509392505050565b600082601f83011261455757600080fd5b613e75838335602085016144d3565b6000806000806080858703121561457c57600080fd5b61458585614112565b935061459360208601614112565b92506145a160408601614112565b915060608501356001600160401b038111156145bc57600080fd5b6145c887828801614546565b91505092959194509250565b600080604083850312156145e757600080fd5b82356001600160401b038111156145fd57600080fd5b6146098582860161429d565b95602094909401359450505050565b6000806000806080858703121561462e57600080fd5b61463785614112565b935060208501356001600160401b0381111561465257600080fd5b61465e87828801614175565b949794965050505060408301359260600135919050565b60008060008060008060c0878903121561468e57600080fd5b61469787614112565b95506146a560208801614112565b94506146b360408801614112565b9350606087013580151581146146c857600080fd5b9598949750929560808101359460a0909101359350915050565b600080604083850312156146f557600080fd5b6146fe83614112565b915061445260208401614112565b6001600160801b031991909116815260200190565b60006020828403121561473357600080fd5b813565ffffffffffff81168114613e7557600080fd5b60006020828403121561475b57600080fd5b81356001600160401b0381111561477157600080fd5b61477d8482850161429d565b949350505050565b60008083601f84011261479757600080fd5b5081356001600160401b038111156147ae57600080fd5b6020830191508360208260051b85010111156147c957600080fd5b9250929050565b60008060008060008060008060008060008060c08d8f0312156147f257600080fd5b6001600160401b038d35111561480757600080fd5b6148148e8e358f01614785565b909c509a506001600160401b0360208e0135111561483157600080fd5b6148418e60208f01358f01614785565b909a5098506001600160401b0360408e0135111561485e57600080fd5b61486e8e60408f01358f01614785565b90985096506001600160401b0360608e0135111561488b57600080fd5b61489b8e60608f01358f01614785565b90965094506001600160401b0360808e013511156148b857600080fd5b6148c88e60808f01358f01614785565b90945092506001600160401b0360a08e013511156148e557600080fd5b6148f58e60a08f01358f01614785565b81935080925050509295989b509295989b509295989b565b602081526000613e75602083018461407c565b6000806000806080858703121561493657600080fd5b8435935060208501356001600160401b038082111561495457600080fd5b61496088838901614546565b9450604087013591508082111561497657600080fd5b61498288838901614175565b9350606087013591508082111561499857600080fd5b506145c887828801614175565b6000806000606084860312156149ba57600080fd5b83356001600160401b038111156149d057600080fd5b6149dc8682870161429d565b9660208601359650604090950135949350505050565b600080600060608486031215614a0757600080fd5b614a1084614112565b925060208401356001600160401b0380821115614a2c57600080fd5b614a3887838801614175565b93506040860135915080821115614a4e57600080fd5b50614a5b86828701614175565b9150509250925092565b600080600080600060a08688031215614a7d57600080fd5b614a8686614112565b94506020860135935060408601356001600160401b0380821115614aa957600080fd5b614ab589838a01614546565b94506060880135915080821115614acb57600080fd5b614ad789838a01614175565b93506080880135915080821115614aed57600080fd5b50614afa88828901614175565b9150509295509295909350565b600181811c90821680614b1b57607f821691505b602082108103611d2a57634e487b7160e01b600052602260045260246000fd5b601f82111561375557600081815260208120601f850160051c81016020861015614b625750805b601f850160051c820191505b81811015610e7457828155600101614b6e565b81516001600160401b03811115614b9a57614b9a61412f565b614bae81614ba88454614b07565b84614b3b565b602080601f831160018114614be35760008415614bcb5750858301515b600019600386901b1c1916600185901b178555610e74565b600085815260208120601f198616915b82811015614c1257888601518255948401946001909101908401614bf3565b5085821015614c305787850151600019600388901b60f8161c191681555b5050505050600190811b01905550565b60008251614c52818460208701614058565b9190910192915050565b6020808252601b908201527f446f6573206e6f742068617665206f70657261746f7220726f6c650000000000604082015260600190565b634e487b7160e01b600052601160045260246000fd5b81810381811115610a0857610a08614c93565b634e487b7160e01b600052603260045260246000fd5b80820180821115610a0857610a08614c93565b600060018201614cf757614cf7614c93565b5060010190565b6000808335601e19843603018112614d1557600080fd5b83016020810192503590506001600160401b03811115614d3457600080fd5b8060051b36038213156147c957600080fd5b8183526000602080850194508260005b85811015614d83576001600160801b0319614d7083614112565b1687529582019590820190600101614d56565b509495945050505050565b6000808335601e19843603018112614da557600080fd5b83016020810192503590506001600160401b03811115614dc457600080fd5b8036038213156147c957600080fd5b81835281816020850137506000828201602090810191909152601f909101601f19169091010190565b81835260006020808501808196508560051b810191508460005b87811015614e4c578284038952614e2d8288614d8e565b614e38868284614dd3565b9a87019a9550505090840190600101614e16565b5091979650505050505050565b87815260e06020820152614e8160e08201614e7389614112565b6001600160801b0319169052565b6000614e8f60208901614112565b6001600160801b03191661010083015260408801356101208301526060880135610140830152608088013561016083015260a0880135610180830152614ed760c08901614112565b6001600160801b0319166101a083015260e08801356101c0830152614f00610100890189614cfe565b6101e061022081860152614f1961030086018385614d46565b9250614f296101208c018c614d8e565b925060df19610200818887030181890152614f45868685614dd3565b9550614f556101408f018f614cfe565b955092508188870301610220890152614f6f868685614dfc565b9550614f7f6101608f018f614d8e565b955092508188870301610240890152614f99868685614dd3565b9550614fa86101808f01614112565b6001600160801b031981166102608a01529450614fc96101a08f018f614d8e565b955092508188870301610280890152614fe3868685614dd3565b9550614ff36101c08f018f614d8e565b9550925081888703016102a089015261500d868685614dd3565b955061501b848f018f614d8e565b9550935081888703016102c0890152615035868686614dd3565b9550615043818f018f614cfe565b955093505080878603016102e08801525050615060838383614dfc565b604086019a909a52505050506060810194909452608084019290925260a083015260c09091015292915050565b60006001600160801b0319806150a284614112565b168452806150b260208501614112565b166020850152806150c560408501614112565b166040850152506150d96060830183614cfe565b60a060608601526150ee60a086018284614dfc565b9150506150fe6080840184614d8e565b858303608087015261441e838284614dd3565b60006101008083526151258184018c61508d565b60208481018c905284820360408601528a518083528b82019350909182019060005b8181101561516d5784516001600160801b03191683529383019391830191600101615147565b50506060850199909952505050608081019490945260a084019290925260c083015260e0909101529392505050565b60208082526018908201527f446f6573206e6f7420686176652061646d696e20726f6c650000000000000000604082015260600190565b6000808335601e198436030181126151ea57600080fd5b8301803591506001600160401b0382111561520457600080fd5b60200191506060810236038213156147c957600080fd5b600081518084526020808501808196508360051b8101915082860160005b85811015614e4c57828403895261525184835161407c565b98850198935090840190600101615239565b8481526001600160801b03198416602082015260806040820152600061528c608083018561521b565b905082606083015295945050505050565b6000808335601e198436030181126152b457600080fd5b8301803591506001600160401b038211156152ce57600080fd5b6020019150600581901b36038213156147c957600080fd5b6000613e753684846144d3565b6000808335601e1984360301811261530a57600080fd5b8301803591506001600160401b0382111561532457600080fd5b6020019150368190038213156147c957600080fd5b8051825260208101516020830152600060408201516001600160801b03198082166040860152806060850151166060860152806080850151166080860152505060a082015160e060a085015261539260e085018261521b565b905060c083015184820360c08601526153ab828261407c565b95945050505050565b60c0815260006153c760c0830189615339565b60208301979097525060408101949094526060840192909252608083015260a090910152919050565b60e08152600061540360e083018a61508d565b60208301989098525060408101959095526060850193909352608084019190915260a083015260c090910152919050565b60006020828403121561544657600080fd5b813564ffffffffff81168114613e7557600080fd5b8082028115828204841417610a0857610a08614c93565b87815286602082015260e06040820152600061549160e083018861521b565b82810360608401526154a3818861407c565b905082810360808401526154b7818761407c565b60a0840195909552505060c0015295945050505050565b60e08152600061540360e083018a615339565b6020808252602b908201527f496e697469616c697a61626c653a20636f6e7472616374206973206e6f74206960408201526a6e697469616c697a696e6760a81b606082015260800190565b65ffffffffffff81811683821601908082111561554b5761554b614c93565b5092915050565b7f416363657373436f6e74726f6c3a206163636f756e742000000000000000000081526000835161558a816017850160208801614058565b7001034b99036b4b9b9b4b733903937b6329607d1b60179184019182015283516155bb816028840160208801614058565b01602801949350505050565b65ffffffffffff82811682821603908082111561554b5761554b614c93565b6000816155f5576155f5614c93565b50600019019056fe523a704056dcd17bcf83bed8b68c59416dac1119be77755efe3bde0a64e46e0cdf8b4c520ffe197c5343c6f5aec59570151ef9a492f2c624fd45ddde6135ec42","linkReferences":{"src/lib/Stock.sol":{"StockLib":[{"start":3844,"length":20},{"start":4135,"length":20},{"start":6450,"length":20},{"start":6908,"length":20},{"start":7920,"length":20},{"start":8507,"length":20},{"start":11456,"length":20}]},"src/lib/transactions/Adjustment.sol":{"Adjustment":[{"start":10861,"length":20},{"start":12780,"length":20}]}}},"methodIdentifiers":{"ADMIN_ROLE()":"75b238fc","DEFAULT_ADMIN_ROLE()":"a217fddf","OPERATOR_ROLE()":"f5b541a6","acceptDefaultAdminTransfer()":"cefc1429","acceptStock(bytes16,bytes16,bytes16,string[])":"3e4106f3","addAdmin(address)":"70480275","addOperator(address)":"9870d7fe","addWalletToStakeholder(bytes16,address)":"2629ac0f","adjustIssuerAuthorizedShares(uint256,string[],string,string)":"b6238cd1","adjustStockClassAuthorizedShares(bytes16,uint256,string[],string,string)":"efb87519","beginDefaultAdminTransfer(address)":"634e93da","cancelDefaultAdminTransfer()":"d602b9fd","cancelStock((bytes16,bytes16,bytes16,string[],string),uint256)":"438fd5d8","changeDefaultAdminDelay(uint48)":"649a5ec7","createStakeholder(bytes16,string,string)":"d95a6be5","createStockClass(bytes16,string,uint256,uint256)":"4afd58fa","createStockLegendTemplate(bytes16)":"c1ad1d20","defaultAdmin()":"84ef8ffc","defaultAdminDelay()":"cc8463c8","defaultAdminDelayIncreaseWait()":"022d63fb","getActivePosition(bytes16,bytes16)":"63aefa5a","getAveragePosition(bytes16,bytes16)":"a1fc8196","getRoleAdmin(bytes32)":"248a9ca3","getStakeholderById(bytes16)":"f908b949","getStakeholderIdByWallet(address)":"a9e9f32a","getStockClassById(bytes16)":"371dc885","getTotalActiveSecuritiesCount()":"4d21af64","getTotalNumberOfStakeholders()":"84266a7d","getTotalNumberOfStockClasses()":"6924e428","getTransactionsCount()":"578cb8f9","grantRole(bytes32,address)":"2f2ff15d","hasRole(bytes32,address)":"91d14854","initialize(bytes16,string,uint256,address)":"07cd926d","issueStock((bytes16,bytes16,(uint256,uint256),uint256,uint256,bytes16,uint256,bytes16[],string,string[],string,bytes16,string,string,string,string[]))":"08748030","issuer()":"1d143848","nonce()":"affed0e0","owner()":"8da5cb5b","pendingDefaultAdmin()":"cf6eefb7","pendingDefaultAdminDelay()":"a1eda53c","reissueStock((bytes16,bytes16,bytes16,string[],string),bytes16[])":"0c22d6bb","removeAdmin(address)":"1785f53c","removeOperator(address)":"ac8a584a","removeWalletFromStakeholder(bytes16,address)":"d125ba8b","renounceRole(bytes32,address)":"36568abe","repurchaseStock((bytes16,bytes16,bytes16,string[],string),uint256,uint256)":"c93fed66","retractStockIssuance((bytes16,bytes16,bytes16,string[],string))":"7799960d","revokeRole(bytes32,address)":"d547741f","rollbackDefaultAdminDelay()":"0aa6220b","seedMultipleActivePositionsAndSecurityIds(bytes16[],bytes16[],bytes16[],uint256[],uint256[],uint40[])":"924a750e","seedSharesAuthorizedAndIssued(((uint256,uint256),(bytes16,uint256,uint256)[]))":"3cec69df","stakeholderIndex(bytes16)":"69197f4d","stakeholders(uint256)":"1d6b8b72","stockClassIndex(bytes16)":"c95f650e","stockClasses(uint256)":"013f7f4f","stockLegendTemplates(uint256)":"63e71c4c","supportsInterface(bytes4)":"01ffc9a7","transactions(uint256)":"9ace38c2","transferStock(bytes16,bytes16,bytes16,bool,uint256,uint256)":"61dc98b9","walletsPerStakeholder(address)":"c8acae86"},"id":56}