{"abi":[{"type":"constructor","inputs":[],"stateMutability":"nonpayable"},{"type":"function","name":"ADMIN_ROLE","inputs":[],"outputs":[{"name":"","type":"bytes32","internalType":"bytes32"}],"stateMutability":"view"},{"type":"function","name":"DEFAULT_ADMIN_ROLE","inputs":[],"outputs":[{"name":"","type":"bytes32","internalType":"bytes32"}],"stateMutability":"view"},{"type":"function","name":"OPERATOR_ROLE","inputs":[],"outputs":[{"name":"","type":"bytes32","internalType":"bytes32"}],"stateMutability":"view"},{"type":"function","name":"acceptDefaultAdminTransfer","inputs":[],"outputs":[],"stateMutability":"nonpayable"},{"type":"function","name":"acceptStock","inputs":[{"name":"stakeholderId","type":"bytes16","internalType":"bytes16"},{"name":"stockClassId","type":"bytes16","internalType":"bytes16"},{"name":"securityId","type":"bytes16","internalType":"bytes16"},{"name":"comments","type":"string[]","internalType":"string[]"}],"outputs":[],"stateMutability":"nonpayable"},{"type":"function","name":"addAdmin","inputs":[{"name":"addr","type":"address","internalType":"address"}],"outputs":[],"stateMutability":"nonpayable"},{"type":"function","name":"addOperator","inputs":[{"name":"addr","type":"address","internalType":"address"}],"outputs":[],"stateMutability":"nonpayable"},{"type":"function","name":"addWalletToStakeholder","inputs":[{"name":"_stakeholder_id","type":"bytes16","internalType":"bytes16"},{"name":"_wallet","type":"address","internalType":"address"}],"outputs":[],"stateMutability":"nonpayable"},{"type":"function","name":"adjustIssuerAuthorizedShares","inputs":[{"name":"newSharesAuthorized","type":"uint256","internalType":"uint256"},{"name":"comments","type":"string[]","internalType":"string[]"},{"name":"boardApprovalDate","type":"string","internalType":"string"},{"name":"stockholderApprovalDate","type":"string","internalType":"string"}],"outputs":[],"stateMutability":"nonpayable"},{"type":"function","name":"adjustStockClassAuthorizedShares","inputs":[{"name":"stockClassId","type":"bytes16","internalType":"bytes16"},{"name":"newAuthorizedShares","type":"uint256","internalType":"uint256"},{"name":"comments","type":"string[]","internalType":"string[]"},{"name":"boardApprovalDate","type":"string","internalType":"string"},{"name":"stockholderApprovalDate","type":"string","internalType":"string"}],"outputs":[],"stateMutability":"nonpayable"},{"type":"function","name":"beginDefaultAdminTransfer","inputs":[{"name":"newAdmin","type":"address","internalType":"address"}],"outputs":[],"stateMutability":"nonpayable"},{"type":"function","name":"cancelDefaultAdminTransfer","inputs":[],"outputs":[],"stateMutability":"nonpayable"},{"type":"function","name":"cancelStock","inputs":[{"name":"params","type":"tuple","internalType":"struct StockParams","components":[{"name":"stakeholder_id","type":"bytes16","internalType":"bytes16"},{"name":"stock_class_id","type":"bytes16","internalType":"bytes16"},{"name":"security_id","type":"bytes16","internalType":"bytes16"},{"name":"comments","type":"string[]","internalType":"string[]"},{"name":"reason_text","type":"string","internalType":"string"}]},{"name":"quantity","type":"uint256","internalType":"uint256"}],"outputs":[],"stateMutability":"nonpayable"},{"type":"function","name":"changeDefaultAdminDelay","inputs":[{"name":"newDelay","type":"uint48","internalType":"uint48"}],"outputs":[],"stateMutability":"nonpayable"},{"type":"function","name":"createStakeholder","inputs":[{"name":"_id","type":"bytes16","internalType":"bytes16"},{"name":"_stakeholder_type","type":"string","internalType":"string"},{"name":"_current_relationship","type":"string","internalType":"string"}],"outputs":[],"stateMutability":"nonpayable"},{"type":"function","name":"createStockClass","inputs":[{"name":"_id","type":"bytes16","internalType":"bytes16"},{"name":"_class_type","type":"string","internalType":"string"},{"name":"_price_per_share","type":"uint256","internalType":"uint256"},{"name":"_initial_share_authorized","type":"uint256","internalType":"uint256"}],"outputs":[],"stateMutability":"nonpayable"},{"type":"function","name":"createStockLegendTemplate","inputs":[{"name":"_id","type":"bytes16","internalType":"bytes16"}],"outputs":[],"stateMutability":"nonpayable"},{"type":"function","name":"defaultAdmin","inputs":[],"outputs":[{"name":"","type":"address","internalType":"address"}],"stateMutability":"view"},{"type":"function","name":"defaultAdminDelay","inputs":[],"outputs":[{"name":"","type":"uint48","internalType":"uint48"}],"stateMutability":"view"},{"type":"function","name":"defaultAdminDelayIncreaseWait","inputs":[],"outputs":[{"name":"","type":"uint48","internalType":"uint48"}],"stateMutability":"view"},{"type":"function","name":"getActivePosition","inputs":[{"name":"stakeholderId","type":"bytes16","internalType":"bytes16"},{"name":"securityId","type":"bytes16","internalType":"bytes16"}],"outputs":[{"name":"","type":"bytes16","internalType":"bytes16"},{"name":"","type":"uint256","internalType":"uint256"},{"name":"","type":"uint256","internalType":"uint256"},{"name":"","type":"uint40","internalType":"uint40"}],"stateMutability":"view"},{"type":"function","name":"getAveragePosition","inputs":[{"name":"stakeholderId","type":"bytes16","internalType":"bytes16"},{"name":"stockClassId","type":"bytes16","internalType":"bytes16"}],"outputs":[{"name":"","type":"uint256","internalType":"uint256"},{"name":"","type":"uint256","internalType":"uint256"},{"name":"","type":"uint40","internalType":"uint40"}],"stateMutability":"view"},{"type":"function","name":"getRoleAdmin","inputs":[{"name":"role","type":"bytes32","internalType":"bytes32"}],"outputs":[{"name":"","type":"bytes32","internalType":"bytes32"}],"stateMutability":"view"},{"type":"function","name":"getStakeholderById","inputs":[{"name":"_id","type":"bytes16","internalType":"bytes16"}],"outputs":[{"name":"","type":"bytes16","internalType":"bytes16"},{"name":"","type":"string","internalType":"string"},{"name":"","type":"string","internalType":"string"}],"stateMutability":"view"},{"type":"function","name":"getStakeholderIdByWallet","inputs":[{"name":"_wallet","type":"address","internalType":"address"}],"outputs":[{"name":"stakeholderId","type":"bytes16","internalType":"bytes16"}],"stateMutability":"view"},{"type":"function","name":"getStockClassById","inputs":[{"name":"_id","type":"bytes16","internalType":"bytes16"}],"outputs":[{"name":"","type":"bytes16","internalType":"bytes16"},{"name":"","type":"string","internalType":"string"},{"name":"","type":"uint256","internalType":"uint256"},{"name":"","type":"uint256","internalType":"uint256"},{"name":"","type":"uint256","internalType":"uint256"}],"stateMutability":"view"},{"type":"function","name":"getTotalActiveSecuritiesCount","inputs":[],"outputs":[{"name":"","type":"uint256","internalType":"uint256"}],"stateMutability":"view"},{"type":"function","name":"getTotalNumberOfStakeholders","inputs":[],"outputs":[{"name":"","type":"uint256","internalType":"uint256"}],"stateMutability":"view"},{"type":"function","name":"getTotalNumberOfStockClasses","inputs":[],"outputs":[{"name":"","type":"uint256","internalType":"uint256"}],"stateMutability":"view"},{"type":"function","name":"getTransactionsCount","inputs":[],"outputs":[{"name":"","type":"uint256","internalType":"uint256"}],"stateMutability":"view"},{"type":"function","name":"grantRole","inputs":[{"name":"role","type":"bytes32","internalType":"bytes32"},{"name":"account","type":"address","internalType":"address"}],"outputs":[],"stateMutability":"nonpayable"},{"type":"function","name":"hasRole","inputs":[{"name":"role","type":"bytes32","internalType":"bytes32"},{"name":"account","type":"address","internalType":"address"}],"outputs":[{"name":"","type":"bool","internalType":"bool"}],"stateMutability":"view"},{"type":"function","name":"initialize","inputs":[{"name":"id","type":"bytes16","internalType":"bytes16"},{"name":"name","type":"string","internalType":"string"},{"name":"initial_shares_authorized","type":"uint256","internalType":"uint256"},{"name":"admin","type":"address","internalType":"address"}],"outputs":[],"stateMutability":"nonpayable"},{"type":"function","name":"issueStock","inputs":[{"name":"params","type":"tuple","internalType":"struct StockIssuanceParams","components":[{"name":"stock_class_id","type":"bytes16","internalType":"bytes16"},{"name":"stock_plan_id","type":"bytes16","internalType":"bytes16"},{"name":"share_numbers_issued","type":"tuple","internalType":"struct ShareNumbersIssued","components":[{"name":"starting_share_number","type":"uint256","internalType":"uint256"},{"name":"ending_share_number","type":"uint256","internalType":"uint256"}]},{"name":"share_price","type":"uint256","internalType":"uint256"},{"name":"quantity","type":"uint256","internalType":"uint256"},{"name":"vesting_terms_id","type":"bytes16","internalType":"bytes16"},{"name":"cost_basis","type":"uint256","internalType":"uint256"},{"name":"stock_legend_ids","type":"bytes16[]","internalType":"bytes16[]"},{"name":"issuance_type","type":"string","internalType":"string"},{"name":"comments","type":"string[]","internalType":"string[]"},{"name":"custom_id","type":"string","internalType":"string"},{"name":"stakeholder_id","type":"bytes16","internalType":"bytes16"},{"name":"board_approval_date","type":"string","internalType":"string"},{"name":"stockholder_approval_date","type":"string","internalType":"string"},{"name":"consideration_text","type":"string","internalType":"string"},{"name":"security_law_exemptions","type":"string[]","internalType":"string[]"}]}],"outputs":[],"stateMutability":"nonpayable"},{"type":"function","name":"issuer","inputs":[],"outputs":[{"name":"id","type":"bytes16","internalType":"bytes16"},{"name":"legal_name","type":"string","internalType":"string"},{"name":"shares_issued","type":"uint256","internalType":"uint256"},{"name":"shares_authorized","type":"uint256","internalType":"uint256"}],"stateMutability":"view"},{"type":"function","name":"nonce","inputs":[],"outputs":[{"name":"","type":"uint256","internalType":"uint256"}],"stateMutability":"view"},{"type":"function","name":"owner","inputs":[],"outputs":[{"name":"","type":"address","internalType":"address"}],"stateMutability":"view"},{"type":"function","name":"pendingDefaultAdmin","inputs":[],"outputs":[{"name":"newAdmin","type":"address","internalType":"address"},{"name":"schedule","type":"uint48","internalType":"uint48"}],"stateMutability":"view"},{"type":"function","name":"pendingDefaultAdminDelay","inputs":[],"outputs":[{"name":"newDelay","type":"uint48","internalType":"uint48"},{"name":"schedule","type":"uint48","internalType":"uint48"}],"stateMutability":"view"},{"type":"function","name":"reissueStock","inputs":[{"name":"params","type":"tuple","internalType":"struct StockParams","components":[{"name":"stakeholder_id","type":"bytes16","internalType":"bytes16"},{"name":"stock_class_id","type":"bytes16","internalType":"bytes16"},{"name":"security_id","type":"bytes16","internalType":"bytes16"},{"name":"comments","type":"string[]","internalType":"string[]"},{"name":"reason_text","type":"string","internalType":"string"}]},{"name":"resulting_security_ids","type":"bytes16[]","internalType":"bytes16[]"}],"outputs":[],"stateMutability":"nonpayable"},{"type":"function","name":"removeAdmin","inputs":[{"name":"addr","type":"address","internalType":"address"}],"outputs":[],"stateMutability":"nonpayable"},{"type":"function","name":"removeOperator","inputs":[{"name":"addr","type":"address","internalType":"address"}],"outputs":[],"stateMutability":"nonpayable"},{"type":"function","name":"removeWalletFromStakeholder","inputs":[{"name":"_stakeholder_id","type":"bytes16","internalType":"bytes16"},{"name":"_wallet","type":"address","internalType":"address"}],"outputs":[],"stateMutability":"nonpayable"},{"type":"function","name":"renounceRole","inputs":[{"name":"role","type":"bytes32","internalType":"bytes32"},{"name":"account","type":"address","internalType":"address"}],"outputs":[],"stateMutability":"nonpayable"},{"type":"function","name":"repurchaseStock","inputs":[{"name":"params","type":"tuple","internalType":"struct StockParams","components":[{"name":"stakeholder_id","type":"bytes16","internalType":"bytes16"},{"name":"stock_class_id","type":"bytes16","internalType":"bytes16"},{"name":"security_id","type":"bytes16","internalType":"bytes16"},{"name":"comments","type":"string[]","internalType":"string[]"},{"name":"reason_text","type":"string","internalType":"string"}]},{"name":"quantity","type":"uint256","internalType":"uint256"},{"name":"price","type":"uint256","internalType":"uint256"}],"outputs":[],"stateMutability":"nonpayable"},{"type":"function","name":"retractStockIssuance","inputs":[{"name":"params","type":"tuple","internalType":"struct StockParams","components":[{"name":"stakeholder_id","type":"bytes16","internalType":"bytes16"},{"name":"stock_class_id","type":"bytes16","internalType":"bytes16"},{"name":"security_id","type":"bytes16","internalType":"bytes16"},{"name":"comments","type":"string[]","internalType":"string[]"},{"name":"reason_text","type":"string","internalType":"string"}]}],"outputs":[],"stateMutability":"nonpayable"},{"type":"function","name":"revokeRole","inputs":[{"name":"role","type":"bytes32","internalType":"bytes32"},{"name":"account","type":"address","internalType":"address"}],"outputs":[],"stateMutability":"nonpayable"},{"type":"function","name":"rollbackDefaultAdminDelay","inputs":[],"outputs":[],"stateMutability":"nonpayable"},{"type":"function","name":"seedMultipleActivePositionsAndSecurityIds","inputs":[{"name":"stakeholderIds","type":"bytes16[]","internalType":"bytes16[]"},{"name":"securityIds","type":"bytes16[]","internalType":"bytes16[]"},{"name":"stockClassIds","type":"bytes16[]","internalType":"bytes16[]"},{"name":"quantities","type":"uint256[]","internalType":"uint256[]"},{"name":"sharePrices","type":"uint256[]","internalType":"uint256[]"},{"name":"timestamps","type":"uint40[]","internalType":"uint40[]"}],"outputs":[],"stateMutability":"nonpayable"},{"type":"function","name":"seedSharesAuthorizedAndIssued","inputs":[{"name":"params","type":"tuple","internalType":"struct InitialShares","components":[{"name":"issuerInitialShares","type":"tuple","internalType":"struct IssuerInitialShares","components":[{"name":"shares_authorized","type":"uint256","internalType":"uint256"},{"name":"shares_issued","type":"uint256","internalType":"uint256"}]},{"name":"stockClassesInitialShares","type":"tuple[]","internalType":"struct StockClassInitialShares[]","components":[{"name":"id","type":"bytes16","internalType":"bytes16"},{"name":"shares_authorized","type":"uint256","internalType":"uint256"},{"name":"shares_issued","type":"uint256","internalType":"uint256"}]}]}],"outputs":[],"stateMutability":"nonpayable"},{"type":"function","name":"stakeholderIndex","inputs":[{"name":"","type":"bytes16","internalType":"bytes16"}],"outputs":[{"name":"","type":"uint256","internalType":"uint256"}],"stateMutability":"view"},{"type":"function","name":"stakeholders","inputs":[{"name":"","type":"uint256","internalType":"uint256"}],"outputs":[{"name":"id","type":"bytes16","internalType":"bytes16"},{"name":"stakeholder_type","type":"string","internalType":"string"},{"name":"current_relationship","type":"string","internalType":"string"}],"stateMutability":"view"},{"type":"function","name":"stockClassIndex","inputs":[{"name":"","type":"bytes16","internalType":"bytes16"}],"outputs":[{"name":"","type":"uint256","internalType":"uint256"}],"stateMutability":"view"},{"type":"function","name":"stockClasses","inputs":[{"name":"","type":"uint256","internalType":"uint256"}],"outputs":[{"name":"id","type":"bytes16","internalType":"bytes16"},{"name":"class_type","type":"string","internalType":"string"},{"name":"price_per_share","type":"uint256","internalType":"uint256"},{"name":"shares_issued","type":"uint256","internalType":"uint256"},{"name":"shares_authorized","type":"uint256","internalType":"uint256"}],"stateMutability":"view"},{"type":"function","name":"stockLegendTemplates","inputs":[{"name":"","type":"uint256","internalType":"uint256"}],"outputs":[{"name":"id","type":"bytes16","internalType":"bytes16"}],"stateMutability":"view"},{"type":"function","name":"supportsInterface","inputs":[{"name":"interfaceId","type":"bytes4","internalType":"bytes4"}],"outputs":[{"name":"","type":"bool","internalType":"bool"}],"stateMutability":"view"},{"type":"function","name":"transactions","inputs":[{"name":"","type":"uint256","internalType":"uint256"}],"outputs":[{"name":"","type":"bytes","internalType":"bytes"}],"stateMutability":"view"},{"type":"function","name":"transferStock","inputs":[{"name":"transferorStakeholderId","type":"bytes16","internalType":"bytes16"},{"name":"transfereeStakeholderId","type":"bytes16","internalType":"bytes16"},{"name":"stockClassId","type":"bytes16","internalType":"bytes16"},{"name":"isBuyerVerified","type":"bool","internalType":"bool"},{"name":"quantity","type":"uint256","internalType":"uint256"},{"name":"share_price","type":"uint256","internalType":"uint256"}],"outputs":[],"stateMutability":"nonpayable"},{"type":"function","name":"walletsPerStakeholder","inputs":[{"name":"","type":"address","internalType":"address"}],"outputs":[{"name":"","type":"bytes16","internalType":"bytes16"}],"stateMutability":"view"},{"type":"event","name":"DefaultAdminDelayChangeCanceled","inputs":[],"anonymous":false},{"type":"event","name":"DefaultAdminDelayChangeScheduled","inputs":[{"name":"newDelay","type":"uint48","indexed":false,"internalType":"uint48"},{"name":"effectSchedule","type":"uint48","indexed":false,"internalType":"uint48"}],"anonymous":false},{"type":"event","name":"DefaultAdminTransferCanceled","inputs":[],"anonymous":false},{"type":"event","name":"DefaultAdminTransferScheduled","inputs":[{"name":"newAdmin","type":"address","indexed":true,"internalType":"address"},{"name":"acceptSchedule","type":"uint48","indexed":false,"internalType":"uint48"}],"anonymous":false},{"type":"event","name":"Initialized","inputs":[{"name":"version","type":"uint8","indexed":false,"internalType":"uint8"}],"anonymous":false},{"type":"event","name":"IssuerCreated","inputs":[{"name":"id","type":"bytes16","indexed":true,"internalType":"bytes16"},{"name":"_name","type":"string","indexed":true,"internalType":"string"}],"anonymous":false},{"type":"event","name":"RoleAdminChanged","inputs":[{"name":"role","type":"bytes32","indexed":true,"internalType":"bytes32"},{"name":"previousAdminRole","type":"bytes32","indexed":true,"internalType":"bytes32"},{"name":"newAdminRole","type":"bytes32","indexed":true,"internalType":"bytes32"}],"anonymous":false},{"type":"event","name":"RoleGranted","inputs":[{"name":"role","type":"bytes32","indexed":true,"internalType":"bytes32"},{"name":"account","type":"address","indexed":true,"internalType":"address"},{"name":"sender","type":"address","indexed":true,"internalType":"address"}],"anonymous":false},{"type":"event","name":"RoleRevoked","inputs":[{"name":"role","type":"bytes32","indexed":true,"internalType":"bytes32"},{"name":"account","type":"address","indexed":true,"internalType":"address"},{"name":"sender","type":"address","indexed":true,"internalType":"address"}],"anonymous":false},{"type":"event","name":"StakeholderCreated","inputs":[{"name":"id","type":"bytes16","indexed":true,"internalType":"bytes16"}],"anonymous":false},{"type":"event","name":"StockClassCreated","inputs":[{"name":"id","type":"bytes16","indexed":true,"internalType":"bytes16"},{"name":"classType","type":"string","indexed":true,"internalType":"string"},{"name":"pricePerShare","type":"uint256","indexed":true,"internalType":"uint256"},{"name":"initialSharesAuthorized","type":"uint256","indexed":false,"internalType":"uint256"}],"anonymous":false},{"type":"error","name":"InsufficientIssuerSharesAuthorized","inputs":[]},{"type":"error","name":"InsufficientStockClassSharesAuthorized","inputs":[]},{"type":"error","name":"InvalidStockClass","inputs":[{"name":"stock_class_id","type":"bytes16","internalType":"bytes16"}]},{"type":"error","name":"InvalidWallet","inputs":[{"name":"wallet","type":"address","internalType":"address"}]},{"type":"error","name":"NoActivePositionFound","inputs":[]},{"type":"error","name":"NoIssuanceFound","inputs":[]},{"type":"error","name":"NoStakeholder","inputs":[{"name":"stakeholder_id","type":"bytes16","internalType":"bytes16"}]},{"type":"error","name":"StakeholderAlreadyExists","inputs":[{"name":"stakeholder_id","type":"bytes16","internalType":"bytes16"}]},{"type":"error","name":"StockClassAlreadyExists","inputs":[{"name":"stock_class_id","type":"bytes16","internalType":"bytes16"}]},{"type":"error","name":"StockClassDoesNotExist","inputs":[{"name":"stock_class_id","type":"bytes16","internalType":"bytes16"}]},{"type":"error","name":"WalletAlreadyExists","inputs":[{"name":"wallet","type":"address","internalType":"address"}]}],"bytecode":{"object":"0x60808060405234620000c6576000549060ff8260081c1662000074575060ff8082160362000038575b604051614fd79081620000cc8239f35b60ff90811916176000557f7f26b83ff96e1f2b6a682f133852f6798a09c465da95921460cefb3847402498602060405160ff8152a13862000028565b62461bcd60e51b815260206004820152602760248201527f496e697469616c697a61626c653a20636f6e747261637420697320696e697469604482015266616c697a696e6760c81b6064820152608490fd5b600080fdfe610100604052600436101561001357600080fd5b60008060a052803560e01c908163013f7f4f14613ca857816301ffc9a714613c38578163022d63fb14613c1857816307cd926d146137fd578163087480301461334d5781630aa6220b146132b05781630c22d6bb14612fa65781631785f53c14612f455781631d14384814612e345781631d6b8b7214612de0578163248a9ca314612daf5781632629ac0f14612cc95781632f2ff15d14612bf757816336568abe14612a76578163371dc88514612a425781633cec69df146128b65781633e4106f314612713578163438fd5d8146125b05781634afd58fa146123305781634d21af6414612285578163578cb8f91461226557816361dc98b91461209c578163634e93da14611fbb57816363aefa5a14611f3957816363e71c4c14611ef9578163649a5ec714611d6a57816369197f4d14611d2d5781636924e42814611d0d5781637048027514611ce157816375b238fc14611cb65781637799960d14611b4857816384266a7d14611b2857816384ef8ffc14611afd5781638da5cb5b14611afd57816391d1485414611ab0578163924a750e146117415781639870d7fe146116915781639ace38c214611595578163a1eda53c14611530578163a1fc819614611353578163a217fddf14611335578163a9e9f32a14611294578163ac8a584a146111e8578163affed0e0146111c8578163b6238cd11461101e578163c1ad1d2014610f53578163c8acae8614610f0a578163c93fed6614610d09578163c95f650e14610ccc578163cc8463c814610c9f578163cefc142914610af0578163cf6eefb714610ab4578163d125ba8b14610a0b578163d547741f14610959578163d602b9fd146108ec57508063d95a6be514610562578063efb8751914610318578063f5b541a6146102ea5763f908b949146102ad57600080fd5b346102e45760203660031901126102e4576102e06102d16102cc613f88565b614d4b565b604093919351938493846140c9565b0390f35b60a05180fd5b346102e45760a05180600319360112610315576020604051600080516020614f978339815191528152f35b80fd5b346102e45760031960a0368201126102e457610332613f88565b602435916001600160401b036044358181116102e45761035690369060040161416d565b906064358181116102e45761036f90369060040161402d565b906084359081116102e45761038890369060040161402d565b92610399610394614ec5565b614a1e565b60a080516001600160801b03198716905260d360205251604081205460001981019190821161054b57506103cf6103d691613d06565b5095614f5d565b60cc5486116104ab576103ea60d1546149b5565b938460d15573__$c1299ed9651e866ee22f0392da2a89ff35$__93843b156102e45761046193610442610452926040519a8b99636f2ce39d60e11b8b5260048b015260248a015260e060448a015260e4890190614c10565b9084888303016064890152613f2b565b91858303016084860152613f2b565b9260a483015260d060c4830152818060a0519403915af4801561049e57610489575b60a05180f35b61049290613dc2565b60a05180156104835780fd5b6040513d60a051823e3d90fd5b60405162461bcd60e51b815260206004820152606660248201527f496e73756666696369656e7453746f636b436c6173735368617265734175746860448201527f6f72697a65643a2073746f636b20636c61737320617574686f72697a6564207360648201527f68617265732065786365656473206973737565722073686172657320617574686084820152651bdc9a5e995960d21b60a482015260c490fd5b634e487b7160e01b9052601160045260a051602490fd5b346102e45760603660031901126102e45761057b613f88565b6024906001600160401b0382358181116102e45761059d90369060040161402d565b916044358281116102e4576105b690369060040161402d565b916105c2610394614ec5565b6001600160801b0319809216938460a0515260209560d28752604060a05120546108d657604051916105f383613e0b565b8683528783019081526040830195865260cd5494600160401b8610156108a95761062460019687810160cd5561408e565b9490946108c0575160801c90845416178355518051928484116108a95785810161064e8154613d57565b948a601f9687811161085d575b505060a0518b908783116001146107f45750819060029560a051926107e9575b5050600019600383901b1c191690881b1790555b0194519081519384116107d357506106a78554613d57565b82811161078a575b5060a05187928411600114610727575092829391839260a0519461071c575b50501b916000199060031b1c19161790555b60d260cd54928260a051525260a0519160408320557f53df47344d1cdf2ddb4901af5df61e37e14606bb7c8cc004d65c7c83ab3d06938280a280f35b0151925087806106ce565b919085601f19851693528360a05193898520945b8a88838310610773575050501061075a575b505050811b0190556106e0565b015160001960f88460031b161c1916905585808061074d565b86860151885590960195948501948793500161073b565b8560a0515260a0518881208480870160051c8201938b88106107ca575b0160051c019186905b8381106107bf575050506106af565b8281550186906107b0565b935081936107a7565b60a08051634e487b7160e01b9052604160045251fd5b015190508c8061067b565b83905260a0518c81208a93929091601f198416908f5b82821061084457505096836002981061082b575b505050811b01905561068f565b015160001960f88460031b161c191690558c808061081e565b838a015185558d9690940193928301929081019061080a565b8360a0515260a05190888383209181860160051c83019486106108a0575b0160051c01918a905b8381106108955750508c915061065b565b828155018a90610884565b9350819361087b565b82634e487b7160e01b60a05152604160045260a051fd5b83634e487b7160e01b60a0515260a05180600452fd5b6040516333270c6160e01b815260048101879052fd5b346102e45760a0518060031936011261031557506109086144ad565b609780546001600160d01b0319811690915560a01c65ffffffffffff1661092f5760a05180f35b807f8886ebfc4259abdbc16601dd8fb5678e54878f47b3c34836cfc51154a960510991a180610483565b346102e45760403660031901126102e457600435610975614061565b81156109a057816104839260a05152606560205261099b6001604060a0512001546146a7565b6143fe565b60405162461bcd60e51b815260206004820152603760248201527f416363657373436f6e74726f6c3a2063616e2774206469726563746c7920726560448201527f766f6b652064656661756c742061646d696e20726f6c650000000000000000006064820152608490fd5b346102e45760403660031901126102e457610a78610a27613f88565b60ff6040610a33614061565b94600080516020614f9783398151915260a0515260656020528160a051203382526020522054168015610aa1575b610a6a90614a7a565b610a7383614efa565b614f24565b60018060a01b031660a0515260d460205260a051604081206001600160801b0319815416905580f35b50610a6a610aad614ec5565b9050610a61565b346102e45760a0518060031936011261031557609754604080516001600160a01b038316815260a09290921c65ffffffffffff16602083015290f35b346102e45760a0518060031936011261031557506097546001600160a01b03919082163303610c49576097546001600160a01b038116919060a01c65ffffffffffff168015159081610c3f575b5015610be957610b8892609854908116906bffffffffffffffffffffffff60a01b1660985581805260656020526040822081835260205260ff604083205416610b9e575b5050614258565b609780546001600160d01b031916905560a05180f35b8180526065602052604082208183526020526040822060ff19815416905533917ff6391f5c32d9c69d2a47ea670b442974b53935d1edc7fd64eb21e047a839171b8180a48280610b81565b60405162461bcd60e51b815260206004820152602860248201527f416363657373436f6e74726f6c3a207472616e736665722064656c6179206e6f6044820152671d081c185cdcd95960c21b6064820152608490fd5b9050421184610b3d565b60405162461bcd60e51b815260206004820152602860248201527f416363657373436f6e74726f6c3a2070656e64696e672061646d696e206d75736044820152671d081858d8d95c1d60c21b6064820152608490fd5b346102e45760a05180600319360112610315576020610cbc6141ef565b65ffffffffffff60405191168152f35b346102e45760203660031901126102e4576001600160801b0319610cee613f88565b1660a0515260d36020526020604060a0512054604051908152f35b346102e4576003196060368201126102e457600435916001600160401b0383116102e45760a0836004019284360301126102e457604060ff91600080516020614f9783398151915260a0515260656020528160a051203382526020522054168015610ef7575b610d7890614a7a565b610d84610a7382614a09565b6024820191610d9a610d9584614a09565b614f5d565b610e39610da860d1546149b5565b928360d155610db681614a09565b610e2d610dc287614a09565b946084610dec610dd460448401614a09565b95610de26064850182614ba9565b9390940190614bde565b94909560405199610dfc8b613dd5565b8a5260243560208b01526001600160801b031980998180941660408d01521660608b015216608089015236916140fe565b60a08601523691613fe7565b60c0830152610e5c73__$099b2b4dcca745b6363fe801534306d3af$__93614a09565b1660a0515260d360205260a051604081205490600019820191821161054b5750610e8590613d06565b5090823b156102e457604051636014524760e11b815260e06004820152928391610eb39060e4840190614c65565b92604435602484015260d5604484015260d6606484015260d0608484015260c960a484015260c4830152818060a0519403915af4801561049e576104895760a05180f35b50610d78610f03614ec5565b9050610d6f565b346102e45760203660031901126102e4576001600160a01b03610f2b61404b565b1660a0515260d46020526020604060a051205460801b604051906001600160801b0319168152f35b346102e45760203660031901126102e457610f6c613f88565b610f77610394614ec5565b6040519160208301908382106001600160401b0383111761100a57506040526001600160801b0319908116825260cf54600160401b811015610ff257806001610fc3920160cf55614188565b929092610fdb575160801c9082541617905560a05180f35b634e487b7160e01b60a05152602460a05180600452fd5b634e487b7160e01b60a051526041600452602460a051fd5b634e487b7160e01b81526041600452602490fd5b346102e4576003196080368201126102e457600435906001600160401b03906024358281116102e45761105590369060040161416d565b916044358181116102e45761106e90369060040161402d565b906064359081116102e45761108790369060040161402d565b91611093610394614ec5565b60cb548510611147576110a760d1546149b5565b928360d15573__$c1299ed9651e866ee22f0392da2a89ff35$__94853b156102e45761111e936110ff61110f92604051998a9863721ef53960e01b8a5260048a0152602489015260e0604489015260e4880190614c10565b9084878303016064880152613f2b565b91848303016084850152613f2b565b9160c960a483015260d060c4830152818060a0519403915af4801561049e576104895760a05180f35b60405162461bcd60e51b815260206004820152604d60248201527f496e73756666696369656e74497373756572536861726573417574686f72697a60448201527f65643a207368617265735f6973737565642065786365656473206e657753686160648201526c1c995cd05d5d1a1bdc9a5e9959609a1b608482015260a490fd5b346102e45760a0518060031936011261031557602060d154604051908152f35b346102e45760203660031901126102e45761120161404b565b61120c610394614ec5565b600080516020614f978339815191528083526065602052604083209160018060a01b03169182845260205260ff6040842054166112495760a05180f35b8083526065602052604083208284526020526040832060ff1981541690557ff6391f5c32d9c69d2a47ea670b442974b53935d1edc7fd64eb21e047a839171b339380a4808080610483565b346102e45760203660031901126102e4576001600160a01b036112b561404b565b168060a0515260d46020526001600160801b031980604060a051205460801b16156112f95760209160a0515260d48252604060a051205460801b9060405191168152f35b60405162461bcd60e51b8152602060048201526014602482015273139bc81cdd185ad95a1bdb19195c88199bdd5b9960621b6044820152606490fd5b346102e45760a0518060031936011261031557602090604051908152f35b346102e45760403660031901126102e45761136c613f88565b90611375613fa4565b916001600160801b0319809116918260a0515260209360d6855260a0518360408220921690528452604060a051209360405192839482875495868152019660a0515260a0519383852094975b60019087828b0110156113f057906040600292868954818160801b1683521688820152019601980197946113c1565b88915061141e82878093888e8d8d54918582821061151b575b501061150e575b505090509392930382613e41565b60a051908192829683975b83518910156114f1578760a0515260d5835260a051604081209085518b10156114dd5783858c60051b880101511690528352604060a05120946001860154906002870154908183029183830414831517156114c9576003926114926114b99593611498936147b2565b996147b2565b969091015464ffffffffff908116919081168211156114c257505b986149b5565b97949394611429565b90506114b3565b634e487b7160e01b8a52601160045260248afd5b634e487b7160e01b89526032600452602489fd5b8464ffffffffff6060928886604051948552840152166040820152f35b168152018390888a611410565b60019195858560801b16815201940185611409565b346102e45760a05180600319360112610315576098548060d01c918215158061158b575b15611582575060a01c65ffffffffffff165b6040805165ffffffffffff928316815292909116602083015290f35b91505080611566565b5042831015611554565b346102e457602090816003193601126102e4576004359060d0548210156102e45760d090527fe89d44c8fd6a9bac8af33ce47f56337617d449bf7ff3956b618c646de829cbcb0190604051918260a05182546115f081613d57565b9384845260019186838216918260001461166f575050600114611630575b505061161c92500383613e41565b6102e0604051928284938452830190613f2b565b85925060a0515260a051908282205b85831061165757505061161c9350820101858061160e565b8054838901850152879450869390920191810161163f565b925093505061161c94915060ff191682840152151560051b820101858061160e565b346102e45760203660031901126102e4576116aa61404b565b6116b5610394614ec5565b600080516020614f978339815191528083526065602052604083209160018060a01b03169182845260205260ff604084205416156116f35760a05180f35b80835260656020526040832082845260205260408320600160ff198254161790557f2f8788117e7eff1d82e926ec794901d17c78024a50270940304540a733656f0d339380a4808080610483565b346102e45760c03660031901126102e4576001600160401b036004358181116102e4576117729036906004016141bf565b608052906024358181116102e45761178e9036906004016141bf565b929060c0526044358281116102e4576117ab9036906004016141bf565b916064358481116102e4576117c49036906004016141bf565b946084358181116102e4576117dd9036906004016141bf565b96909160a4359081116102e4576117f89036906004016141bf565b919060e052611808610394614ec5565b886080511480611aa7575b80611a9e575b80611a95575b80611a8c575b15611a385760a0515b6080518082101561048357610a7361184a8361184f938a614a6a565b614a09565b611860610d9561184a838b8b614a6a565b61186e61184a828a8a614a6a565b611879828488614a6a565b35611885838c88614a6a565b35611893848760e051614a6a565b359064ffffffffff821682036102e45764ffffffffff92604051946118b786613d91565b6001600160801b0319168552602085015260408401521660608201526001600160801b03196118ec61184a846080518b614a6a565b1660a0515260d5602052604060a051208b61191661184a856001600160801b03199360c051614a6a565b1660a0515260205264ffffffffff60606003604060a05120845160801c6001600160801b03198254161781556020850151600182015560408501516002820155019201511664ffffffffff198254161790556001600160801b031961198161184a836080518a614a6a565b1660a0515260d6602052604060a051206001600160801b03196119a861184a848c8c614a6a565b1660a05152602052604060a05120906119c761184a828d60c051614a6a565b825490600160401b821015610ff25760018201808555821015611a2057611a1b9360a05152602060a051208260011c01916001600160801b03608084549260071b169260801c831b921b19161790556149b5565b61182e565b634e487b7160e01b60a051526032600452602460a051fd5b60405162461bcd60e51b815260206004820152602660248201527f496e70757420617272617973206d7573742068617665207468652073616d65206044820152650d8cadccee8d60d31b6064820152608490fd5b50818814611825565b5087811461181f565b50808714611819565b50868914611813565b346102e45760403660031901126102e45760ff6040602092611ad0614061565b60a08051600435905260658652518390206001600160a01b03909116825284522054604051911615158152f35b346102e45760a05180600319360112610315576098546040516001600160a01b039091168152602090f35b346102e45760a0518060031936011261031557602060cd54604051908152f35b346102e457600319906020368301126102e4576004356001600160401b0381116102e45760a0816004019382360301126102e45760ff6040602493600080516020614f9783398151915260a0515260656020528160a051203382526020522054168015611ca3575b611bb990614a7a565b611bc5610a7384614a09565b0190611bd3610d9583614a09565b611bde60d1546149b5565b908160d15573__$099b2b4dcca745b6363fe801534306d3af$__92611c0b6001600160801b031991614a09565b1660a0515260d360205260a051604081205490600019820191821161054b5750611c3490613d06565b5092803b156102e45760405163e713a5a960e01b815260e06004820152938492611c629060e4850190614ccf565b93602484015260d5604484015260d6606484015260d0608484015260c960a484015260c4830152818060a0519403915af4801561049e576104895760a05180f35b50611bb9611caf614ec5565b9050611bb0565b346102e45760a05180600319360112610315576020604051600080516020614fb78339815191528152f35b346102e45760203660031901126102e457610483611cfd61404b565b611d08610394614ec5565b61435f565b346102e45760a0518060031936011261031557602060ce54604051908152f35b346102e45760203660031901126102e4576001600160801b0319611d4f613f88565b1660a0515260d26020526020604060a0512054604051908152f35b346102e45760203660031901126102e45765ffffffffffff60043581811692918382036102e457611d996144ad565b611da2426148ce565b9381611dac6141ef565b60a051911680831115611ec157507ff1038c18cf84a56e432fdbfaf746924b7ea511dfe03a6506a0ceba4888788d9b95611dfa9390929091506206978080821015611eba57505b1690614228565b91609854908160d01c80611e5c575b5050609880546001600160a01b031660a084901b65ffffffffffff60a01b161760d085901b6001600160d01b031916179055506040805165ffffffffffff9283168152919092166020820152a160a05180f35b421115611e905750609780546001600160d01b031660309290921b6001600160d01b0319169190911790555b838080611e09565b7f2b1fa2edafe6f7b9e97c1a9e0c3660e645beb2dcaa2d45bdbf9beaf5472e1ec5915080a1611e88565b9050611df3565b9190910391821161054b57507ff1038c18cf84a56e432fdbfaf746924b7ea511dfe03a6506a0ceba4888788d9b93611dfa9190614228565b346102e45760203660031901126102e45760043560cf548110156102e457611f22602091614188565b505460801b604051906001600160801b0319168152f35b346102e45760403660031901126102e4576080611f54613f88565b611f5c613fa4565b6001600160801b031980921660a0515260d560205260a051826040822092169052602052604060a0512090815491600181015464ffffffffff60036002840154930154169260405194861b168452602084015260408301526060820152f35b346102e45760203660031901126102e4577f3377dc44241e779dd06afab5b788a35ca5f3b778836e2990bdb26a2a4b2e5ed66020611ff761404b565b611fff6144ad565b61201961200b426148ce565b6120136141ef565b90614228565b609780546001600160d01b031981166001600160a01b039490941693841760a084811b65ffffffffffff60a01b16919091179092559295919265ffffffffffff92911c8216612072575b5060405191168152a260a05180f35b807f8886ebfc4259abdbc16601dd8fb5678e54878f47b3c34836cfc51154a960510991a185612063565b346102e45760c03660031901126102e4576120b5613f88565b906120be613fa4565b6120c6613fbb565b606435928315158094036102e457604060ff91600080516020614f9783398151915260a0515260656020528160a051203382526020522054168015612252575b61210f90614a7a565b61211884614f24565b61212182614f24565b61212a81614f5d565b61213560d1546149b5565b908160d1556040519461214786613dd5565b6001600160801b031980911686528060208701941684528060408701921694858352606087019081526080870191608435835260a088019360a435855260c0890195865273__$099b2b4dcca745b6363fe801534306d3af$__9760a0515260d360205260a051604081205490600019820191821161054b57506121c990613d06565b5096883b156102e4578290816040519b631f7c9e9760e31b8d52511660048c0152511660248a01525116604488015251151560648701525160848601525160a48501525160c484015260d560e484015260d661010484015260d061012484015260c9610144840152610164830152816101848160a051935af4801561049e576104895760a05180f35b5061210f61225e614ec5565b9050612106565b346102e45760a0518060031936011261031557602060d054604051908152f35b346102e45760a05180600319360112610315578060cd549160ce54905b8381106122b457602083604051908152f35b60a0515b8281106122ce57506122c9906149b5565b6122a2565b9261232561232b916122df8461408e565b506001600160801b031990549080608092831b1660a0515260209060d68252604060a051209261230e8a613d06565b5054901b1660a0515252604060a0512054906147b2565b936149b5565b6122b8565b346102e45760803660031901126102e457612349613f88565b6001600160401b03906024358281116102e45761236a90369060040161402d565b612375610394614ec5565b6001600160801b03199081831660a0515260d3602052604060a0512054612596576040516123a281613df0565b82841681526020810190828252604435604082015260a0516060820152606435608082015260ce54600160401b811015610ff2578060016123e6920160ce55613d06565b929092610fdb57815160801c8584541617835551958651908111610ff2576124116001840154613d57565b601f811161254c575b5060a051602090601f83116001146124d55750918160809260049461249098999a60a051926124ca575b50508160011b916000199060031b1c19161760018501555b6040810151600285015560608101516003850155015191015560ce5483851660a0515260d3602052604060a0512055614935565b907fc7496d70298fcc793e1d058617af680232585e302f0185b14bba498b247a9c1d6020604051926064358452604435951692a460a05180f35b015190508a80612444565b60018501905260a051602081209890601f198416905b81811061253457509261249097989960049593600193836080971061251b575b505050811b01600185015561245c565b015160001960f88460031b161c191690558a808061250b565b838301518b556001909a0199602093840193016124eb565b6001840160a0515260a05160208120601f840160051c81016020851061258f575b601f840160051c820181106125845750505061241a565b82815560010161256d565b508061256d565b604051631339dd8760e21b81528284166004820152602490fd5b346102e4576003196040368201126102e457600435916001600160401b0383116102e45760a0836004019284360301126102e457604060ff91600080516020614f9783398151915260a0515260656020528160a051203382526020522054168015612700575b61261f90614a7a565b61262b610a7382614a09565b602482019161263c610d9584614a09565b61264a610da860d1546149b5565b60c083015261266d73__$099b2b4dcca745b6363fe801534306d3af$__93614a09565b1660a0515260d360205260a051604081205490600019820191821161054b575061269690613d06565b5090823b156102e457604051637e218e7760e11b815260c060048201529283916126c49060c4840190614c65565b9260d5602484015260d6604484015260d0606484015260c9608484015260a4830152818060a0519403915af4801561049e576104895760a05180f35b5061261f61270c614ec5565b9050612616565b346102e45760803660031901126102e45761272c613f88565b90612735613fa4565b9161273e613fbb565b92606435906001600160401b0382116102e45760ff60406127666127a694369060040161416d565b95600080516020614f9783398151915260a0515260656020528160a0512033825260205220541680156128a3575b61279d90614a7a565b610d9583614f24565b6127b160d1546149b5565b908160d1556001600160801b031980911660a0515260d560205260a0519381604086209116809552602052604060a0512090604051906127f082613d91565b825460801b168152606064ffffffffff600360018501549485602086015260028101546040860152015416910152156128915773__$099b2b4dcca745b6363fe801534306d3af$__91823b156102e45761286f9060405194859363a453f4bf60e01b855260048501526024840152608060448401526084830190614c10565b9160d06064830152818060a0519403915af4801561049e576104895760a05180f35b604051632b2eaacf60e21b8152600490fd5b5061279d6128af614ec5565b9050612794565b346102e457602060031981813601126102e457600435906001600160401b0382116102e4576060826004019183360301126102e457803580151580612a35575b80612a1e575b156129d95760cc939293556024908184013560cb55604460a0519401935b61292485836149c4565b90508110156104835761294461184a8261293e88866149c4565b906149f9565b61294d81614f5d565b6001600160801b03191660a0515260d3845260a05160408120549060001982019182116129c35750906129be91856129898361293e8a886149c4565b0135600461299683613d06565b50015560036129b660406129ae8561293e8c8a6149c4565b013592613d06565b5001556149b5565b61291a565b634e487b7160e01b9052601160045260a0518490fd5b60405162461bcd60e51b815260048101859052601d60248201527f496e76616c69642053656564696e672053686172657320506172616d730000006044820152606490fd5b50612a2c60448401836149c4565b905015156128fc565b50602483013515156128f6565b346102e45760203660031901126102e4576102e0612a66612a61613f88565b614e0f565b9160409593955195869586613f50565b346102e45760403660031901126102e457600435612a92614061565b811580612be0575b612b15575b336001600160a01b03821603612ab857610483916143fe565b60405162461bcd60e51b815260206004820152602f60248201527f416363657373436f6e74726f6c3a2063616e206f6e6c792072656e6f756e636560448201526e103937b632b9903337b91039b2b63360891b6064820152608490fd5b6097546001600160a01b038116159060a01c65ffffffffffff1681612bce575b81612bbb575b5015612b58576097805465ffffffffffff60a01b19169055612a9f565b60405162461bcd60e51b815260206004820152603560248201527f416363657373436f6e74726f6c3a206f6e6c792063616e2072656e6f756e636560448201527420696e2074776f2064656c6179656420737465707360581b6064820152608490fd5b905065ffffffffffff4291161083612b3b565b65ffffffffffff811615159150612b35565b506098546001600160a01b03828116911614612a9a565b346102e45760403660031901126102e457600435612c13614061565b908015612c65578060a051526065602052612c366001604060a0512001546146a7565b8083526065602052604083209160018060a01b03169182845260205260ff604084205416156116f35760a05180f35b60405162461bcd60e51b815260206004820152603660248201527f416363657373436f6e74726f6c3a2063616e2774206469726563746c79206772604482015275616e742064656661756c742061646d696e20726f6c6560501b6064820152608490fd5b346102e45760403660031901126102e457612ce2613f88565b9060ff6040612cef614061565b92600080516020614f9783398151915260a0515260656020528160a051203382526020522054168015612d9c575b612d2690614a7a565b612d2f81614efa565b612d3882614f24565b60018060a01b0316908160a0515260d46020526001600160801b03199182604060a051205460801b16612d845760a0515260d460205260a05191604083209160801c9082541617905580f35b60249060405190633c4d084f60e11b82526004820152fd5b50612d26612da8614ec5565b9050612d1d565b346102e45760203660031901126102e45760043560a05152606560205260206001604060a051200154604051908152f35b346102e45760203660031901126102e45760043560cd548110156102e457612e079061408e565b50805460801b6102e0612e286002612e2160018601613e62565b9401613e62565b604051938493846140c9565b346102e45760a05180600319360112610315575060c95460405191828160ca54612e5d81613d57565b80845293600191808316908115612f215750600114612ec4575b5050612e8592500383613e41565b60cb5460cc54612eb56040519485946001600160801b03199060801b168552608060208601526080850190613f2b565b91604084015260608301520390f35b915060ca82527f42d72674974f694b5f5159593243114d38a5c39c89d6b62fee061ff523240ee15b848310612f065750612e8593505081016020018580612e77565b81935090816020925483858a01015201910190918592612eec565b91505060209250612e8594915060ff191682840152151560051b8201018580612e77565b346102e45760203660031901126102e457612f5e61404b565b612f69610394614ec5565b600080516020614fb78339815191528083526065602052604083209160018060a01b03169182845260205260ff6040842054166112495760a05180f35b346102e457600319906040368301126102e4576004356001600160401b03928382116102e45760a08183360301126102e45760249283359485116102e457366023860112156102e457846004013593612ffe85614077565b9561300c6040519788613e41565b85875260209081880183819860051b830101913683116102e45784849101915b8383106132985750505050600080516020614f9783398151915260a0515260658152604060a05120338452815260ff6040842054168015613285575b61307190614a7a565b818560040195613083610a7388614a09565b0194613091610d9587614a09565b61309a81614a09565b906130a487614a09565b948951156132735789511561326057506001600160801b03199182808a5116911660a0515260d5845260a051906040822091528352604060a0512094604051956130ed87613d91565b8380825460801b1691828952600198606064ffffffffff60038c85015494858c8601526002810154604086015201541691015215928315613253575b5050506128915761313b60d1546149b5565b988960d1558261315f73__$099b2b4dcca745b6363fe801534306d3af$__99614a09565b1660a0515260d3845260a051604081205490600019820191821161323d575061318790613d06565b5096883b156102e45793806101009996928b99968d6131c160049b976040519e8f9d8e630b5aa02f60e41b815201526101048d0190614ccf565b958b01528985030160448a0152519283815201979360a051905b8382106132235750505050505060d5606484015260d6608484015260d060a484015260c960c484015260e4830152818060a0519403915af4801561049e576104895760a05180f35b855181168a52988201988a985094820194908401906131db565b634e487b7160e01b9052601160045260a0518690fd5b16141590508a8381613129565b634e487b7160e01b815260326004528490fd5b6040516309ef2e0760e01b8152600490fd5b50613071613291614ec5565b9050613068565b81906132a384613fd2565b815201910190839061302c565b346102e45760a0518060031936011261031557506132cc6144ad565b609854908160d01c806132ef575b609880546001600160a01b0316905560a05180f35b4211156133235750609780546001600160d01b031660309290921b6001600160d01b0319169190911790555b8080806132da565b7f2b1fa2edafe6f7b9e97c1a9e0c3660e645beb2dcaa2d45bdbf9beaf5472e1ec5915080a161331b565b346102e4576003196020368201126102e4576001600160401b03600435116102e45761022090600435360301126102e457600080516020614f9783398151915260a05152606560205260a051604081209033905260205260ff604060a05120541680156137ea575b6133be90614a7a565b6101846133d1610a738260043501614a09565b6133e2610d95600435600401614a09565b6001600160801b03196133f86004803501614a09565b1660a0515260d360205260a051604081205490600019820191821161054b575061342190613d06565b5061343560cb5460a46004350135906147b2565b60cc54106137965761345160a4600435013560038301546147b2565b60048201541061373e5761346660d1546149b5565b918260d15573__$099b2b4dcca745b6363fe801534306d3af$__3b156102e457604051926315d8e5e760e31b8452600484015260e060248401526001600160801b03196134b7600435600401613fd2565b1660e4840152826135496001600160801b03196134d8600435602401613fd2565b166101048381019190915260043560448101356101248501526064810135610144850152608481013561016485015260a4810135858501526001600160801b0319906135269060c401613fd2565b166101a484015260e460043501356101c484015260043501600435600401614ac6565b6102206101e4840152806103048401526103248301919060a0515b81811061370f5750505061369f61368f6136696136436136af966135ff6135d96135b261359c61012460043501600435600401614afa565b60e3198c8c0381016102049d8e01529a91614b2b565b8c6135c861014460043501600435600401614ac6565b916102248c82860301910152614b4c565b6135ee61016460043501600435600401614afa565b8d83038a016102448f015290614b2b565b906136166001600160801b03199160043501613fd2565b166102648b01526136326101a460043501600435600401614afa565b90878c8403016102848d0152614b2b565b6136586101c460043501600435600401614afa565b90868b8403016102a48c0152614b2b565b61367e6101e460043501600435600401614afa565b90858a8403016102c48b0152614b2b565b9260043501600435600401614ac6565b91868403016102e4870152614b4c565b9060d5604484015260d6606484015260d0608484015260c960a484015260c4830152818060a05192038173__$099b2b4dcca745b6363fe801534306d3af$__5af4801561049e576137005760a05180f35b61370990613dc2565b80610483565b91949350916020806001926001600160801b031961372c89613fd2565b16815201950191019186939492613564565b60405162461bcd60e51b815260206004820152602a60248201527f53746f636b436c6173733a20496e73756666696369656e742073686172657320604482015269185d5d1a1bdc9a5e995960b21b6064820152608490fd5b60405162461bcd60e51b815260206004820152602660248201527f4973737565723a20496e73756666696369656e742073686172657320617574686044820152651bdc9a5e995960d21b6064820152608490fd5b506133be6137f6614ec5565b90506133b5565b346102e45760803660031901126102e457613816613f88565b6001600160401b03906024358281116102e45761383790369060040161402d565b6064356001600160a01b038116908181036102e45760a051549060ff8260081c161592838094613c0b575b8015613bf4575b15613b985761389c60ff60019460a05190878784198316178355613b87575b505460081c1661389781614955565b614955565b15613b4257609780546001600160d01b031690556138bd90611d0881614258565b600080516020614fb7833981519152928360a051526020936065855260a051836040822001908282549255827fbd79b86ffe0ab8e8776151514217cd7cacd52c909f66475c3af44e129f0b00ff9281848480a4600080516020614f9783398151915280915260a0519185604084200192848454945580a46040519461394186613d91565b6001600160801b0319958682169687825283878301526060604083019260a05184520192604435845260801c9060c954161760c9558251978811610ff25761398a60ca54613d57565b601f8111613ad7575b5060a051978698601f8211600114613a525750806139d9959697989960a05191613a47575b50600019600383901b1c191690861b1760ca555b5160cb555160cc55614935565b916040519260a051957f4b48e41c82da2c71e453e939a4d95b4f760335e2e7e06f7f491433c330d729ac8780a3613a105760a05180f35b7f7f26b83ff96e1f2b6a682f133852f6798a09c465da95921460cefb38474024989361ff001981541690558152a180808080610483565b90508401518a6139b8565b60ca601f19831691527f42d72674974f694b5f5159593243114d38a5c39c89d6b62fee061ff523240ee19060a0515b818110613ac2575090869798999a836139d998949310613aa9575b5050811b0160ca556139cc565b86015160001960f88460031b161c191690558a80613a9c565b868c015183559a89019a918701918901613a81565b60ca60a051527f42d72674974f694b5f5159593243114d38a5c39c89d6b62fee061ff523240ee1601f8a0160051c810191888b10613b38575b601f0160051c01908560a051915b838110613b2d57505050613993565b828155018690613b1e565b9091508190613b10565b60405162461bcd60e51b815260206004820152601e60248201527f416363657373436f6e74726f6c3a20302064656661756c742061646d696e00006044820152606490fd5b61ffff19166101011781558a613888565b60405162461bcd60e51b815260206004820152602e60248201527f496e697469616c697a61626c653a20636f6e747261637420697320616c72656160448201526d191e481a5b9a5d1a585b1a5e995960921b6064820152608490fd5b50303b1580156138695750600160ff841614613869565b50600160ff841610613862565b346102e45760a05180600319360112610315576020604051620697808152f35b346102e45760203660031901126102e45760043563ffffffff60e01b81168091036102e4576020906318a4c3c360e11b8114908115613c7d575b506040519015158152f35b637965db0b60e01b811491508115613c97575b5082613c72565b6301ffc9a760e01b14905082613c90565b346103155760203660031901126103155760043560ce54811015613d0257613ccf90613d06565b50805460801b6102e0613ce460018401613e62565b92600281015490600460038201549101549160405195869586613f50565b5080fd5b60ce54811015613d415760059060ce600052027fd36cd1c74ef8d7326d8021b776c18fb5a5724b7f7bc93c2f42e43e10ef27d12a0190600090565b634e487b7160e01b600052603260045260246000fd5b90600182811c92168015613d87575b6020831014613d7157565b634e487b7160e01b600052602260045260246000fd5b91607f1691613d66565b608081019081106001600160401b03821117613dac57604052565b634e487b7160e01b600052604160045260246000fd5b6001600160401b038111613dac57604052565b60e081019081106001600160401b03821117613dac57604052565b60a081019081106001600160401b03821117613dac57604052565b606081019081106001600160401b03821117613dac57604052565b602081019081106001600160401b03821117613dac57604052565b90601f801991011681019081106001600160401b03821117613dac57604052565b9060405191826000825492613e7684613d57565b908184526001948581169081600014613ee55750600114613ea2575b5050613ea092500383613e41565b565b9093915060005260209081600020936000915b818310613ecd575050613ea093508201013880613e92565b85548884018501529485019487945091830191613eb5565b915050613ea094506020925060ff191682840152151560051b8201013880613e92565b60005b838110613f1b5750506000910152565b8181015183820152602001613f0b565b90602091613f4481518092818552858086019101613f08565b601f01601f1916010190565b91613f7990608094979695926001600160801b031916845260a0602085015260a0840190613f2b565b95604083015260608201520152565b600435906001600160801b031982168203613f9f57565b600080fd5b602435906001600160801b031982168203613f9f57565b604435906001600160801b031982168203613f9f57565b35906001600160801b031982168203613f9f57565b9291926001600160401b038211613dac5760405191614010601f8201601f191660200184613e41565b829481845281830111613f9f578281602093846000960137010152565b9080601f83011215613f9f5781602061404893359101613fe7565b90565b600435906001600160a01b0382168203613f9f57565b602435906001600160a01b0382168203613f9f57565b6001600160401b038111613dac5760051b60200190565b60cd54811015613d415760039060cd600052027f83978b4c69c48dd978ab43fe30f077615294f938fb7f936d9eb340e51ea7db2e0190600090565b916140f09061404894926001600160801b0319168452606060208501526060840190613f2b565b916040818403910152613f2b565b9291909261410b84614077565b916141196040519384613e41565b829480845260208094019060051b830192828411613f9f5780915b84831061414357505050505050565b82356001600160401b038111613f9f578691614162868493860161402d565b815201920191614134565b9080601f83011215613f9f57816020614048933591016140fe565b60cf54811015613d415760cf6000527facb8d954e2cfef495862221e91bd7523613cf8808827cb33edfe4904cc51bf290190600090565b9181601f84011215613f9f578235916001600160401b038311613f9f576020808501948460051b010111613f9f57565b6098548060d01c801515908161421e575b50156142145760a01c65ffffffffffff1690565b5060975460d01c90565b9050421138614200565b91909165ffffffffffff8080941691160191821161424257565b634e487b7160e01b600052601160045260246000fd5b609854906001600160a01b039081831661430557166001600160a01b031991909116811760985560008181527fffdfc1249c027f9191656349feb0761381bb32c9f557e01f419fd08754bf5a1b602052604081205490919060ff16156142bc575050565b81805260656020526040822081835260205260408220600160ff1982541617905533917f2f8788117e7eff1d82e926ec794901d17c78024a50270940304540a733656f0d8180a4565b60405162461bcd60e51b815260206004820152602c60248201527f416363657373436f6e74726f6c3a2064656661756c742061646d696e20616c7260448201526b1958591e4819dc985b9d195960a21b6064820152608490fd5b6001600160a01b031660008181527f9de19bebcfec5fefaa13a42edbcc11cb6ff633bb0eb0a7f29bcb2311657057e06020526040812054909190600080516020614fb78339815191529060ff16156143b657505050565b80835260656020526040832082845260205260408320600160ff198254161790557f2f8788117e7eff1d82e926ec794901d17c78024a50270940304540a733656f0d339380a4565b90811580614496575b614481575b6000918083526065602052604083209160018060a01b03169182845260205260ff60408420541661443c57505050565b8083526065602052604083208284526020526040832060ff1981541690557ff6391f5c32d9c69d2a47ea670b442974b53935d1edc7fd64eb21e047a839171b339380a4565b609880546001600160a01b031916905561440c565b506098546001600160a01b03828116911614614407565b3360009081527fffdfc1249c027f9191656349feb0761381bb32c9f557e01f419fd08754bf5a1b602090815260408083205490929060ff16156144ef57505050565b6144f8336147d0565b908084519061450682613d91565b6042825284820192606036853782511561469357603084538251906001918210156146935790607860218501536041915b818311614625575050506145e35760486145df9386936145c3936145b4985198899376020b1b1b2b9b9a1b7b73a3937b61d1030b1b1b7bab73a1604d1b8a86015261458b815180928c603789019101613f08565b8401917001034b99036b4b9b9b4b733903937b6329607d1b603784015251809386840190613f08565b01036028810187520185613e41565b5192839262461bcd60e51b845260048401526024830190613f2b565b0390fd5b60648486519062461bcd60e51b825280600483015260248201527f537472696e67733a20686578206c656e67746820696e73756666696369656e746044820152fd5b909192600f8116601081101561467f576f181899199a1a9b1b9c1cb0b131b232b360811b901a61465585876147bf565b5360041c92801561466b57600019019190614537565b634e487b7160e01b82526011600452602482fd5b634e487b7160e01b83526032600452602483fd5b634e487b7160e01b81526032600452602490fd5b60009080825260209060658252604092838120338252835260ff8482205416156146d15750505050565b6146da336147d0565b918451906146e782613d91565b6042825284820192606036853782511561469357603084538251906001918210156146935790607860218501536041915b81831161476c575050506145e35760486145df9386936145c3936145b4985198899376020b1b1b2b9b9a1b7b73a3937b61d1030b1b1b7bab73a1604d1b8a86015261458b815180928c603789019101613f08565b909192600f8116601081101561467f576f181899199a1a9b1b9c1cb0b131b232b360811b901a61479c85876147bf565b5360041c92801561466b57600019019190614718565b9190820180921161424257565b908151811015613d41570160200190565b604051906147dd82613e0b565b602a8252602082016040368237825115613d4157603090538151600190811015613d4157607860218401536029905b80821161486057505061481c5790565b606460405162461bcd60e51b815260206004820152602060248201527f537472696e67733a20686578206c656e67746820696e73756666696369656e746044820152fd5b9091600f811660108110156148b9576f181899199a1a9b1b9c1cb0b131b232b360811b901a61488f84866147bf565b5360041c9180156148a457600019019061480c565b60246000634e487b7160e01b81526011600452fd5b60246000634e487b7160e01b81526032600452fd5b65ffffffffffff908181116148e1571690565b60405162461bcd60e51b815260206004820152602660248201527f53616665436173743a2076616c756520646f65736e27742066697420696e203460448201526538206269747360d01b6064820152608490fd5b61494d90602060405192828480945193849201613f08565b810103902090565b1561495c57565b60405162461bcd60e51b815260206004820152602b60248201527f496e697469616c697a61626c653a20636f6e7472616374206973206e6f74206960448201526a6e697469616c697a696e6760a81b6064820152608490fd5b60001981146142425760010190565b903590601e1981360301821215613f9f57018035906001600160401b038211613f9f57602001916060820236038313613f9f57565b9190811015613d41576060020190565b356001600160801b031981168103613f9f5790565b15614a2557565b60405162461bcd60e51b815260206004820152601860248201527f446f6573206e6f7420686176652061646d696e20726f6c6500000000000000006044820152606490fd5b9190811015613d415760051b0190565b15614a8157565b60405162461bcd60e51b815260206004820152601b60248201527f446f6573206e6f742068617665206f70657261746f7220726f6c6500000000006044820152606490fd5b9035601e1982360301811215613f9f5701602081359101916001600160401b038211613f9f578160051b36038313613f9f57565b9035601e1982360301811215613f9f5701602081359101916001600160401b038211613f9f578136038313613f9f57565b908060209392818452848401376000828201840152601f01601f1916010190565b90808352602080930192838260051b850194846000925b858410614b74575050505050505090565b909192939495968580614b988385600195038852614b928c88614afa565b90614b2b565b990194019401929594939190614b63565b903590601e1981360301821215613f9f57018035906001600160401b038211613f9f57602001918160051b36038313613f9f57565b903590601e1981360301821215613f9f57018035906001600160401b038211613f9f57602001918136038313613f9f57565b90815180825260208092019182818360051b82019501936000915b848310614c3b5750505050505090565b9091929394958480614c5583856001950387528a51613f2b565b9801930193019194939290614c2b565b6140489181518152602082015160208201526001600160801b0319806040840151166040830152806060840151166060830152608083015116608082015260c0614cbe60a084015160e060a085015260e0840190614c10565b9201519060c0818403910152613f2b565b614048916001600160801b031980614ce684613fd2565b16825280614cf660208501613fd2565b166020830152614d0860408401613fd2565b166040820152614d3d614d32614d216060850185614ac6565b60a0606086015260a0850191614b4c565b926080810190614afa565b916080818503910152614b2b565b906001600160801b031980921690600082815260d2602052604092838220541515600014614deb57815260d260205282812054600019810191908211614dd75750614d959061408e565b50928251614da281613e0b565b81855460801b168152614dca6002614dbc60018801613e62565b966020840197885201613e62565b8094820152511692519190565b634e487b7160e01b81526011600452602490fd5b50809350928251614dfb81613e26565b818152925190614e0a82613e26565b815290565b6001600160801b0319908116600081815260d3602052604081205490919015614eaa57815260d36020526040812054600019810191908211614dd75750614e5590613d06565b50604051614e6281613df0565b82825460801b168152614e7760018301613e62565b93846020830152600283015493846040840152600460038501549485606086015201549283608082015251169493929190565b5080915091604051614ebb81613e26565b8281529180918190565b3360009081527f9de19bebcfec5fefaa13a42edbcc11cb6ff633bb0eb0a7f29bcb2311657057e0602052604090205460ff1690565b6001600160a01b03168015614f0c5750565b60249060405190633146914d60e11b82526004820152fd5b6001600160801b0319168060005260d260205260406000205415614f455750565b6024906040519063b4586dfb60e01b82526004820152fd5b6001600160801b0319168060005260d360205260406000205415614f7e5750565b60249060405190630b2b152360e21b82526004820152fdfe523a704056dcd17bcf83bed8b68c59416dac1119be77755efe3bde0a64e46e0cdf8b4c520ffe197c5343c6f5aec59570151ef9a492f2c624fd45ddde6135ec42","linkReferences":{"src/lib/Stock.sol":{"StockLib":[{"start":3855,"length":20},{"start":7345,"length":20},{"start":8793,"length":20},{"start":10016,"length":20},{"start":10481,"length":20},{"start":12818,"length":20},{"start":13625,"length":20},{"start":14247,"length":20}]},"src/lib/transactions/Adjustment.sol":{"Adjustment":[{"start":1213,"length":20},{"start":4474,"length":20}]}}},"methodIdentifiers":{"ADMIN_ROLE()":"75b238fc","DEFAULT_ADMIN_ROLE()":"a217fddf","OPERATOR_ROLE()":"f5b541a6","acceptDefaultAdminTransfer()":"cefc1429","acceptStock(bytes16,bytes16,bytes16,string[])":"3e4106f3","addAdmin(address)":"70480275","addOperator(address)":"9870d7fe","addWalletToStakeholder(bytes16,address)":"2629ac0f","adjustIssuerAuthorizedShares(uint256,string[],string,string)":"b6238cd1","adjustStockClassAuthorizedShares(bytes16,uint256,string[],string,string)":"efb87519","beginDefaultAdminTransfer(address)":"634e93da","cancelDefaultAdminTransfer()":"d602b9fd","cancelStock((bytes16,bytes16,bytes16,string[],string),uint256)":"438fd5d8","changeDefaultAdminDelay(uint48)":"649a5ec7","createStakeholder(bytes16,string,string)":"d95a6be5","createStockClass(bytes16,string,uint256,uint256)":"4afd58fa","createStockLegendTemplate(bytes16)":"c1ad1d20","defaultAdmin()":"84ef8ffc","defaultAdminDelay()":"cc8463c8","defaultAdminDelayIncreaseWait()":"022d63fb","getActivePosition(bytes16,bytes16)":"63aefa5a","getAveragePosition(bytes16,bytes16)":"a1fc8196","getRoleAdmin(bytes32)":"248a9ca3","getStakeholderById(bytes16)":"f908b949","getStakeholderIdByWallet(address)":"a9e9f32a","getStockClassById(bytes16)":"371dc885","getTotalActiveSecuritiesCount()":"4d21af64","getTotalNumberOfStakeholders()":"84266a7d","getTotalNumberOfStockClasses()":"6924e428","getTransactionsCount()":"578cb8f9","grantRole(bytes32,address)":"2f2ff15d","hasRole(bytes32,address)":"91d14854","initialize(bytes16,string,uint256,address)":"07cd926d","issueStock((bytes16,bytes16,(uint256,uint256),uint256,uint256,bytes16,uint256,bytes16[],string,string[],string,bytes16,string,string,string,string[]))":"08748030","issuer()":"1d143848","nonce()":"affed0e0","owner()":"8da5cb5b","pendingDefaultAdmin()":"cf6eefb7","pendingDefaultAdminDelay()":"a1eda53c","reissueStock((bytes16,bytes16,bytes16,string[],string),bytes16[])":"0c22d6bb","removeAdmin(address)":"1785f53c","removeOperator(address)":"ac8a584a","removeWalletFromStakeholder(bytes16,address)":"d125ba8b","renounceRole(bytes32,address)":"36568abe","repurchaseStock((bytes16,bytes16,bytes16,string[],string),uint256,uint256)":"c93fed66","retractStockIssuance((bytes16,bytes16,bytes16,string[],string))":"7799960d","revokeRole(bytes32,address)":"d547741f","rollbackDefaultAdminDelay()":"0aa6220b","seedMultipleActivePositionsAndSecurityIds(bytes16[],bytes16[],bytes16[],uint256[],uint256[],uint40[])":"924a750e","seedSharesAuthorizedAndIssued(((uint256,uint256),(bytes16,uint256,uint256)[]))":"3cec69df","stakeholderIndex(bytes16)":"69197f4d","stakeholders(uint256)":"1d6b8b72","stockClassIndex(bytes16)":"c95f650e","stockClasses(uint256)":"013f7f4f","stockLegendTemplates(uint256)":"63e71c4c","supportsInterface(bytes4)":"01ffc9a7","transactions(uint256)":"9ace38c2","transferStock(bytes16,bytes16,bytes16,bool,uint256,uint256)":"61dc98b9","walletsPerStakeholder(address)":"c8acae86"},"id":56}