{"abi":[{"type":"constructor","inputs":[],"stateMutability":"nonpayable"},{"type":"function","name":"ADMIN_ROLE","inputs":[],"outputs":[{"name":"","type":"bytes32","internalType":"bytes32"}],"stateMutability":"view"},{"type":"function","name":"DEFAULT_ADMIN_ROLE","inputs":[],"outputs":[{"name":"","type":"bytes32","internalType":"bytes32"}],"stateMutability":"view"},{"type":"function","name":"OPERATOR_ROLE","inputs":[],"outputs":[{"name":"","type":"bytes32","internalType":"bytes32"}],"stateMutability":"view"},{"type":"function","name":"acceptDefaultAdminTransfer","inputs":[],"outputs":[],"stateMutability":"nonpayable"},{"type":"function","name":"acceptStock","inputs":[{"name":"stakeholderId","type":"bytes16","internalType":"bytes16"},{"name":"stockClassId","type":"bytes16","internalType":"bytes16"},{"name":"securityId","type":"bytes16","internalType":"bytes16"},{"name":"comments","type":"string[]","internalType":"string[]"}],"outputs":[],"stateMutability":"nonpayable"},{"type":"function","name":"addAdmin","inputs":[{"name":"addr","type":"address","internalType":"address"}],"outputs":[],"stateMutability":"nonpayable"},{"type":"function","name":"addOperator","inputs":[{"name":"addr","type":"address","internalType":"address"}],"outputs":[],"stateMutability":"nonpayable"},{"type":"function","name":"addWalletToStakeholder","inputs":[{"name":"_stakeholder_id","type":"bytes16","internalType":"bytes16"},{"name":"_wallet","type":"address","internalType":"address"}],"outputs":[],"stateMutability":"nonpayable"},{"type":"function","name":"adjustIssuerAuthorizedShares","inputs":[{"name":"newSharesAuthorized","type":"uint256","internalType":"uint256"},{"name":"comments","type":"string[]","internalType":"string[]"},{"name":"boardApprovalDate","type":"string","internalType":"string"},{"name":"stockholderApprovalDate","type":"string","internalType":"string"}],"outputs":[],"stateMutability":"nonpayable"},{"type":"function","name":"adjustStockClassAuthorizedShares","inputs":[{"name":"stockClassId","type":"bytes16","internalType":"bytes16"},{"name":"newAuthorizedShares","type":"uint256","internalType":"uint256"},{"name":"comments","type":"string[]","internalType":"string[]"},{"name":"boardApprovalDate","type":"string","internalType":"string"},{"name":"stockholderApprovalDate","type":"string","internalType":"string"}],"outputs":[],"stateMutability":"nonpayable"},{"type":"function","name":"beginDefaultAdminTransfer","inputs":[{"name":"newAdmin","type":"address","internalType":"address"}],"outputs":[],"stateMutability":"nonpayable"},{"type":"function","name":"cancelDefaultAdminTransfer","inputs":[],"outputs":[],"stateMutability":"nonpayable"},{"type":"function","name":"cancelStock","inputs":[{"name":"params","type":"tuple","internalType":"struct StockParams","components":[{"name":"stakeholder_id","type":"bytes16","internalType":"bytes16"},{"name":"stock_class_id","type":"bytes16","internalType":"bytes16"},{"name":"security_id","type":"bytes16","internalType":"bytes16"},{"name":"comments","type":"string[]","internalType":"string[]"},{"name":"reason_text","type":"string","internalType":"string"}]},{"name":"quantity","type":"uint256","internalType":"uint256"}],"outputs":[],"stateMutability":"nonpayable"},{"type":"function","name":"changeDefaultAdminDelay","inputs":[{"name":"newDelay","type":"uint48","internalType":"uint48"}],"outputs":[],"stateMutability":"nonpayable"},{"type":"function","name":"createStakeholder","inputs":[{"name":"_id","type":"bytes16","internalType":"bytes16"},{"name":"_stakeholder_type","type":"string","internalType":"string"},{"name":"_current_relationship","type":"string","internalType":"string"}],"outputs":[],"stateMutability":"nonpayable"},{"type":"function","name":"createStockClass","inputs":[{"name":"_id","type":"bytes16","internalType":"bytes16"},{"name":"_class_type","type":"string","internalType":"string"},{"name":"_price_per_share","type":"uint256","internalType":"uint256"},{"name":"_initial_share_authorized","type":"uint256","internalType":"uint256"}],"outputs":[],"stateMutability":"nonpayable"},{"type":"function","name":"createStockLegendTemplate","inputs":[{"name":"_id","type":"bytes16","internalType":"bytes16"}],"outputs":[],"stateMutability":"nonpayable"},{"type":"function","name":"defaultAdmin","inputs":[],"outputs":[{"name":"","type":"address","internalType":"address"}],"stateMutability":"view"},{"type":"function","name":"defaultAdminDelay","inputs":[],"outputs":[{"name":"","type":"uint48","internalType":"uint48"}],"stateMutability":"view"},{"type":"function","name":"defaultAdminDelayIncreaseWait","inputs":[],"outputs":[{"name":"","type":"uint48","internalType":"uint48"}],"stateMutability":"view"},{"type":"function","name":"getActivePosition","inputs":[{"name":"stakeholderId","type":"bytes16","internalType":"bytes16"},{"name":"securityId","type":"bytes16","internalType":"bytes16"}],"outputs":[{"name":"","type":"bytes16","internalType":"bytes16"},{"name":"","type":"uint256","internalType":"uint256"},{"name":"","type":"uint256","internalType":"uint256"},{"name":"","type":"uint40","internalType":"uint40"}],"stateMutability":"view"},{"type":"function","name":"getAveragePosition","inputs":[{"name":"stakeholderId","type":"bytes16","internalType":"bytes16"},{"name":"stockClassId","type":"bytes16","internalType":"bytes16"}],"outputs":[{"name":"","type":"uint256","internalType":"uint256"},{"name":"","type":"uint256","internalType":"uint256"},{"name":"","type":"uint40","internalType":"uint40"}],"stateMutability":"view"},{"type":"function","name":"getRoleAdmin","inputs":[{"name":"role","type":"bytes32","internalType":"bytes32"}],"outputs":[{"name":"","type":"bytes32","internalType":"bytes32"}],"stateMutability":"view"},{"type":"function","name":"getStakeholderById","inputs":[{"name":"_id","type":"bytes16","internalType":"bytes16"}],"outputs":[{"name":"","type":"bytes16","internalType":"bytes16"},{"name":"","type":"string","internalType":"string"},{"name":"","type":"string","internalType":"string"}],"stateMutability":"view"},{"type":"function","name":"getStakeholderIdByWallet","inputs":[{"name":"_wallet","type":"address","internalType":"address"}],"outputs":[{"name":"stakeholderId","type":"bytes16","internalType":"bytes16"}],"stateMutability":"view"},{"type":"function","name":"getStockClassById","inputs":[{"name":"_id","type":"bytes16","internalType":"bytes16"}],"outputs":[{"name":"","type":"bytes16","internalType":"bytes16"},{"name":"","type":"string","internalType":"string"},{"name":"","type":"uint256","internalType":"uint256"},{"name":"","type":"uint256","internalType":"uint256"},{"name":"","type":"uint256","internalType":"uint256"}],"stateMutability":"view"},{"type":"function","name":"getTotalActiveSecuritiesCount","inputs":[],"outputs":[{"name":"","type":"uint256","internalType":"uint256"}],"stateMutability":"view"},{"type":"function","name":"getTotalNumberOfStakeholders","inputs":[],"outputs":[{"name":"","type":"uint256","internalType":"uint256"}],"stateMutability":"view"},{"type":"function","name":"getTotalNumberOfStockClasses","inputs":[],"outputs":[{"name":"","type":"uint256","internalType":"uint256"}],"stateMutability":"view"},{"type":"function","name":"getTransactionsCount","inputs":[],"outputs":[{"name":"","type":"uint256","internalType":"uint256"}],"stateMutability":"view"},{"type":"function","name":"grantRole","inputs":[{"name":"role","type":"bytes32","internalType":"bytes32"},{"name":"account","type":"address","internalType":"address"}],"outputs":[],"stateMutability":"nonpayable"},{"type":"function","name":"hasRole","inputs":[{"name":"role","type":"bytes32","internalType":"bytes32"},{"name":"account","type":"address","internalType":"address"}],"outputs":[{"name":"","type":"bool","internalType":"bool"}],"stateMutability":"view"},{"type":"function","name":"initialize","inputs":[{"name":"id","type":"bytes16","internalType":"bytes16"},{"name":"name","type":"string","internalType":"string"},{"name":"initial_shares_authorized","type":"uint256","internalType":"uint256"},{"name":"admin","type":"address","internalType":"address"}],"outputs":[],"stateMutability":"nonpayable"},{"type":"function","name":"issueStock","inputs":[{"name":"params","type":"tuple","internalType":"struct StockIssuanceParams","components":[{"name":"stock_class_id","type":"bytes16","internalType":"bytes16"},{"name":"stock_plan_id","type":"bytes16","internalType":"bytes16"},{"name":"share_numbers_issued","type":"tuple","internalType":"struct ShareNumbersIssued","components":[{"name":"starting_share_number","type":"uint256","internalType":"uint256"},{"name":"ending_share_number","type":"uint256","internalType":"uint256"}]},{"name":"share_price","type":"uint256","internalType":"uint256"},{"name":"quantity","type":"uint256","internalType":"uint256"},{"name":"vesting_terms_id","type":"bytes16","internalType":"bytes16"},{"name":"cost_basis","type":"uint256","internalType":"uint256"},{"name":"stock_legend_ids","type":"bytes16[]","internalType":"bytes16[]"},{"name":"issuance_type","type":"string","internalType":"string"},{"name":"comments","type":"string[]","internalType":"string[]"},{"name":"custom_id","type":"string","internalType":"string"},{"name":"stakeholder_id","type":"bytes16","internalType":"bytes16"},{"name":"board_approval_date","type":"string","internalType":"string"},{"name":"stockholder_approval_date","type":"string","internalType":"string"},{"name":"consideration_text","type":"string","internalType":"string"},{"name":"security_law_exemptions","type":"string[]","internalType":"string[]"}]}],"outputs":[],"stateMutability":"nonpayable"},{"type":"function","name":"issuer","inputs":[],"outputs":[{"name":"id","type":"bytes16","internalType":"bytes16"},{"name":"legal_name","type":"string","internalType":"string"},{"name":"shares_issued","type":"uint256","internalType":"uint256"},{"name":"shares_authorized","type":"uint256","internalType":"uint256"}],"stateMutability":"view"},{"type":"function","name":"nonce","inputs":[],"outputs":[{"name":"","type":"uint256","internalType":"uint256"}],"stateMutability":"view"},{"type":"function","name":"owner","inputs":[],"outputs":[{"name":"","type":"address","internalType":"address"}],"stateMutability":"view"},{"type":"function","name":"pendingDefaultAdmin","inputs":[],"outputs":[{"name":"newAdmin","type":"address","internalType":"address"},{"name":"schedule","type":"uint48","internalType":"uint48"}],"stateMutability":"view"},{"type":"function","name":"pendingDefaultAdminDelay","inputs":[],"outputs":[{"name":"newDelay","type":"uint48","internalType":"uint48"},{"name":"schedule","type":"uint48","internalType":"uint48"}],"stateMutability":"view"},{"type":"function","name":"reissueStock","inputs":[{"name":"params","type":"tuple","internalType":"struct StockParams","components":[{"name":"stakeholder_id","type":"bytes16","internalType":"bytes16"},{"name":"stock_class_id","type":"bytes16","internalType":"bytes16"},{"name":"security_id","type":"bytes16","internalType":"bytes16"},{"name":"comments","type":"string[]","internalType":"string[]"},{"name":"reason_text","type":"string","internalType":"string"}]},{"name":"resulting_security_ids","type":"bytes16[]","internalType":"bytes16[]"}],"outputs":[],"stateMutability":"nonpayable"},{"type":"function","name":"removeAdmin","inputs":[{"name":"addr","type":"address","internalType":"address"}],"outputs":[],"stateMutability":"nonpayable"},{"type":"function","name":"removeOperator","inputs":[{"name":"addr","type":"address","internalType":"address"}],"outputs":[],"stateMutability":"nonpayable"},{"type":"function","name":"removeWalletFromStakeholder","inputs":[{"name":"_stakeholder_id","type":"bytes16","internalType":"bytes16"},{"name":"_wallet","type":"address","internalType":"address"}],"outputs":[],"stateMutability":"nonpayable"},{"type":"function","name":"renounceRole","inputs":[{"name":"role","type":"bytes32","internalType":"bytes32"},{"name":"account","type":"address","internalType":"address"}],"outputs":[],"stateMutability":"nonpayable"},{"type":"function","name":"repurchaseStock","inputs":[{"name":"params","type":"tuple","internalType":"struct StockParams","components":[{"name":"stakeholder_id","type":"bytes16","internalType":"bytes16"},{"name":"stock_class_id","type":"bytes16","internalType":"bytes16"},{"name":"security_id","type":"bytes16","internalType":"bytes16"},{"name":"comments","type":"string[]","internalType":"string[]"},{"name":"reason_text","type":"string","internalType":"string"}]},{"name":"quantity","type":"uint256","internalType":"uint256"},{"name":"price","type":"uint256","internalType":"uint256"}],"outputs":[],"stateMutability":"nonpayable"},{"type":"function","name":"retractStockIssuance","inputs":[{"name":"params","type":"tuple","internalType":"struct StockParams","components":[{"name":"stakeholder_id","type":"bytes16","internalType":"bytes16"},{"name":"stock_class_id","type":"bytes16","internalType":"bytes16"},{"name":"security_id","type":"bytes16","internalType":"bytes16"},{"name":"comments","type":"string[]","internalType":"string[]"},{"name":"reason_text","type":"string","internalType":"string"}]}],"outputs":[],"stateMutability":"nonpayable"},{"type":"function","name":"revokeRole","inputs":[{"name":"role","type":"bytes32","internalType":"bytes32"},{"name":"account","type":"address","internalType":"address"}],"outputs":[],"stateMutability":"nonpayable"},{"type":"function","name":"rollbackDefaultAdminDelay","inputs":[],"outputs":[],"stateMutability":"nonpayable"},{"type":"function","name":"seedMultipleActivePositionsAndSecurityIds","inputs":[{"name":"stakeholderIds","type":"bytes16[]","internalType":"bytes16[]"},{"name":"securityIds","type":"bytes16[]","internalType":"bytes16[]"},{"name":"stockClassIds","type":"bytes16[]","internalType":"bytes16[]"},{"name":"quantities","type":"uint256[]","internalType":"uint256[]"},{"name":"sharePrices","type":"uint256[]","internalType":"uint256[]"},{"name":"timestamps","type":"uint40[]","internalType":"uint40[]"}],"outputs":[],"stateMutability":"nonpayable"},{"type":"function","name":"seedSharesAuthorizedAndIssued","inputs":[{"name":"params","type":"tuple","internalType":"struct InitialShares","components":[{"name":"issuerInitialShares","type":"tuple","internalType":"struct IssuerInitialShares","components":[{"name":"shares_authorized","type":"uint256","internalType":"uint256"},{"name":"shares_issued","type":"uint256","internalType":"uint256"}]},{"name":"stockClassesInitialShares","type":"tuple[]","internalType":"struct StockClassInitialShares[]","components":[{"name":"id","type":"bytes16","internalType":"bytes16"},{"name":"shares_authorized","type":"uint256","internalType":"uint256"},{"name":"shares_issued","type":"uint256","internalType":"uint256"}]}]}],"outputs":[],"stateMutability":"nonpayable"},{"type":"function","name":"stakeholderIndex","inputs":[{"name":"","type":"bytes16","internalType":"bytes16"}],"outputs":[{"name":"","type":"uint256","internalType":"uint256"}],"stateMutability":"view"},{"type":"function","name":"stakeholders","inputs":[{"name":"","type":"uint256","internalType":"uint256"}],"outputs":[{"name":"id","type":"bytes16","internalType":"bytes16"},{"name":"stakeholder_type","type":"string","internalType":"string"},{"name":"current_relationship","type":"string","internalType":"string"}],"stateMutability":"view"},{"type":"function","name":"stockClassIndex","inputs":[{"name":"","type":"bytes16","internalType":"bytes16"}],"outputs":[{"name":"","type":"uint256","internalType":"uint256"}],"stateMutability":"view"},{"type":"function","name":"stockClasses","inputs":[{"name":"","type":"uint256","internalType":"uint256"}],"outputs":[{"name":"id","type":"bytes16","internalType":"bytes16"},{"name":"class_type","type":"string","internalType":"string"},{"name":"price_per_share","type":"uint256","internalType":"uint256"},{"name":"shares_issued","type":"uint256","internalType":"uint256"},{"name":"shares_authorized","type":"uint256","internalType":"uint256"}],"stateMutability":"view"},{"type":"function","name":"stockLegendTemplates","inputs":[{"name":"","type":"uint256","internalType":"uint256"}],"outputs":[{"name":"id","type":"bytes16","internalType":"bytes16"}],"stateMutability":"view"},{"type":"function","name":"supportsInterface","inputs":[{"name":"interfaceId","type":"bytes4","internalType":"bytes4"}],"outputs":[{"name":"","type":"bool","internalType":"bool"}],"stateMutability":"view"},{"type":"function","name":"transactions","inputs":[{"name":"","type":"uint256","internalType":"uint256"}],"outputs":[{"name":"","type":"bytes","internalType":"bytes"}],"stateMutability":"view"},{"type":"function","name":"transferStock","inputs":[{"name":"params","type":"tuple","internalType":"struct StockTransferParams","components":[{"name":"transferor_stakeholder_id","type":"bytes16","internalType":"bytes16"},{"name":"transferee_stakeholder_id","type":"bytes16","internalType":"bytes16"},{"name":"stock_class_id","type":"bytes16","internalType":"bytes16"},{"name":"is_buyer_verified","type":"bool","internalType":"bool"},{"name":"quantity","type":"uint256","internalType":"uint256"},{"name":"share_price","type":"uint256","internalType":"uint256"},{"name":"nonce","type":"uint256","internalType":"uint256"},{"name":"custom_id","type":"string","internalType":"string"}]}],"outputs":[],"stateMutability":"nonpayable"},{"type":"function","name":"walletsPerStakeholder","inputs":[{"name":"","type":"address","internalType":"address"}],"outputs":[{"name":"","type":"bytes16","internalType":"bytes16"}],"stateMutability":"view"},{"type":"event","name":"DefaultAdminDelayChangeCanceled","inputs":[],"anonymous":false},{"type":"event","name":"DefaultAdminDelayChangeScheduled","inputs":[{"name":"newDelay","type":"uint48","indexed":false,"internalType":"uint48"},{"name":"effectSchedule","type":"uint48","indexed":false,"internalType":"uint48"}],"anonymous":false},{"type":"event","name":"DefaultAdminTransferCanceled","inputs":[],"anonymous":false},{"type":"event","name":"DefaultAdminTransferScheduled","inputs":[{"name":"newAdmin","type":"address","indexed":true,"internalType":"address"},{"name":"acceptSchedule","type":"uint48","indexed":false,"internalType":"uint48"}],"anonymous":false},{"type":"event","name":"Initialized","inputs":[{"name":"version","type":"uint8","indexed":false,"internalType":"uint8"}],"anonymous":false},{"type":"event","name":"IssuerCreated","inputs":[{"name":"id","type":"bytes16","indexed":true,"internalType":"bytes16"},{"name":"_name","type":"string","indexed":true,"internalType":"string"}],"anonymous":false},{"type":"event","name":"RoleAdminChanged","inputs":[{"name":"role","type":"bytes32","indexed":true,"internalType":"bytes32"},{"name":"previousAdminRole","type":"bytes32","indexed":true,"internalType":"bytes32"},{"name":"newAdminRole","type":"bytes32","indexed":true,"internalType":"bytes32"}],"anonymous":false},{"type":"event","name":"RoleGranted","inputs":[{"name":"role","type":"bytes32","indexed":true,"internalType":"bytes32"},{"name":"account","type":"address","indexed":true,"internalType":"address"},{"name":"sender","type":"address","indexed":true,"internalType":"address"}],"anonymous":false},{"type":"event","name":"RoleRevoked","inputs":[{"name":"role","type":"bytes32","indexed":true,"internalType":"bytes32"},{"name":"account","type":"address","indexed":true,"internalType":"address"},{"name":"sender","type":"address","indexed":true,"internalType":"address"}],"anonymous":false},{"type":"event","name":"StakeholderCreated","inputs":[{"name":"id","type":"bytes16","indexed":true,"internalType":"bytes16"}],"anonymous":false},{"type":"event","name":"StockClassCreated","inputs":[{"name":"id","type":"bytes16","indexed":true,"internalType":"bytes16"},{"name":"classType","type":"string","indexed":true,"internalType":"string"},{"name":"pricePerShare","type":"uint256","indexed":true,"internalType":"uint256"},{"name":"initialSharesAuthorized","type":"uint256","indexed":false,"internalType":"uint256"}],"anonymous":false},{"type":"error","name":"InsufficientIssuerSharesAuthorized","inputs":[]},{"type":"error","name":"InsufficientStockClassSharesAuthorized","inputs":[]},{"type":"error","name":"InvalidStockClass","inputs":[{"name":"stock_class_id","type":"bytes16","internalType":"bytes16"}]},{"type":"error","name":"InvalidWallet","inputs":[{"name":"wallet","type":"address","internalType":"address"}]},{"type":"error","name":"NoActivePositionFound","inputs":[]},{"type":"error","name":"NoIssuanceFound","inputs":[]},{"type":"error","name":"NoStakeholder","inputs":[{"name":"stakeholder_id","type":"bytes16","internalType":"bytes16"}]},{"type":"error","name":"StakeholderAlreadyExists","inputs":[{"name":"stakeholder_id","type":"bytes16","internalType":"bytes16"}]},{"type":"error","name":"StockClassAlreadyExists","inputs":[{"name":"stock_class_id","type":"bytes16","internalType":"bytes16"}]},{"type":"error","name":"StockClassDoesNotExist","inputs":[{"name":"stock_class_id","type":"bytes16","internalType":"bytes16"}]},{"type":"error","name":"WalletAlreadyExists","inputs":[{"name":"wallet","type":"address","internalType":"address"}]}],"bytecode":{"object":"0x60806040523480156200001157600080fd5b506200001c62000022565b620000e3565b600054610100900460ff16156200008f5760405162461bcd60e51b815260206004820152602760248201527f496e697469616c697a61626c653a20636f6e747261637420697320696e697469604482015266616c697a696e6760c81b606482015260840160405180910390fd5b60005460ff90811614620000e1576000805460ff191660ff9081179091556040519081527f7f26b83ff96e1f2b6a682f133852f6798a09c465da95921460cefb38474024989060200160405180910390a15b565b6156ec80620000f36000396000f3fe608060405234801561001057600080fd5b50600436106103995760003560e01c806375b238fc116101e9578063b6238cd11161010f578063cf6eefb7116100ad578063d95a6be51161007c578063d95a6be5146108c6578063efb87519146108d9578063f5b541a6146108ec578063f908b9491461090157600080fd5b8063cf6eefb71461086a578063d125ba8b14610898578063d547741f146108ab578063d602b9fd146108be57600080fd5b8063c93fed66116100e9578063c93fed6614610827578063c95f650e1461083a578063cc8463c81461085a578063cefc14291461086257600080fd5b8063b6238cd1146107de578063c1ad1d20146107f1578063c8acae861461080457600080fd5b80639870d7fe11610187578063a217fddf11610156578063a217fddf146107a7578063a9e9f32a146107af578063ac8a584a146107c2578063affed0e0146107d557600080fd5b80639870d7fe146107185780639ace38c21461072b578063a1eda53c1461074b578063a1fc81961461077257600080fd5b806384ef8ffc116101c357806384ef8ffc146106c55780638da5cb5b146106ea57806391d14854146106f2578063924a750e1461070557600080fd5b806375b238fc146106955780637799960d146106aa57806384266a7d146106bd57600080fd5b806336568abe116102ce578063578cb8f91161026c578063649a5ec71161023b578063649a5ec71461064757806369197f4d1461065a5780636924e4281461067a578063704802751461068257600080fd5b8063578cb8f91461057e578063634e93da1461058657806363aefa5a1461059957806363e71c4c1461062757600080fd5b80633e4106f3116102a85780633e4106f31461053d578063438fd5d8146105505780634afd58fa146105635780634d21af641461057657600080fd5b806336568abe14610504578063371dc885146105175780633cec69df1461052a57600080fd5b80631003d0981161033b5780631d6b8b72116103155780631d6b8b721461048b578063248a9ca3146104ad5780632629ac0f146104de5780632f2ff15d146104f157600080fd5b80631003d0981461044d5780631785f53c146104605780631d1438481461047357600080fd5b806307cd926d1161037757806307cd926d1461040a578063087480301461041f5780630aa6220b146104325780630c22d6bb1461043a57600080fd5b8063013f7f4f1461039e57806301ffc9a7146103cb578063022d63fb146103ee575b600080fd5b6103b16103ac366004614045565b610914565b6040516103c29594939291906140ae565b60405180910390f35b6103de6103d93660046140ee565b6109e3565b60405190151581526020016103c2565b620697805b60405165ffffffffffff90911681526020016103c2565b61041d610418366004614201565b610a0e565b005b61041d61042d366004614268565b610c2c565b61041d610e7c565b61041d6104483660046142d8565b610e92565b61041d61045b36600461439e565b610fda565b61041d61046e3660046143d9565b6111f4565b61047b611230565b6040516103c294939291906143f4565b61049e610499366004614045565b6112d8565b6040516103c29392919061442a565b6104d06104bb366004614045565b60009081526065602052604090206001015490565b6040519081526020016103c2565b61041d6104ec366004614469565b611423565b61041d6104ff36600461449c565b6114b1565b61041d61051236600461449c565b61152b565b6103b16105253660046144bf565b611615565b61041d6105383660046144da565b6117ba565b61041d61054b3660046145a7565b611973565b61041d61055e366004614615565b611abe565b61041d610571366004614659565b611cf8565b6104d0611e69565b60d0546104d0565b61041d6105943660046143d9565b611f4a565b6105f56105a73660046146b6565b6001600160801b0319918216600090815260d560209081526040808320939094168252919091522080546001820154600283015460039093015460809290921b9390929164ffffffffff1690565b604080516001600160801b0319909516855260208501939093529183015264ffffffffff1660608201526080016103c2565b61063a610635366004614045565b611f5e565b6040516103c291906146e0565b61041d6106553660046146f5565b611f82565b6104d06106683660046144bf565b60d26020526000908152604090205481565b60ce546104d0565b61041d6106903660046143d9565b611f96565b6104d06000805160206156cc83398151915281565b61041d6106b836600461471d565b611fd2565b60cd546104d0565b6098546001600160a01b03165b6040516001600160a01b0390911681526020016103c2565b6106d261211e565b6103de61070036600461449c565b612137565b61041d6107133660046147a4565b612162565b61041d6107263660046143d9565b612515565b61073e610739366004614045565b612551565b6040516103c291906148e1565b6107536125fd565b6040805165ffffffffffff9384168152929091166020830152016103c2565b6107856107803660046146b6565b612651565b60408051938452602084019290925264ffffffffff16908201526060016103c2565b6104d0600081565b61063a6107bd3660046143d9565b6127e3565b61041d6107d03660046143d9565b61286b565b6104d060d15481565b61041d6107ec3660046148f4565b6128a7565b61041d6107ff3660046144bf565b6129eb565b61063a6108123660046143d9565b60d46020526000908152604090205460801b81565b61041d610835366004614979565b612a6e565b6104d06108483660046144bf565b60d36020526000908152604090205481565b6103f3612c75565b61041d612cd4565b610872612d52565b604080516001600160a01b03909316835265ffffffffffff9091166020830152016103c2565b61041d6108a6366004614469565b612d73565b61041d6108b936600461449c565b612def565b61041d612e6c565b61041d6108d43660046149c6565b612e7f565b61041d6108e7366004614a39565b612fb5565b6104d06000805160206156ac83398151915281565b61049e61090f3660046144bf565b61316b565b60ce818154811061092457600080fd5b60009182526020909120600590910201805460018201805460809290921b93509061094e90614adb565b80601f016020809104026020016040519081016040528092919081815260200182805461097a90614adb565b80156109c75780601f1061099c576101008083540402835291602001916109c7565b820191906000526020600020905b8154815290600101906020018083116109aa57829003601f168201915b5050505050908060020154908060030154908060040154905085565b60006001600160e01b031982166318a4c3c360e11b1480610a085750610a0882613376565b92915050565b600054610100900460ff1615808015610a2e5750600054600160ff909116105b80610a485750303b158015610a48575060005460ff166001145b610ab05760405162461bcd60e51b815260206004820152602e60248201527f496e697469616c697a61626c653a20636f6e747261637420697320616c72656160448201526d191e481a5b9a5d1a585b1a5e995960921b60648201526084015b60405180910390fd5b6000805460ff191660011790558015610ad3576000805461ff0019166101001790555b610ade6000836133ab565b610af66000805160206156cc833981519152836133dc565b610b0e6000805160206156cc83398151915280613486565b610b346000805160206156ac8339815191526000805160206156cc833981519152613486565b60408051608080820183526001600160801b03198881168352602083018890526000938301939093526060820186905260c980549093169088901c1782559060ca610b7f8782614b55565b50604082810151600283015560609092015160039091015551610ba3908590614c14565b604051908190038120906001600160801b03198716907f4b48e41c82da2c71e453e939a4d95b4f760335e2e7e06f7f491433c330d729ac90600090a38015610c25576000805461ff0019169055604051600181527f7f26b83ff96e1f2b6a682f133852f6798a09c465da95921460cefb38474024989060200160405180910390a15b5050505050565b610c446000805160206156ac83398151915233612137565b80610c525750610c526134f6565b610c6e5760405162461bcd60e51b8152600401610aa790614c30565b610c88610c836101a0830161018084016144bf565b613510565b610c9d610c9860208301836144bf565b61354b565b600060ce600160d383610cb360208701876144bf565b6001600160801b0319168152602081019190915260400160002054610cd89190614c7d565b81548110610ce857610ce8614c90565b9060005260206000209060050201905060c9600301548260a0013560c960020154610d139190614ca6565b1115610d705760405162461bcd60e51b815260206004820152602660248201527f4973737565723a20496e73756666696369656e742073686172657320617574686044820152651bdc9a5e995960d21b6064820152608401610aa7565b80600401548260a001358260030154610d899190614ca6565b1115610dea5760405162461bcd60e51b815260206004820152602a60248201527f53746f636b436c6173733a20496e73756666696369656e742073686172657320604482015269185d5d1a1bdc9a5e995960b21b6064820152608401610aa7565b60d18054906000610dfa83614cb9565b909155505060d1546040516315d8e5e760e31b815273__$099b2b4dcca745b6363fe801534306d3af$__9163aec72f3891610e489190869060d59060d69060d09060c9908a90600401614e2d565b60006040518083038186803b158015610e6057600080fd5b505af4158015610e74573d6000803e3d6000fd5b505050505050565b6000610e8781613586565b610e8f613590565b50565b610eaa6000805160206156ac83398151915233612137565b80610eb85750610eb86134f6565b610ed45760405162461bcd60e51b8152600401610aa790614c30565b610ee4610c8360208401846144bf565b610ef7610c9860408401602085016144bf565b610f1d81610f0860208501856144bf565b610f1860408601602087016144bf565b61359d565b60d18054906000610f2d83614cb9565b919050555073__$099b2b4dcca745b6363fe801534306d3af$__63b5aa02f08360d1548460d560d660d060c960ce600160d360008e6020016020810190610f7491906144bf565b6001600160801b0319168152602081019190915260400160002054610f999190614c7d565b81548110610fa957610fa9614c90565b90600052602060002090600502016040518963ffffffff1660e01b8152600401610e489897969594939291906150e5565b610ff26000805160206156ac83398151915233612137565b8061100057506110006134f6565b61101c5760405162461bcd60e51b8152600401610aa790614c30565b61102c610c8360208301836144bf565b61103f610c8360408301602084016144bf565b611052610c9860608301604084016144bf565b60d1805490600061106283614cb9565b90915550506040805161010081019091526000908061108460208501856144bf565b6001600160801b03191681526020018360200160208101906110a691906144bf565b6001600160801b03191681526020016110c560608501604086016144bf565b6001600160801b03191681526020016110e46080850160608601615170565b15158152608080850135602083015260a0850135604083015260d15460608301520161111360e0850185615192565b8080601f0160208091040260200160405190810160405280939291908181526020018383808284376000920182905250939094525092935073__$099b2b4dcca745b6363fe801534306d3af$__925063fbe4f4b89150839060d59060d69060d09060c99060ce9060019060d39061119060608e0160408f016144bf565b6001600160801b03191681526020810191909152604001600020546111b59190614c7d565b815481106111c5576111c5614c90565b90600052602060002090600502016040518763ffffffff1660e01b8152600401610e48969594939291906151d8565b6111fc6134f6565b6112185760405162461bcd60e51b8152600401610aa790615290565b610e8f6000805160206156cc8339815191528261367a565b60c9805460ca805460809290921b929161124990614adb565b80601f016020809104026020016040519081016040528092919081815260200182805461127590614adb565b80156112c25780601f10611297576101008083540402835291602001916112c2565b820191906000526020600020905b8154815290600101906020018083116112a557829003601f168201915b5050505050908060020154908060030154905084565b60cd81815481106112e857600080fd5b60009182526020909120600390910201805460018201805460809290921b93509061131290614adb565b80601f016020809104026020016040519081016040528092919081815260200182805461133e90614adb565b801561138b5780601f106113605761010080835404028352916020019161138b565b820191906000526020600020905b81548152906001019060200180831161136e57829003601f168201915b5050505050908060020180546113a090614adb565b80601f01602080910402602001604051908101604052809291908181526020018280546113cc90614adb565b80156114195780601f106113ee57610100808354040283529160200191611419565b820191906000526020600020905b8154815290600101906020018083116113fc57829003601f168201915b5050505050905083565b61143b6000805160206156ac83398151915233612137565b8061144957506114496134f6565b6114655760405162461bcd60e51b8152600401610aa790614c30565b61146e816136b5565b61147782613510565b611480816136e7565b6001600160a01b0316600090815260d46020526040902080546001600160801b03191660809290921c919091179055565b8161151d5760405162461bcd60e51b815260206004820152603660248201527f416363657373436f6e74726f6c3a2063616e2774206469726563746c79206772604482015275616e742064656661756c742061646d696e20726f6c6560501b6064820152608401610aa7565b6115278282613736565b5050565b8115801561154657506098546001600160a01b038281169116145b1561160b57600080611556612d52565b90925090506001600160a01b038216158015611579575065ffffffffffff811615155b801561158c57504265ffffffffffff8216105b6115f65760405162461bcd60e51b815260206004820152603560248201527f416363657373436f6e74726f6c3a206f6e6c792063616e2072656e6f756e636560448201527420696e2074776f2064656c6179656420737465707360581b6064820152608401610aa7565b50506097805465ffffffffffff60a01b191690555b6115278282613760565b6001600160801b03198116600090815260d3602052604081205460609082908190819015611795576001600160801b03198616600090815260d3602052604081205460ce9061166690600190614c7d565b8154811061167657611676614c90565b90600052602060002090600502016040518060a00160405290816000820160009054906101000a900460801b6001600160801b0319166001600160801b03191681526020016001820180546116ca90614adb565b80601f01602080910402602001604051908101604052809291908181526020018280546116f690614adb565b80156117435780601f1061171857610100808354040283529160200191611743565b820191906000526020600020905b81548152906001019060200180831161172657829003601f168201915b50505050508152602001600282015481526020016003820154815260200160048201548152505090508060000151816020015182604001518360600151846080015195509550955095509550506117b1565b5050604080516020810190915260008082529350915082905080805b91939590929450565b8035158015906117cd5750602081013515155b80156117e7575060006117e360408301836152c7565b9050115b6118335760405162461bcd60e51b815260206004820152601d60248201527f496e76616c69642053656564696e672053686172657320506172616d730000006044820152606401610aa7565b803560cc55602081013560cb5560005b61185060408301836152c7565b905081101561152757600061186860408401846152c7565b8381811061187857611878614c90565b61188e92602060609092020190810191506144bf565b90506118998161354b565b6001600160801b03198116600090815260d360205260408120546118bf90600190614c7d565b90506118ce60408501856152c7565b848181106118de576118de614c90565b9050606002016020013560ce82815481106118fb576118fb614c90565b600091825260209091206004600590920201015561191c60408501856152c7565b8481811061192c5761192c614c90565b9050606002016040013560ce828154811061194957611949614c90565b9060005260206000209060050201600301819055505050808061196b90614cb9565b915050611843565b61198b6000805160206156ac83398151915233612137565b8061199957506119996134f6565b6119b55760405162461bcd60e51b8152600401610aa790614c30565b6119be84613510565b6119c78361354b565b60d180549060006119d783614cb9565b90915550506001600160801b0319808516600090815260d56020908152604080832086851684528252918290208251608080820185528254901b90941684526001810154918401919091526002810154918301919091526003015464ffffffffff166060820152611a47816137da565b60d15460405163a453f4bf60e01b815273__$099b2b4dcca745b6363fe801534306d3af$__9163a453f4bf91611a8791908790879060d090600401615357565b60006040518083038186803b158015611a9f57600080fd5b505af4158015611ab3573d6000803e3d6000fd5b505050505050505050565b611ad66000805160206156ac83398151915233612137565b80611ae45750611ae46134f6565b611b005760405162461bcd60e51b8152600401610aa790614c30565b611b10610c8360208401846144bf565b611b23610c9860408401602085016144bf565b60d18054906000611b3383614cb9565b90915550506040805160e08101825260d15481526020808201849052600092820190611b61908601866144bf565b6001600160801b0319168152602001846020016020810190611b8391906144bf565b6001600160801b0319168152602001611ba260608601604087016144bf565b6001600160801b0319168152602001611bbe6060860186615391565b611bc7916153da565b8152602001611bd96080860186615192565b8080601f016020809104026020016040519081016040528093929190818152602001838380828437600081840152601f19601f82011690508083019250505050505050815250905073__$099b2b4dcca745b6363fe801534306d3af$__63fc431cee8260d560d660d060c960ce600160d360008d6020016020810190611c5f91906144bf565b6001600160801b0319168152602081019190915260400160002054611c849190614c7d565b81548110611c9457611c94614c90565b90600052602060002090600502016040518763ffffffff1660e01b8152600401611cc396959493929190615462565b60006040518083038186803b158015611cdb57600080fd5b505af4158015611cef573d6000803e3d6000fd5b50505050505050565b611d006134f6565b611d1c5760405162461bcd60e51b8152600401610aa790615290565b611d25846137ff565b6040805160a0810182526001600160801b0319868116825260208201868152928201859052600060608301819052608080840186905260ce8054600181018255925283517fd36cd1c74ef8d7326d8021b776c18fb5a5724b7f7bc93c2f42e43e10ef27d12a60059093029283018054909416911c1782559251919290917fd36cd1c74ef8d7326d8021b776c18fb5a5724b7f7bc93c2f42e43e10ef27d12b90910190611dd19082614b55565b5060408281015160028301556060830151600383015560809092015160049091015560ce546001600160801b03198616600090815260d360205282902055518290611e1d908590614c14565b604051908190038120838252906001600160801b03198716907fc7496d70298fcc793e1d058617af680232585e302f0185b14bba498b247a9c1d9060200160405180910390a450505050565b600080805b60cd54811015611f445760005b60ce54811015611f315760d6600001600060cd8481548110611e9f57611e9f614c90565b600091825260208083206003929092029091015460801b6001600160801b0319168352820192909252604001812060ce805491929184908110611ee457611ee4614c90565b600091825260208083206005929092029091015460801b6001600160801b0319168352820192909252604001902054611f1d9084614ca6565b925080611f2981614cb9565b915050611e7b565b5080611f3c81614cb9565b915050611e6e565b50919050565b6000611f5581613586565b61152782613839565b60cf8181548110611f6e57600080fd5b60009182526020909120015460801b905081565b6000611f8d81613586565b611527826138ac565b611f9e6134f6565b611fba5760405162461bcd60e51b8152600401610aa790615290565b610e8f6000805160206156cc833981519152826133dc565b611fea6000805160206156ac83398151915233612137565b80611ff85750611ff86134f6565b6120145760405162461bcd60e51b8152600401610aa790614c30565b612024610c8360208301836144bf565b612037610c9860408301602084016144bf565b60d1805490600061204783614cb9565b919050555073__$099b2b4dcca745b6363fe801534306d3af$__63e713a5a98260d15460d560d660d060c960ce600160d360008c602001602081019061208d91906144bf565b6001600160801b03191681526020810191909152604001600020546120b29190614c7d565b815481106120c2576120c2614c90565b90600052602060002090600502016040518863ffffffff1660e01b81526004016120f2979695949392919061549e565b60006040518083038186803b15801561210a57600080fd5b505af4158015610c25573d6000803e3d6000fd5b60006121326098546001600160a01b031690565b905090565b60009182526065602090815260408084206001600160a01b0393909316845291905290205460ff1690565b61216a6134f6565b6121865760405162461bcd60e51b8152600401610aa790615290565b8a8914801561219457508887145b801561219f57508685145b80156121aa57508483145b80156121b557508281145b6122105760405162461bcd60e51b815260206004820152602660248201527f496e70757420617272617973206d7573742068617665207468652073616d65206044820152650d8cadccee8d60d31b6064820152608401610aa7565b60005b8b811015612506576122458d8d8381811061223057612230614c90565b9050602002016020810190610c8391906144bf565b61226f89898381811061225a5761225a614c90565b9050602002016020810190610c9891906144bf565b60405180608001604052808a8a8481811061228c5761228c614c90565b90506020020160208101906122a191906144bf565b6001600160801b03191681526020018888848181106122c2576122c2614c90565b9050602002013581526020018686848181106122e0576122e0614c90565b9050602002013581526020018484848181106122fe576122fe614c90565b905060200201602081019061231391906154e2565b64ffffffffff16905260d560008f8f8581811061233257612332614c90565b905060200201602081019061234791906144bf565b6001600160801b0319166001600160801b031916815260200190815260200160002060008d8d8581811061237d5761237d614c90565b905060200201602081019061239291906144bf565b6001600160801b03199081168252602080830193909352604091820160009081208551815490931660809390931c9290921782559284015160018201559083015160028201556060909201516003909201805464ffffffffff191664ffffffffff9093169290921790915560d6908e8e8481811061241257612412614c90565b905060200201602081019061242791906144bf565b6001600160801b0319166001600160801b031916815260200190815260200160002060008a8a8481811061245d5761245d614c90565b905060200201602081019061247291906144bf565b6001600160801b031916815260208101919091526040016000208b8b8381811061249e5761249e614c90565b90506020020160208101906124b391906144bf565b81546001808201845560009384526020909320600282040180546001600160801b03949092166010026101000a9384021990911660809290921c92909202179055806124fe81614cb9565b915050612213565b50505050505050505050505050565b61251d6134f6565b6125395760405162461bcd60e51b8152600401610aa790615290565b610e8f6000805160206156ac833981519152826133dc565b60d0818154811061256157600080fd5b90600052602060002001600091509050805461257c90614adb565b80601f01602080910402602001604051908101604052809291908181526020018280546125a890614adb565b80156125f55780601f106125ca576101008083540402835291602001916125f5565b820191906000526020600020905b8154815290600101906020018083116125d857829003601f168201915b505050505081565b609854600090600160d01b900465ffffffffffff16801515801561262957504265ffffffffffff821610155b61263557600080612649565b609854600160a01b900465ffffffffffff16815b915091509091565b6001600160801b0319808316600090815260d66020908152604080832093851683529281528282208054845181840281018401909552808552929384938493849391908301828280156126f057602002820191906000526020600020906000905b82829054906101000a900460801b6001600160801b03191681526020019060100190602082600f010492830192600103820291508084116126b25790505b505050505090506000806000805b84518110156127d3576001600160801b03198a16600090815260d5602052604081208651829088908590811061273657612736614c90565b60200260200101516001600160801b0319166001600160801b03191681526020019081526020016000209050806002015481600101546127769190615509565b6127809086614ca6565b94508060010154846127929190614ca6565b600382015490945064ffffffffff8085169116116127b057826127bd565b600381015464ffffffffff165b92505080806127cb90614cb9565b9150506126fe565b5091955093509150509250925092565b6001600160a01b038116600090815260d4602052604081205460801b6001600160801b03191661284c5760405162461bcd60e51b8152602060048201526014602482015273139bc81cdd185ad95a1bdb19195c88199bdd5b9960621b6044820152606401610aa7565b506001600160a01b0316600090815260d4602052604090205460801b90565b6128736134f6565b61288f5760405162461bcd60e51b8152600401610aa790615290565b610e8f6000805160206156ac8339815191528261367a565b6128af6134f6565b6128cb5760405162461bcd60e51b8152600401610aa790615290565b60cb548410156129595760405162461bcd60e51b815260206004820152604d60248201527f496e73756666696369656e74497373756572536861726573417574686f72697a60448201527f65643a207368617265735f6973737565642065786365656473206e657753686160648201526c1c995cd05d5d1a1bdc9a5e9959609a1b608482015260a401610aa7565b60d1805490600061296983614cb9565b909155505060d15460405163721ef53960e01b815273__$c1299ed9651e866ee22f0392da2a89ff35$__9163721ef539916129b59190889088908890889060c99060d090600401615520565b60006040518083038186803b1580156129cd57600080fd5b505af41580156129e1573d6000803e3d6000fd5b5050505050505050565b6129f36134f6565b612a0f5760405162461bcd60e51b8152600401610aa790615290565b60408051602081019091526001600160801b0319918216815260cf805460018101825560009190915290517facb8d954e2cfef495862221e91bd7523613cf8808827cb33edfe4904cc51bf29909101805490921660809190911c179055565b612a866000805160206156ac83398151915233612137565b80612a945750612a946134f6565b612ab05760405162461bcd60e51b8152600401610aa790614c30565b612ac0610c8360208501856144bf565b612ad3610c9860408501602086016144bf565b60d18054906000612ae383614cb9565b90915550506040805160e08101825260d15481526020808201859052600092820190612b11908701876144bf565b6001600160801b0319168152602001856020016020810190612b3391906144bf565b6001600160801b0319168152602001612b5260608701604088016144bf565b6001600160801b0319168152602001612b6e6060870187615391565b612b77916153da565b8152602001612b896080870187615192565b8080601f016020809104026020016040519081016040528093929190818152602001838380828437600081840152601f19601f82011690508083019250505050505050815250905073__$099b2b4dcca745b6363fe801534306d3af$__63c028a48e828460d560d660d060c960ce600160d360008f6020016020810190612c1091906144bf565b6001600160801b0319168152602081019190915260400160002054612c359190614c7d565b81548110612c4557612c45614c90565b90600052602060002090600502016040518863ffffffff1660e01b81526004016129b5979695949392919061557c565b609854600090600160d01b900465ffffffffffff168015158015612ca057504265ffffffffffff8216105b612cbb57609754600160d01b900465ffffffffffff16612cce565b609854600160a01b900465ffffffffffff165b91505090565b6000612cde612d52565b509050336001600160a01b03821614612d4a5760405162461bcd60e51b815260206004820152602860248201527f416363657373436f6e74726f6c3a2070656e64696e672061646d696e206d75736044820152671d081858d8d95c1d60c21b6064820152608401610aa7565b610e8f61391c565b6097546001600160a01b03811691600160a01b90910465ffffffffffff1690565b612d8b6000805160206156ac83398151915233612137565b80612d995750612d996134f6565b612db55760405162461bcd60e51b8152600401610aa790614c30565b612dbe816136b5565b612dc782613510565b6001600160a01b0316600090815260d46020526040902080546001600160801b031916905550565b81612e625760405162461bcd60e51b815260206004820152603760248201527f416363657373436f6e74726f6c3a2063616e2774206469726563746c7920726560448201527f766f6b652064656661756c742061646d696e20726f6c650000000000000000006064820152608401610aa7565b61152782826139e7565b6000612e7781613586565b610e8f613a0c565b612e876134f6565b612ea35760405162461bcd60e51b8152600401610aa790615290565b612eac83613a17565b604080516060810182526001600160801b031985811682526020820185815292820184905260cd805460018101825560009190915282517f83978b4c69c48dd978ab43fe30f077615294f938fb7f936d9eb340e51ea7db2e6003909202918201805490931660809190911c1782559251919290917f83978b4c69c48dd978ab43fe30f077615294f938fb7f936d9eb340e51ea7db2f90910190612f4f9082614b55565b5060408201516002820190612f649082614b55565b505060cd546001600160801b03198516600081815260d260205260408082209390935591519092507f53df47344d1cdf2ddb4901af5df61e37e14606bb7c8cc004d65c7c83ab3d06939190a2505050565b612fbd6134f6565b612fd95760405162461bcd60e51b8152600401610aa790615290565b6001600160801b03198516600090815260d3602052604081205460ce9061300290600190614c7d565b8154811061301257613012614c90565b9060005260206000209060050201905061302b8661354b565b60cc548511156130d85760405162461bcd60e51b815260206004820152606660248201527f496e73756666696369656e7453746f636b436c6173735368617265734175746860448201527f6f72697a65643a2073746f636b20636c61737320617574686f72697a6564207360648201527f68617265732065786365656473206973737565722073686172657320617574686084820152651bdc9a5e995960d21b60a482015260c401610aa7565b60d180549060006130e883614cb9565b909155505060d154604051636f2ce39d60e11b815273__$c1299ed9651e866ee22f0392da2a89ff35$__9163de59c73a9161313391908990899089908990899060d090600401615520565b60006040518083038186803b15801561314b57600080fd5b505af415801561315f573d6000803e3d6000fd5b50505050505050505050565b6001600160801b03198116600090815260d2602052604081205460609081901561334d576001600160801b03198416600090815260d2602052604081205460cd906131b890600190614c7d565b815481106131c8576131c8614c90565b90600052602060002090600302016040518060600160405290816000820160009054906101000a900460801b6001600160801b0319166001600160801b031916815260200160018201805461321c90614adb565b80601f016020809104026020016040519081016040528092919081815260200182805461324890614adb565b80156132955780601f1061326a57610100808354040283529160200191613295565b820191906000526020600020905b81548152906001019060200180831161327857829003601f168201915b505050505081526020016002820180546132ae90614adb565b80601f01602080910402602001604051908101604052809291908181526020018280546132da90614adb565b80156133275780601f106132fc57610100808354040283529160200191613327565b820191906000526020600020905b81548152906001019060200180831161330a57829003601f168201915b50505050508152505090508060000151816020015182604001519350935093505061336f565b5050604080516020808201835260008083528351918201909352828152919250905b9193909250565b60006001600160e01b03198216637965db0b60e01b1480610a0857506301ffc9a760e01b6001600160e01b0319831614610a08565b600054610100900460ff166133d25760405162461bcd60e51b8152600401610aa79061558f565b6115278282613a51565b8161347c5760006133f56098546001600160a01b031690565b6001600160a01b0316146134605760405162461bcd60e51b815260206004820152602c60248201527f416363657373436f6e74726f6c3a2064656661756c742061646d696e20616c7260448201526b1958591e4819dc985b9d195960a21b6064820152608401610aa7565b609880546001600160a01b0319166001600160a01b0383161790555b6115278282613af8565b816134ec5760405162461bcd60e51b815260206004820152603060248201527f416363657373436f6e74726f6c3a2063616e27742076696f6c6174652064656660448201526f61756c742061646d696e2072756c657360801b6064820152608401610aa7565b6115278282613b7e565b60006121326000805160206156cc83398151915233612137565b6001600160801b03198116600090815260d260205260408120549003610e8f578060405163b4586dfb60e01b8152600401610aa791906146e0565b6001600160801b03198116600090815260d360205260408120549003610e8f5780604051630b2b152360e21b8152600401610aa791906146e0565b610e8f8133613bc9565b61359b600080613c22565b565b82516000036135bf576040516309ef2e0760e01b815260040160405180910390fd5b6000836000815181106135d4576135d4614c90565b6020908102919091018101516001600160801b0319808616600090815260d58452604080822083851683528552908190208151608080820184528254901b909316835260018101549483018590526002810154918301919091526003015464ffffffffff16606082015290925090158061365c575080516001600160801b0319848116911614155b15610c2557604051632b2eaacf60e21b815260040160405180910390fd5b8115801561369557506098546001600160a01b038281169116145b156136ab57609880546001600160a01b03191690555b6115278282613ce2565b6001600160a01b038116610e8f57604051633146914d60e11b81526001600160a01b0382166004820152602401610aa7565b6001600160a01b038116600090815260d4602052604090205460801b6001600160801b03191615610e8f57604051633c4d084f60e11b81526001600160a01b0382166004820152602401610aa7565b60008281526065602052604090206001015461375181613586565b61375b83836133dc565b505050565b6001600160a01b03811633146137d05760405162461bcd60e51b815260206004820152602f60248201527f416363657373436f6e74726f6c3a2063616e206f6e6c792072656e6f756e636560448201526e103937b632b9903337b91039b2b63360891b6064820152608401610aa7565b611527828261367a565b8060200151600003610e8f57604051632b2eaacf60e21b815260040160405180910390fd5b6001600160801b03198116600090815260d3602052604090205415610e8f5780604051631339dd8760e21b8152600401610aa791906146e0565b6000613843612c75565b61384c42613d49565b61385691906155da565b90506138628282613db4565b60405165ffffffffffff821681526001600160a01b038316907f3377dc44241e779dd06afab5b788a35ca5f3b778836e2990bdb26a2a4b2e5ed69060200160405180910390a25050565b60006138b782613e33565b6138c042613d49565b6138ca91906155da565b90506138d68282613c22565b6040805165ffffffffffff8085168252831660208201527ff1038c18cf84a56e432fdbfaf746924b7ea511dfe03a6506a0ceba4888788d9b910160405180910390a15050565b600080613927612d52565b9150915061393c8165ffffffffffff16151590565b801561394f57504265ffffffffffff8216105b6139ac5760405162461bcd60e51b815260206004820152602860248201527f416363657373436f6e74726f6c3a207472616e736665722064656c6179206e6f6044820152671d081c185cdcd95960c21b6064820152608401610aa7565b6139c860006139c36098546001600160a01b031690565b61367a565b6139d36000836133dc565b5050609780546001600160d01b0319169055565b600082815260656020526040902060010154613a0281613586565b61375b838361367a565b61359b600080613db4565b6001600160801b03198116600090815260d2602052604090205415610e8f57806040516333270c6160e01b8152600401610aa791906146e0565b600054610100900460ff16613a785760405162461bcd60e51b8152600401610aa79061558f565b6001600160a01b038116613ace5760405162461bcd60e51b815260206004820152601e60248201527f416363657373436f6e74726f6c3a20302064656661756c742061646d696e00006044820152606401610aa7565b609780546001600160d01b0316600160d01b65ffffffffffff8516021790556115276000826133dc565b613b028282612137565b6115275760008281526065602090815260408083206001600160a01b03851684529091529020805460ff19166001179055613b3a3390565b6001600160a01b0316816001600160a01b0316837f2f8788117e7eff1d82e926ec794901d17c78024a50270940304540a733656f0d60405160405180910390a45050565b600082815260656020526040808220600101805490849055905190918391839186917fbd79b86ffe0ab8e8776151514217cd7cacd52c909f66475c3af44e129f0b00ff9190a4505050565b613bd38282612137565b61152757613be081613e82565b613beb836020613e94565b604051602001613bfc929190615600565b60408051601f198184030181529082905262461bcd60e51b8252610aa7916004016148e1565b609854600160d01b900465ffffffffffff168015613ca5574265ffffffffffff82161015613c7b57609854609780546001600160d01b0316600160a01b90920465ffffffffffff16600160d01b02919091179055613ca5565b6040517f2b1fa2edafe6f7b9e97c1a9e0c3660e645beb2dcaa2d45bdbf9beaf5472e1ec590600090a15b50609880546001600160a01b0316600160a01b65ffffffffffff948516026001600160d01b031617600160d01b9290931691909102919091179055565b613cec8282612137565b156115275760008281526065602090815260408083206001600160a01b0385168085529252808320805460ff1916905551339285917ff6391f5c32d9c69d2a47ea670b442974b53935d1edc7fd64eb21e047a839171b9190a45050565b600065ffffffffffff821115613db05760405162461bcd60e51b815260206004820152602660248201527f53616665436173743a2076616c756520646f65736e27742066697420696e203460448201526538206269747360d01b6064820152608401610aa7565b5090565b6000613dbe612d52565b6097805465ffffffffffff8616600160a01b026001600160d01b03199091166001600160a01b038816171790559150613e0090508165ffffffffffff16151590565b1561375b576040517f8886ebfc4259abdbc16601dd8fb5678e54878f47b3c34836cfc51154a960510990600090a1505050565b600080613e3e612c75565b90508065ffffffffffff168365ffffffffffff1611613e6657613e618382615675565b613e7b565b613e7b65ffffffffffff84166206978061402f565b9392505050565b6060610a086001600160a01b03831660145b60606000613ea3836002615509565b613eae906002614ca6565b6001600160401b03811115613ec557613ec5614135565b6040519080825280601f01601f191660200182016040528015613eef576020820181803683370190505b509050600360fc1b81600081518110613f0a57613f0a614c90565b60200101906001600160f81b031916908160001a905350600f60fb1b81600181518110613f3957613f39614c90565b60200101906001600160f81b031916908160001a9053506000613f5d846002615509565b613f68906001614ca6565b90505b6001811115613fe0576f181899199a1a9b1b9c1cb0b131b232b360811b85600f1660108110613f9c57613f9c614c90565b1a60f81b828281518110613fb257613fb2614c90565b60200101906001600160f81b031916908160001a90535060049490941c93613fd981615694565b9050613f6b565b508315613e7b5760405162461bcd60e51b815260206004820181905260248201527f537472696e67733a20686578206c656e67746820696e73756666696369656e746044820152606401610aa7565b600081831061403e5781613e7b565b5090919050565b60006020828403121561405757600080fd5b5035919050565b60005b83811015614079578181015183820152602001614061565b50506000910152565b6000815180845261409a81602086016020860161405e565b601f01601f19169290920160200192915050565b6001600160801b03198616815260a0602082015260006140d160a0830187614082565b604083019590955250606081019290925260809091015292915050565b60006020828403121561410057600080fd5b81356001600160e01b031981168114613e7b57600080fd5b80356001600160801b03198116811461413057600080fd5b919050565b634e487b7160e01b600052604160045260246000fd5b604051601f8201601f191681016001600160401b038111828210171561417357614173614135565b604052919050565b600082601f83011261418c57600080fd5b81356001600160401b038111156141a5576141a5614135565b6141b8601f8201601f191660200161414b565b8181528460208386010111156141cd57600080fd5b816020850160208301376000918101602001919091529392505050565b80356001600160a01b038116811461413057600080fd5b6000806000806080858703121561421757600080fd5b61422085614118565b935060208501356001600160401b0381111561423b57600080fd5b6142478782880161417b565b9350506040850135915061425d606086016141ea565b905092959194509250565b60006020828403121561427a57600080fd5b81356001600160401b0381111561429057600080fd5b82016102208185031215613e7b57600080fd5b600060a08284031215611f4457600080fd5b60006001600160401b038211156142ce576142ce614135565b5060051b60200190565b600080604083850312156142eb57600080fd5b82356001600160401b038082111561430257600080fd5b61430e868387016142a3565b935060209150818501358181111561432557600080fd5b85019050601f8101861361433857600080fd5b803561434b614346826142b5565b61414b565b81815260059190911b8201830190838101908883111561436a57600080fd5b928401925b8284101561438f5761438084614118565b8252928401929084019061436f565b80955050505050509250929050565b6000602082840312156143b057600080fd5b81356001600160401b038111156143c657600080fd5b82016101008185031215613e7b57600080fd5b6000602082840312156143eb57600080fd5b613e7b826141ea565b6001600160801b0319851681526080602082015260006144176080830186614082565b6040830194909452506060015292915050565b6001600160801b03198416815260606020820152600061444d6060830185614082565b828103604084015261445f8185614082565b9695505050505050565b6000806040838503121561447c57600080fd5b61448583614118565b9150614493602084016141ea565b90509250929050565b600080604083850312156144af57600080fd5b82359150614493602084016141ea565b6000602082840312156144d157600080fd5b613e7b82614118565b6000602082840312156144ec57600080fd5b81356001600160401b0381111561450257600080fd5b820160608185031215613e7b57600080fd5b6000614522614346846142b5565b8381529050602080820190600585901b84018681111561454157600080fd5b845b8181101561457c5780356001600160401b038111156145625760008081fd5b61456e8982890161417b565b855250928201928201614543565b505050509392505050565b600082601f83011261459857600080fd5b613e7b83833560208501614514565b600080600080608085870312156145bd57600080fd5b6145c685614118565b93506145d460208601614118565b92506145e260408601614118565b915060608501356001600160401b038111156145fd57600080fd5b61460987828801614587565b91505092959194509250565b6000806040838503121561462857600080fd5b82356001600160401b0381111561463e57600080fd5b61464a858286016142a3565b95602094909401359450505050565b6000806000806080858703121561466f57600080fd5b61467885614118565b935060208501356001600160401b0381111561469357600080fd5b61469f8782880161417b565b949794965050505060408301359260600135919050565b600080604083850312156146c957600080fd5b6146d283614118565b915061449360208401614118565b6001600160801b031991909116815260200190565b60006020828403121561470757600080fd5b813565ffffffffffff81168114613e7b57600080fd5b60006020828403121561472f57600080fd5b81356001600160401b0381111561474557600080fd5b614751848285016142a3565b949350505050565b60008083601f84011261476b57600080fd5b5081356001600160401b0381111561478257600080fd5b6020830191508360208260051b850101111561479d57600080fd5b9250929050565b60008060008060008060008060008060008060c08d8f0312156147c657600080fd5b6001600160401b038d3511156147db57600080fd5b6147e88e8e358f01614759565b909c509a506001600160401b0360208e0135111561480557600080fd5b6148158e60208f01358f01614759565b909a5098506001600160401b0360408e0135111561483257600080fd5b6148428e60408f01358f01614759565b90985096506001600160401b0360608e0135111561485f57600080fd5b61486f8e60608f01358f01614759565b90965094506001600160401b0360808e0135111561488c57600080fd5b61489c8e60808f01358f01614759565b90945092506001600160401b0360a08e013511156148b957600080fd5b6148c98e60a08f01358f01614759565b81935080925050509295989b509295989b509295989b565b602081526000613e7b6020830184614082565b6000806000806080858703121561490a57600080fd5b8435935060208501356001600160401b038082111561492857600080fd5b61493488838901614587565b9450604087013591508082111561494a57600080fd5b6149568883890161417b565b9350606087013591508082111561496c57600080fd5b506146098782880161417b565b60008060006060848603121561498e57600080fd5b83356001600160401b038111156149a457600080fd5b6149b0868287016142a3565b9660208601359650604090950135949350505050565b6000806000606084860312156149db57600080fd5b6149e484614118565b925060208401356001600160401b0380821115614a0057600080fd5b614a0c8783880161417b565b93506040860135915080821115614a2257600080fd5b50614a2f8682870161417b565b9150509250925092565b600080600080600060a08688031215614a5157600080fd5b614a5a86614118565b94506020860135935060408601356001600160401b0380821115614a7d57600080fd5b614a8989838a01614587565b94506060880135915080821115614a9f57600080fd5b614aab89838a0161417b565b93506080880135915080821115614ac157600080fd5b50614ace8882890161417b565b9150509295509295909350565b600181811c90821680614aef57607f821691505b602082108103611f4457634e487b7160e01b600052602260045260246000fd5b601f82111561375b57600081815260208120601f850160051c81016020861015614b365750805b601f850160051c820191505b81811015610e7457828155600101614b42565b81516001600160401b03811115614b6e57614b6e614135565b614b8281614b7c8454614adb565b84614b0f565b602080601f831160018114614bb75760008415614b9f5750858301515b600019600386901b1c1916600185901b178555610e74565b600085815260208120601f198616915b82811015614be657888601518255948401946001909101908401614bc7565b5085821015614c045787850151600019600388901b60f8161c191681555b5050505050600190811b01905550565b60008251614c2681846020870161405e565b9190910192915050565b6020808252601b908201527f446f6573206e6f742068617665206f70657261746f7220726f6c650000000000604082015260600190565b634e487b7160e01b600052601160045260246000fd5b81810381811115610a0857610a08614c67565b634e487b7160e01b600052603260045260246000fd5b80820180821115610a0857610a08614c67565b600060018201614ccb57614ccb614c67565b5060010190565b6000808335601e19843603018112614ce957600080fd5b83016020810192503590506001600160401b03811115614d0857600080fd5b8060051b360382131561479d57600080fd5b8183526000602080850194508260005b85811015614d57576001600160801b0319614d4483614118565b1687529582019590820190600101614d2a565b509495945050505050565b6000808335601e19843603018112614d7957600080fd5b83016020810192503590506001600160401b03811115614d9857600080fd5b80360382131561479d57600080fd5b81835281816020850137506000828201602090810191909152601f909101601f19169091010190565b81835260006020808501808196508560051b810191508460005b87811015614e20578284038952614e018288614d62565b614e0c868284614da7565b9a87019a9550505090840190600101614dea565b5091979650505050505050565b87815260e06020820152614e5560e08201614e4789614118565b6001600160801b0319169052565b6000614e6360208901614118565b6001600160801b03191661010083015260408801356101208301526060880135610140830152608088013561016083015260a0880135610180830152614eab60c08901614118565b6001600160801b0319166101a083015260e08801356101c0830152614ed4610100890189614cd2565b6101e061022081860152614eed61030086018385614d1a565b9250614efd6101208c018c614d62565b925060df19610200818887030181890152614f19868685614da7565b9550614f296101408f018f614cd2565b955092508188870301610220890152614f43868685614dd0565b9550614f536101608f018f614d62565b955092508188870301610240890152614f6d868685614da7565b9550614f7c6101808f01614118565b6001600160801b031981166102608a01529450614f9d6101a08f018f614d62565b955092508188870301610280890152614fb7868685614da7565b9550614fc76101c08f018f614d62565b9550925081888703016102a0890152614fe1868685614da7565b9550614fef848f018f614d62565b9550935081888703016102c0890152615009868686614da7565b9550615017818f018f614cd2565b955093505080878603016102e08801525050615034838383614dd0565b604086019a909a52505050506060810194909452608084019290925260a083015260c09091015292915050565b60006001600160801b03198061507684614118565b1684528061508660208501614118565b1660208501528061509960408501614118565b166040850152506150ad6060830183614cd2565b60a060608601526150c260a086018284614dd0565b9150506150d26080840184614d62565b858303608087015261445f838284614da7565b60006101008083526150f98184018c615061565b60208481018c905284820360408601528a518083528b82019350909182019060005b818110156151415784516001600160801b0319168352938301939183019160010161511b565b50506060850199909952505050608081019490945260a084019290925260c083015260e0909101529392505050565b60006020828403121561518257600080fd5b81358015158114613e7b57600080fd5b6000808335601e198436030181126151a957600080fd5b8301803591506001600160401b038211156151c357600080fd5b60200191503681900382131561479d57600080fd5b60c0815260006001600160801b03198089511660c08401528060208a01511660e084015250604088015161010061521a818501836001600160801b0319169052565b60608a0151151561012085015260808a015161014085015260a08a015161016085015260c08a015161018085015260e08a01516101a085019190915290506152666101c0840182614082565b6020840198909852505060408101949094526060840192909252608083015260a090910152919050565b60208082526018908201527f446f6573206e6f7420686176652061646d696e20726f6c650000000000000000604082015260600190565b6000808335601e198436030181126152de57600080fd5b8301803591506001600160401b038211156152f857600080fd5b602001915060608102360382131561479d57600080fd5b600081518084526020808501808196508360051b8101915082860160005b85811015614e20578284038952615345848351614082565b9885019893509084019060010161532d565b8481526001600160801b031984166020820152608060408201526000615380608083018561530f565b905082606083015295945050505050565b6000808335601e198436030181126153a857600080fd5b8301803591506001600160401b038211156153c257600080fd5b6020019150600581901b360382131561479d57600080fd5b6000613e7b368484614514565b8051825260208101516020830152600060408201516001600160801b03198082166040860152806060850151166060860152806080850151166080860152505060a082015160e060a085015261544060e085018261530f565b905060c083015184820360c08601526154598282614082565b95945050505050565b60c08152600061547560c08301896153e7565b60208301979097525060408101949094526060840192909252608083015260a090910152919050565b60e0815260006154b160e083018a615061565b60208301989098525060408101959095526060850193909352608084019190915260a083015260c090910152919050565b6000602082840312156154f457600080fd5b813564ffffffffff81168114613e7b57600080fd5b8082028115828204841417610a0857610a08614c67565b87815286602082015260e06040820152600061553f60e083018861530f565b82810360608401526155518188614082565b905082810360808401526155658187614082565b60a0840195909552505060c0015295945050505050565b60e0815260006154b160e083018a6153e7565b6020808252602b908201527f496e697469616c697a61626c653a20636f6e7472616374206973206e6f74206960408201526a6e697469616c697a696e6760a81b606082015260800190565b65ffffffffffff8181168382160190808211156155f9576155f9614c67565b5092915050565b7f416363657373436f6e74726f6c3a206163636f756e742000000000000000000081526000835161563881601785016020880161405e565b7001034b99036b4b9b9b4b733903937b6329607d1b601791840191820152835161566981602884016020880161405e565b01602801949350505050565b65ffffffffffff8281168282160390808211156155f9576155f9614c67565b6000816156a3576156a3614c67565b50600019019056fe523a704056dcd17bcf83bed8b68c59416dac1119be77755efe3bde0a64e46e0cdf8b4c520ffe197c5343c6f5aec59570151ef9a492f2c624fd45ddde6135ec42","linkReferences":{"src/lib/Stock.sol":{"StockLib":[{"start":3844,"length":20},{"start":4135,"length":20},{"start":4672,"length":20},{"start":6988,"length":20},{"start":7446,"length":20},{"start":8513,"length":20},{"start":11462,"length":20}]},"src/lib/transactions/Adjustment.sol":{"Adjustment":[{"start":10867,"length":20},{"start":12786,"length":20}]}}},"methodIdentifiers":{"ADMIN_ROLE()":"75b238fc","DEFAULT_ADMIN_ROLE()":"a217fddf","OPERATOR_ROLE()":"f5b541a6","acceptDefaultAdminTransfer()":"cefc1429","acceptStock(bytes16,bytes16,bytes16,string[])":"3e4106f3","addAdmin(address)":"70480275","addOperator(address)":"9870d7fe","addWalletToStakeholder(bytes16,address)":"2629ac0f","adjustIssuerAuthorizedShares(uint256,string[],string,string)":"b6238cd1","adjustStockClassAuthorizedShares(bytes16,uint256,string[],string,string)":"efb87519","beginDefaultAdminTransfer(address)":"634e93da","cancelDefaultAdminTransfer()":"d602b9fd","cancelStock((bytes16,bytes16,bytes16,string[],string),uint256)":"438fd5d8","changeDefaultAdminDelay(uint48)":"649a5ec7","createStakeholder(bytes16,string,string)":"d95a6be5","createStockClass(bytes16,string,uint256,uint256)":"4afd58fa","createStockLegendTemplate(bytes16)":"c1ad1d20","defaultAdmin()":"84ef8ffc","defaultAdminDelay()":"cc8463c8","defaultAdminDelayIncreaseWait()":"022d63fb","getActivePosition(bytes16,bytes16)":"63aefa5a","getAveragePosition(bytes16,bytes16)":"a1fc8196","getRoleAdmin(bytes32)":"248a9ca3","getStakeholderById(bytes16)":"f908b949","getStakeholderIdByWallet(address)":"a9e9f32a","getStockClassById(bytes16)":"371dc885","getTotalActiveSecuritiesCount()":"4d21af64","getTotalNumberOfStakeholders()":"84266a7d","getTotalNumberOfStockClasses()":"6924e428","getTransactionsCount()":"578cb8f9","grantRole(bytes32,address)":"2f2ff15d","hasRole(bytes32,address)":"91d14854","initialize(bytes16,string,uint256,address)":"07cd926d","issueStock((bytes16,bytes16,(uint256,uint256),uint256,uint256,bytes16,uint256,bytes16[],string,string[],string,bytes16,string,string,string,string[]))":"08748030","issuer()":"1d143848","nonce()":"affed0e0","owner()":"8da5cb5b","pendingDefaultAdmin()":"cf6eefb7","pendingDefaultAdminDelay()":"a1eda53c","reissueStock((bytes16,bytes16,bytes16,string[],string),bytes16[])":"0c22d6bb","removeAdmin(address)":"1785f53c","removeOperator(address)":"ac8a584a","removeWalletFromStakeholder(bytes16,address)":"d125ba8b","renounceRole(bytes32,address)":"36568abe","repurchaseStock((bytes16,bytes16,bytes16,string[],string),uint256,uint256)":"c93fed66","retractStockIssuance((bytes16,bytes16,bytes16,string[],string))":"7799960d","revokeRole(bytes32,address)":"d547741f","rollbackDefaultAdminDelay()":"0aa6220b","seedMultipleActivePositionsAndSecurityIds(bytes16[],bytes16[],bytes16[],uint256[],uint256[],uint40[])":"924a750e","seedSharesAuthorizedAndIssued(((uint256,uint256),(bytes16,uint256,uint256)[]))":"3cec69df","stakeholderIndex(bytes16)":"69197f4d","stakeholders(uint256)":"1d6b8b72","stockClassIndex(bytes16)":"c95f650e","stockClasses(uint256)":"013f7f4f","stockLegendTemplates(uint256)":"63e71c4c","supportsInterface(bytes4)":"01ffc9a7","transactions(uint256)":"9ace38c2","transferStock((bytes16,bytes16,bytes16,bool,uint256,uint256,uint256,string))":"1003d098","walletsPerStakeholder(address)":"c8acae86"},"id":51}