{"abi":[{"type":"constructor","inputs":[{"name":"_capTableImplementation","type":"address","internalType":"address"}],"stateMutability":"nonpayable"},{"type":"function","name":"capTableBeacon","inputs":[],"outputs":[{"name":"","type":"address","internalType":"contract UpgradeableBeacon"}],"stateMutability":"view"},{"type":"function","name":"capTableImplementation","inputs":[],"outputs":[{"name":"","type":"address","internalType":"address"}],"stateMutability":"view"},{"type":"function","name":"capTableProxies","inputs":[{"name":"","type":"uint256","internalType":"uint256"}],"outputs":[{"name":"","type":"address","internalType":"address"}],"stateMutability":"view"},{"type":"function","name":"createCapTable","inputs":[{"name":"id","type":"bytes16","internalType":"bytes16"},{"name":"name","type":"string","internalType":"string"},{"name":"initial_shares_authorized","type":"uint256","internalType":"uint256"}],"outputs":[{"name":"","type":"address","internalType":"address"}],"stateMutability":"nonpayable"},{"type":"function","name":"getCapTableCount","inputs":[],"outputs":[{"name":"","type":"uint256","internalType":"uint256"}],"stateMutability":"view"},{"type":"function","name":"owner","inputs":[],"outputs":[{"name":"","type":"address","internalType":"address"}],"stateMutability":"view"},{"type":"function","name":"renounceOwnership","inputs":[],"outputs":[],"stateMutability":"nonpayable"},{"type":"function","name":"transferOwnership","inputs":[{"name":"newOwner","type":"address","internalType":"address"}],"outputs":[],"stateMutability":"nonpayable"},{"type":"function","name":"updateCapTableImplementation","inputs":[{"name":"newImplementation","type":"address","internalType":"address"}],"outputs":[],"stateMutability":"nonpayable"},{"type":"event","name":"CapTableCreated","inputs":[{"name":"capTableProxy","type":"address","indexed":true,"internalType":"address"}],"anonymous":false},{"type":"event","name":"OwnershipTransferred","inputs":[{"name":"previousOwner","type":"address","indexed":true,"internalType":"address"},{"name":"newOwner","type":"address","indexed":true,"internalType":"address"}],"anonymous":false}],"bytecode":{"object":"0x608060405234801561001057600080fd5b5060405161143138038061143183398101604081905261002f9161016c565b6100383361010f565b6001600160a01b0381166100925760405162461bcd60e51b815260206004820152601e60248201527f496e76616c696420696d706c656d656e746174696f6e20616464726573730000604482015260640160405180910390fd5b600180546001600160a01b0319166001600160a01b0383169081179091556040516100bc9061015f565b6001600160a01b039091168152602001604051809103906000f0801580156100e8573d6000803e3d6000fd5b50600280546001600160a01b0319166001600160a01b03929092169190911790555061019c565b600080546001600160a01b038381166001600160a01b0319831681178455604051919092169283917f8be0079c531659141344cd1fd0a4f28419497f9722a3daafe3b4186f6b6457e09190a35050565b61048880610fa983390190565b60006020828403121561017e57600080fd5b81516001600160a01b038116811461019557600080fd5b9392505050565b610dfe806101ab6000396000f3fe60806040523480156200001157600080fd5b50600436106200009f5760003560e01c8063973837f9116200006e578063973837f9146200010a578063aa3c962d1462000121578063f0f6d5a01462000135578063f2fde38b1462000147578063ffa822db146200015e57600080fd5b80636200b50914620000a4578063715018a614620000d8578063795a24ba14620000e45780638da5cb5b14620000f8575b600080fd5b620000bb620000b53660046200055b565b62000175565b6040516001600160a01b0390911681526020015b60405180910390f35b620000e2620001a0565b005b600154620000bb906001600160a01b031681565b6000546001600160a01b0316620000bb565b620000e26200011b36600462000575565b620001b8565b600254620000bb906001600160a01b031681565b600354604051908152602001620000cf565b620000e26200015836600462000575565b620002a2565b620000bb6200016f366004620005bd565b62000321565b600381815481106200018657600080fd5b6000918252602090912001546001600160a01b0316905081565b620001aa620004a1565b620001b66000620004fd565b565b620001c2620004a1565b6001600160a01b0381166200021e5760405162461bcd60e51b815260206004820152601e60248201527f496e76616c696420696d706c656d656e746174696f6e2061646472657373000060448201526064015b60405180910390fd5b600254604051631b2ce7f360e11b81526001600160a01b03838116600483015290911690633659cfe690602401600060405180830381600087803b1580156200026657600080fd5b505af11580156200027b573d6000803e3d6000fd5b5050600180546001600160a01b0319166001600160a01b0394909416939093179092555050565b620002ac620004a1565b6001600160a01b038116620003135760405162461bcd60e51b815260206004820152602660248201527f4f776e61626c653a206e6577206f776e657220697320746865207a65726f206160448201526564647265737360d01b606482015260840162000215565b6200031e81620004fd565b50565b60006200032d620004a1565b6001600160801b03198416158015906200034657508115155b6200038c5760405162461bcd60e51b8152602060048201526015602482015274496e76616c69642069737375657220706172616d7360581b604482015260640162000215565b600084848433604051602401620003a79493929190620006ea565b60408051601f198184030181529181526020820180516001600160e01b03166307cd926d60e01b17905260025490519192506000916001600160a01b03909116908390620003f5906200054d565b6200040292919062000739565b604051809103906000f0801580156200041f573d6000803e3d6000fd5b506003805460018101825560009182527fc2575a0e9e593c00f959f8c92f12db2869c3395a3b0502d05e2516446f71f85b0180546001600160a01b0319166001600160a01b038416908117909155604051929350917f2a588e339f58f8b979f2068206590a6ec33cb720d94f5dc3d7e84ae9f25ea5389190a295945050505050565b6000546001600160a01b03163314620001b65760405162461bcd60e51b815260206004820181905260248201527f4f776e61626c653a2063616c6c6572206973206e6f7420746865206f776e6572604482015260640162000215565b600080546001600160a01b038381166001600160a01b0319831681178455604051919092169283917f8be0079c531659141344cd1fd0a4f28419497f9722a3daafe3b4186f6b6457e09190a35050565b610696806200076883390190565b6000602082840312156200056e57600080fd5b5035919050565b6000602082840312156200058857600080fd5b81356001600160a01b0381168114620005a057600080fd5b9392505050565b634e487b7160e01b600052604160045260246000fd5b600080600060608486031215620005d357600080fd5b83356001600160801b031981168114620005ec57600080fd5b9250602084013567ffffffffffffffff808211156200060a57600080fd5b818601915086601f8301126200061f57600080fd5b813581811115620006345762000634620005a7565b604051601f8201601f19908116603f011681019083821181831017156200065f576200065f620005a7565b816040528281528960208487010111156200067957600080fd5b826020860160208301376000602084830101528096505050505050604084013590509250925092565b6000815180845260005b81811015620006ca57602081850181015186830182015201620006ac565b506000602082860101526020601f19601f83011685010191505092915050565b6fffffffffffffffffffffffffffffffff1985168152608060208201526000620007186080830186620006a2565b6040830194909452506001600160a01b039190911660609091015292915050565b6001600160a01b03831681526040602082018190526000906200075f90830184620006a2565b94935050505056fe608060405260405161069638038061069683398101604081905261002291610420565b61002e82826000610035565b505061054a565b61003e836100f6565b6040516001600160a01b038416907f1cf3b03a6cf19fa2baba4df148e9dcabedea7f8a5c07840e207e5c089be95d3e90600090a260008251118061007f5750805b156100f1576100ef836001600160a01b0316635c60da1b6040518163ffffffff1660e01b8152600401602060405180830381865afa1580156100c5573d6000803e3d6000fd5b505050506040513d601f19601f820116820180604052508101906100e991906104e0565b8361027a565b505b505050565b6001600160a01b0381163b6101605760405162461bcd60e51b815260206004820152602560248201527f455243313936373a206e657720626561636f6e206973206e6f74206120636f6e6044820152641d1c9858dd60da1b60648201526084015b60405180910390fd5b6101d4816001600160a01b0316635c60da1b6040518163ffffffff1660e01b8152600401602060405180830381865afa1580156101a1573d6000803e3d6000fd5b505050506040513d601f19601f820116820180604052508101906101c591906104e0565b6001600160a01b03163b151590565b6102395760405162461bcd60e51b815260206004820152603060248201527f455243313936373a20626561636f6e20696d706c656d656e746174696f6e206960448201526f1cc81b9bdd08184818dbdb9d1c9858dd60821b6064820152608401610157565b7fa3f0ad74e5423aebfd80d3ef4346578335a9a72aeaee59ff6cb3582b35133d5080546001600160a01b0319166001600160a01b0392909216919091179055565b606061029f838360405180606001604052806027815260200161066f602791396102a6565b9392505050565b6060600080856001600160a01b0316856040516102c391906104fb565b600060405180830381855af49150503d80600081146102fe576040519150601f19603f3d011682016040523d82523d6000602084013e610303565b606091505b5090925090506103158683838761031f565b9695505050505050565b6060831561038e578251600003610387576001600160a01b0385163b6103875760405162461bcd60e51b815260206004820152601d60248201527f416464726573733a2063616c6c20746f206e6f6e2d636f6e74726163740000006044820152606401610157565b5081610398565b61039883836103a0565b949350505050565b8151156103b05781518083602001fd5b8060405162461bcd60e51b81526004016101579190610517565b80516001600160a01b03811681146103e157600080fd5b919050565b634e487b7160e01b600052604160045260246000fd5b60005b838110156104175781810151838201526020016103ff565b50506000910152565b6000806040838503121561043357600080fd5b61043c836103ca565b60208401519092506001600160401b038082111561045957600080fd5b818501915085601f83011261046d57600080fd5b81518181111561047f5761047f6103e6565b604051601f8201601f19908116603f011681019083821181831017156104a7576104a76103e6565b816040528281528860208487010111156104c057600080fd5b6104d18360208301602088016103fc565b80955050505050509250929050565b6000602082840312156104f257600080fd5b61029f826103ca565b6000825161050d8184602087016103fc565b9190910192915050565b60208152600082518060208401526105368160408501602087016103fc565b601f01601f19169190910160400192915050565b610116806105596000396000f3fe60806040523661001357610011610017565b005b6100115b610027610022610029565b6100c2565b565b600061005c7fa3f0ad74e5423aebfd80d3ef4346578335a9a72aeaee59ff6cb3582b35133d50546001600160a01b031690565b6001600160a01b0316635c60da1b6040518163ffffffff1660e01b8152600401602060405180830381865afa158015610099573d6000803e3d6000fd5b505050506040513d601f19601f820116820180604052508101906100bd91906100e6565b905090565b3660008037600080366000845af43d6000803e8080156100e1573d6000f35b3d6000fd5b6000602082840312156100f857600080fd5b81516001600160a01b038116811461010f57600080fd5b939250505056416464726573733a206c6f772d6c6576656c2064656c65676174652063616c6c206661696c6564608060405234801561001057600080fd5b5060405161048838038061048883398101604081905261002f9161013a565b61003833610047565b61004181610097565b5061016a565b600080546001600160a01b038381166001600160a01b0319831681178455604051919092169283917f8be0079c531659141344cd1fd0a4f28419497f9722a3daafe3b4186f6b6457e09190a35050565b6001600160a01b0381163b6101185760405162461bcd60e51b815260206004820152603360248201527f5570677261646561626c65426561636f6e3a20696d706c656d656e746174696f60448201527f6e206973206e6f74206120636f6e747261637400000000000000000000000000606482015260840160405180910390fd5b600180546001600160a01b0319166001600160a01b0392909216919091179055565b60006020828403121561014c57600080fd5b81516001600160a01b038116811461016357600080fd5b9392505050565b61030f806101796000396000f3fe608060405234801561001057600080fd5b50600436106100575760003560e01c80633659cfe61461005c5780635c60da1b14610071578063715018a61461009a5780638da5cb5b146100a2578063f2fde38b146100b3575b600080fd5b61006f61006a3660046102df565b6100c6565b005b6001546001600160a01b03165b6040516001600160a01b03909116815260200160405180910390f35b61006f61010e565b6000546001600160a01b031661007e565b61006f6100c13660046102df565b610122565b6100ce6101a0565b6100d7816101fa565b6040516001600160a01b038216907fbc7cd75a20ee27fd9adebab32041f755214dbc6bffa90cc0225b39da2e5c2d3b90600090a250565b6101166101a0565b610120600061028f565b565b61012a6101a0565b6001600160a01b0381166101945760405162461bcd60e51b815260206004820152602660248201527f4f776e61626c653a206e6577206f776e657220697320746865207a65726f206160448201526564647265737360d01b60648201526084015b60405180910390fd5b61019d8161028f565b50565b6000546001600160a01b031633146101205760405162461bcd60e51b815260206004820181905260248201527f4f776e61626c653a2063616c6c6572206973206e6f7420746865206f776e6572604482015260640161018b565b6001600160a01b0381163b61026d5760405162461bcd60e51b815260206004820152603360248201527f5570677261646561626c65426561636f6e3a20696d706c656d656e746174696f6044820152721b881a5cc81b9bdd08184818dbdb9d1c9858dd606a1b606482015260840161018b565b600180546001600160a01b0319166001600160a01b0392909216919091179055565b600080546001600160a01b038381166001600160a01b0319831681178455604051919092169283917f8be0079c531659141344cd1fd0a4f28419497f9722a3daafe3b4186f6b6457e09190a35050565b6000602082840312156102f157600080fd5b81356001600160a01b038116811461030857600080fd5b939250505056","linkReferences":{}},"methodIdentifiers":{"capTableBeacon()":"aa3c962d","capTableImplementation()":"795a24ba","capTableProxies(uint256)":"6200b509","createCapTable(bytes16,string,uint256)":"ffa822db","getCapTableCount()":"f0f6d5a0","owner()":"8da5cb5b","renounceOwnership()":"715018a6","transferOwnership(address)":"f2fde38b","updateCapTableImplementation(address)":"973837f9"},"id":57}